{
  "_format": "hh-sol-artifact-1",
  "contractName": "RedirectAll",
  "sourceName": "contracts/RedirectAll.sol",
  "abi": [
    {
      "inputs": [
        {
          "internalType": "contract ISuperfluid",
          "name": "host",
          "type": "address"
        },
        {
          "internalType": "contract ISuperToken",
          "name": "acceptedToken",
          "type": "address"
        },
        {
          "internalType": "address",
          "name": "receiver",
          "type": "address"
        }
      ],
      "stateMutability": "nonpayable",
      "type": "constructor"
    },
    {
      "anonymous": false,
      "inputs": [
        {
          "indexed": false,
          "internalType": "address",
          "name": "receiver",
          "type": "address"
        }
      ],
      "name": "ReceiverChanged",
      "type": "event"
    },
    {
      "inputs": [],
      "name": "_receiver",
      "outputs": [
        {
          "internalType": "address",
          "name": "",
          "type": "address"
        }
      ],
      "stateMutability": "view",
      "type": "function"
    },
    {
      "inputs": [
        {
          "internalType": "contract ISuperToken",
          "name": "_superToken",
          "type": "address"
        },
        {
          "internalType": "address",
          "name": "_agreementClass",
          "type": "address"
        },
        {
          "internalType": "bytes32",
          "name": "",
          "type": "bytes32"
        },
        {
          "internalType": "bytes",
          "name": "",
          "type": "bytes"
        },
        {
          "internalType": "bytes",
          "name": "",
          "type": "bytes"
        },
        {
          "internalType": "bytes",
          "name": "_ctx",
          "type": "bytes"
        }
      ],
      "name": "afterAgreementCreated",
      "outputs": [
        {
          "internalType": "bytes",
          "name": "newCtx",
          "type": "bytes"
        }
      ],
      "stateMutability": "nonpayable",
      "type": "function"
    },
    {
      "inputs": [
        {
          "internalType": "contract ISuperToken",
          "name": "_superToken",
          "type": "address"
        },
        {
          "internalType": "address",
          "name": "_agreementClass",
          "type": "address"
        },
        {
          "internalType": "bytes32",
          "name": "",
          "type": "bytes32"
        },
        {
          "internalType": "bytes",
          "name": "",
          "type": "bytes"
        },
        {
          "internalType": "bytes",
          "name": "",
          "type": "bytes"
        },
        {
          "internalType": "bytes",
          "name": "_ctx",
          "type": "bytes"
        }
      ],
      "name": "afterAgreementTerminated",
      "outputs": [
        {
          "internalType": "bytes",
          "name": "newCtx",
          "type": "bytes"
        }
      ],
      "stateMutability": "nonpayable",
      "type": "function"
    },
    {
      "inputs": [
        {
          "internalType": "contract ISuperToken",
          "name": "_superToken",
          "type": "address"
        },
        {
          "internalType": "address",
          "name": "_agreementClass",
          "type": "address"
        },
        {
          "internalType": "bytes32",
          "name": "",
          "type": "bytes32"
        },
        {
          "internalType": "bytes",
          "name": "",
          "type": "bytes"
        },
        {
          "internalType": "bytes",
          "name": "",
          "type": "bytes"
        },
        {
          "internalType": "bytes",
          "name": "_ctx",
          "type": "bytes"
        }
      ],
      "name": "afterAgreementUpdated",
      "outputs": [
        {
          "internalType": "bytes",
          "name": "newCtx",
          "type": "bytes"
        }
      ],
      "stateMutability": "nonpayable",
      "type": "function"
    },
    {
      "inputs": [
        {
          "internalType": "contract ISuperToken",
          "name": "",
          "type": "address"
        },
        {
          "internalType": "address",
          "name": "",
          "type": "address"
        },
        {
          "internalType": "bytes32",
          "name": "",
          "type": "bytes32"
        },
        {
          "internalType": "bytes",
          "name": "",
          "type": "bytes"
        },
        {
          "internalType": "bytes",
          "name": "",
          "type": "bytes"
        }
      ],
      "name": "beforeAgreementCreated",
      "outputs": [
        {
          "internalType": "bytes",
          "name": "",
          "type": "bytes"
        }
      ],
      "stateMutability": "view",
      "type": "function"
    },
    {
      "inputs": [
        {
          "internalType": "contract ISuperToken",
          "name": "",
          "type": "address"
        },
        {
          "internalType": "address",
          "name": "",
          "type": "address"
        },
        {
          "internalType": "bytes32",
          "name": "",
          "type": "bytes32"
        },
        {
          "internalType": "bytes",
          "name": "",
          "type": "bytes"
        },
        {
          "internalType": "bytes",
          "name": "",
          "type": "bytes"
        }
      ],
      "name": "beforeAgreementTerminated",
      "outputs": [
        {
          "internalType": "bytes",
          "name": "",
          "type": "bytes"
        }
      ],
      "stateMutability": "view",
      "type": "function"
    },
    {
      "inputs": [
        {
          "internalType": "contract ISuperToken",
          "name": "",
          "type": "address"
        },
        {
          "internalType": "address",
          "name": "",
          "type": "address"
        },
        {
          "internalType": "bytes32",
          "name": "",
          "type": "bytes32"
        },
        {
          "internalType": "bytes",
          "name": "",
          "type": "bytes"
        },
        {
          "internalType": "bytes",
          "name": "",
          "type": "bytes"
        }
      ],
      "name": "beforeAgreementUpdated",
      "outputs": [
        {
          "internalType": "bytes",
          "name": "",
          "type": "bytes"
        }
      ],
      "stateMutability": "view",
      "type": "function"
    },
    {
      "inputs": [],
      "name": "cfaV1",
      "outputs": [
        {
          "internalType": "contract ISuperfluid",
          "name": "host",
          "type": "address"
        },
        {
          "internalType": "contract IConstantFlowAgreementV1",
          "name": "cfa",
          "type": "address"
        }
      ],
      "stateMutability": "view",
      "type": "function"
    },
    {
      "inputs": [],
      "name": "currentReceiver",
      "outputs": [
        {
          "internalType": "uint256",
          "name": "startTime",
          "type": "uint256"
        },
        {
          "internalType": "address",
          "name": "receiver",
          "type": "address"
        },
        {
          "internalType": "int96",
          "name": "flowRate",
          "type": "int96"
        }
      ],
      "stateMutability": "view",
      "type": "function"
    }
  ],
  "bytecode": "0x60806040523480156200001157600080fd5b506040516200113a3803806200113a833981016040819052620000349162000202565b6001600160a01b0383166200004d576200004d62000256565b6001600160a01b03821662000066576200006662000256565b6001600160a01b0381166200007f576200007f62000256565b600280546001600160a01b0319166001600160a01b038516908117909155604051635b69006f60e11b81527fa9214cc96615e0085d3bb077758db69497dc2dce3b2b1e97bc93c3d18d83efd3600482015263b6d200de90602401602060405180830381865afa158015620000f7573d6000803e3d6000fd5b505050506040513d601f19601f820116820180604052508101906200011d91906200026c565b600380546001600160a01b03199081166001600160a01b039384169081179092556004805482168685161781556005805483168686161790556040805180820182526002549095168086526020909501849052600080548416861790556001805490931690931790915590516315a722b960e31b815264150000000191810182905290919063ad3915c890602401600060405180830381600087803b158015620001c657600080fd5b505af1158015620001db573d6000803e3d6000fd5b505050505050505062000293565b6001600160a01b0381168114620001ff57600080fd5b50565b6000806000606084860312156200021857600080fd5b83516200022581620001e9565b60208501519093506200023881620001e9565b60408501519092506200024b81620001e9565b809150509250925092565b634e487b7160e01b600052600160045260246000fd5b6000602082840312156200027f57600080fd5b81516200028c81620001e9565b9392505050565b610e9780620002a36000396000f3fe608060405234801561001057600080fd5b50600436106100935760003560e01c806353c11f991161006657806353c11f99146101295780635f9e7d771461013c578063884d1f401461014f578063d3112b2e14610162578063d86ed3e5146100c857600080fd5b806302964ff114610098578063230dbd29146100c857806328d2bf94146100e857806330d9c91514610116575b600080fd5b6005546100ab906001600160a01b031681565b6040516001600160a01b0390911681526020015b60405180910390f35b6100db6100d636600461098a565b61019c565b6040516100bf9190610ab1565b6100f06102ac565b604080519384526001600160a01b039092166020840152600b0b908201526060016100bf565b6100db610124366004610acb565b610365565b6100db61013736600461098a565b6103c8565b6100db61014a366004610acb565b610476565b6100db61015d366004610acb565b6104dd565b60005460015461017c916001600160a01b03908116911682565b604080516001600160a01b039384168152929091166020830152016100bf565b606089896101b8826004546001600160a01b0391821691161490565b6102095760405162461bcd60e51b815260206004820152601f60248201527f5265646972656374416c6c3a206e6f7420616363657074656420746f6b656e0060448201526064015b60405180910390fd5b61021281610540565b6102685760405162461bcd60e51b815260206004820152602160248201527f5265646972656374416c6c3a206f6e6c7920434641763120737570706f7274656044820152601960fa1b6064820152608401610200565b6002546001600160a01b031633146102925760405162461bcd60e51b815260040161020090610b6a565b61029c85856105cc565b9c9b505050505050505050505050565b600554600090819081906001600160a01b0316156103605760035460048054600554604051631cd43d1160e31b81526001600160a01b0392831693810193909352306024840152811660448301529091169063e6a1e88890606401608060405180830381865afa158015610324573d6000803e3d6000fd5b505050506040513d601f19601f820116820180604052508101906103489190610bc3565b50506005549194506001600160a01b03909116925090505b909192565b60405162461bcd60e51b815260206004820152602f60248201527f556e737570706f727465642063616c6c6261636b202d204265666f726520416760448201526e1c99595b595b9d0810dc99585d1959608a1b6064820152606090608401610200565b6002546060906001600160a01b031633146103f55760405162461bcd60e51b815260040161020090610b6a565b6004546001600160a01b038b81169116141580610418575061041689610540565b155b1561045c5782828080601f01602080910402602001604051908101604052809392919081815260200183838082843760009201919091525092935061046992505050565b61046683836105cc565b90505b9998505050505050505050565b60405162461bcd60e51b815260206004820152603360248201527f556e737570706f727465642063616c6c6261636b202d20204265666f7265204160448201527219dc99595b595b9d0815195c9b5a5b985d1959606a1b6064820152606090608401610200565b60405162461bcd60e51b815260206004820152602f60248201527f556e737570706f727465642063616c6c6261636b202d204265666f726520416760448201526e1c99595b595b9d081d5c19185d1959608a1b6064820152606090608401610200565b60007fa9214cc96615e0085d3bb077758db69497dc2dce3b2b1e97bc93c3d18d83efd3826001600160a01b0316637730599e6040518163ffffffff1660e01b8152600401602060405180830381865afa1580156105a1573d6000803e3d6000fd5b505050506040513d601f19601f820116820180604052508101906105c59190610bff565b1492915050565b606082828080601f01602080910402602001604051908101604052809392919081815260200183838082843760009201829052506003546004805460405163e8e7e2d160e01b81526001600160a01b0391821692810192909252306024830152969750919516935063e8e7e2d192506044019050602060405180830381865afa15801561065d573d6000803e3d6000fd5b505050506040513d601f19601f820116820180604052508101906106819190610c18565b60035460048054600554604051631cd43d1160e31b81526001600160a01b0392831693810193909352306024840152811660448301529293506000929091169063e6a1e88890606401608060405180830381865afa1580156106e7573d6000803e3d6000fd5b505050506040513d601f19601f8201168201806040525081019061070b9190610bc3565b50509150506000818361071e9190610c49565b9050600b81900b6107535760055460045461074c91600091879130916001600160a01b0391821691166107ad565b93506107a4565b600b82900b1561077f5760055460045461074c9160009187916001600160a01b03908116911685610891565b6005546004546107a19160009187916001600160a01b039081169116856108fa565b93505b50505092915050565b845460018601546040805160008152602081019091526060926001600160a01b0390811692634329d29392911690635a5999e360e11b906107f79087908a908a9060448101610cb8565b60408051601f198184030181529181526020820180516001600160e01b03166001600160e01b03199485161790525160e085901b909216825261083f92918a90600401610cf6565b6000604051808303816000875af115801561085e573d6000803e3d6000fd5b505050506040513d6000823e601f3d908101601f191682016040526108869190810190610dc7565b509695505050505050565b845460018601546060916001600160a01b0390811691634329d29391166328104d3160e11b86888760005b6040519080825280601f01601f1916602001820160405280156108e6576020820181803683370190505b506040516024016107f79493929190610e2b565b845460018601546060916001600160a01b0390811691634329d293911663317e182f60e11b86888760006108bc565b6001600160a01b038116811461093e57600080fd5b50565b60008083601f84011261095357600080fd5b50813567ffffffffffffffff81111561096b57600080fd5b60208301915083602082850101111561098357600080fd5b9250929050565b600080600080600080600080600060c08a8c0312156109a857600080fd5b89356109b381610929565b985060208a01356109c381610929565b975060408a0135965060608a013567ffffffffffffffff808211156109e757600080fd5b6109f38d838e01610941565b909850965060808c0135915080821115610a0c57600080fd5b610a188d838e01610941565b909650945060a08c0135915080821115610a3157600080fd5b50610a3e8c828d01610941565b915080935050809150509295985092959850929598565b60005b83811015610a70578181015183820152602001610a58565b83811115610a7f576000848401525b50505050565b60008151808452610a9d816020860160208601610a55565b601f01601f19169290920160200192915050565b602081526000610ac46020830184610a85565b9392505050565b600080600080600080600060a0888a031215610ae657600080fd5b8735610af181610929565b96506020880135610b0181610929565b955060408801359450606088013567ffffffffffffffff80821115610b2557600080fd5b610b318b838c01610941565b909650945060808a0135915080821115610b4a57600080fd5b50610b578a828b01610941565b989b979a50959850939692959293505050565b60208082526022908201527f5265646972656374416c6c3a20737570706f7274206f6e6c79206f6e6520686f6040820152611cdd60f21b606082015260800190565b8051600b81900b8114610bbe57600080fd5b919050565b60008060008060808587031215610bd957600080fd5b84519350610be960208601610bac565b6040860151606090960151949790965092505050565b600060208284031215610c1157600080fd5b5051919050565b600060208284031215610c2a57600080fd5b610ac482610bac565b634e487b7160e01b600052601160045260246000fd5b600081600b0b83600b0b60008212826b7fffffffffffffffffffffff03821381151615610c7857610c78610c33565b826b7fffffffffffffffffffffff19038212811615610c9957610c99610c33565b50019392505050565b634e487b7160e01b600052604160045260246000fd5b6001600160a01b038581168252848116602083015283166040820152608060608201819052600090610cec90830184610a85565b9695505050505050565b6001600160a01b0384168152608060208201819052600090610d1a90830185610a85565b8281038060408501526002825261060f60f31b602083015260408101606085015250610cec6040820185610a85565b600082601f830112610d5a57600080fd5b815167ffffffffffffffff80821115610d7557610d75610ca2565b604051601f8301601f19908116603f01168101908282118183101715610d9d57610d9d610ca2565b81604052838152866020858801011115610db657600080fd5b610cec846020830160208901610a55565b60008060408385031215610dda57600080fd5b825167ffffffffffffffff80821115610df257600080fd5b610dfe86838701610d49565b93506020850151915080821115610e1457600080fd5b50610e2185828601610d49565b9150509250929050565b6001600160a01b03858116825284166020820152600b83900b6040820152608060608201819052600090610cec90830184610a8556fea2646970667358221220066dbf6e98f9570d4af9af231f164dbd95d70f8b1b25f32c20710096a2e9a8e264736f6c634300080d0033",
  "linkReferences": {},
  "deployedLinkReferences": {}
}