{
  "_format": "hh-sol-artifact-1",
  "contractName": "SuperQuadraticFunding",
  "sourceName": "contracts/SuperQuadraticFunding.sol",
  "abi": [
    {
      "inputs": [
        {
          "internalType": "contract ISuperfluid",
          "name": "host",
          "type": "address"
        },
        {
          "internalType": "contract ISuperToken",
          "name": "acceptedToken",
          "type": "address"
        }
      ],
      "stateMutability": "nonpayable",
      "type": "constructor"
    },
    {
      "inputs": [
        {
          "internalType": "address",
          "name": "charity",
          "type": "address"
        }
      ],
      "name": "addCharity",
      "outputs": [],
      "stateMutability": "nonpayable",
      "type": "function"
    },
    {
      "inputs": [
        {
          "internalType": "contract ISuperToken",
          "name": "_superToken",
          "type": "address"
        },
        {
          "internalType": "address",
          "name": "_agreementClass",
          "type": "address"
        },
        {
          "internalType": "bytes32",
          "name": "",
          "type": "bytes32"
        },
        {
          "internalType": "bytes",
          "name": "",
          "type": "bytes"
        },
        {
          "internalType": "bytes",
          "name": "_cbdata",
          "type": "bytes"
        },
        {
          "internalType": "bytes",
          "name": "_ctx",
          "type": "bytes"
        }
      ],
      "name": "afterAgreementCreated",
      "outputs": [
        {
          "internalType": "bytes",
          "name": "newCtx",
          "type": "bytes"
        }
      ],
      "stateMutability": "nonpayable",
      "type": "function"
    },
    {
      "inputs": [
        {
          "internalType": "contract ISuperToken",
          "name": "",
          "type": "address"
        },
        {
          "internalType": "address",
          "name": "",
          "type": "address"
        },
        {
          "internalType": "bytes32",
          "name": "",
          "type": "bytes32"
        },
        {
          "internalType": "bytes",
          "name": "",
          "type": "bytes"
        },
        {
          "internalType": "bytes",
          "name": "_cbdata",
          "type": "bytes"
        },
        {
          "internalType": "bytes",
          "name": "_ctx",
          "type": "bytes"
        }
      ],
      "name": "afterAgreementTerminated",
      "outputs": [
        {
          "internalType": "bytes",
          "name": "newCtx",
          "type": "bytes"
        }
      ],
      "stateMutability": "nonpayable",
      "type": "function"
    },
    {
      "inputs": [
        {
          "internalType": "contract ISuperToken",
          "name": "_superToken",
          "type": "address"
        },
        {
          "internalType": "address",
          "name": "_agreementClass",
          "type": "address"
        },
        {
          "internalType": "bytes32",
          "name": "",
          "type": "bytes32"
        },
        {
          "internalType": "bytes",
          "name": "",
          "type": "bytes"
        },
        {
          "internalType": "bytes",
          "name": "_cbdata",
          "type": "bytes"
        },
        {
          "internalType": "bytes",
          "name": "_ctx",
          "type": "bytes"
        }
      ],
      "name": "afterAgreementUpdated",
      "outputs": [
        {
          "internalType": "bytes",
          "name": "newCtx",
          "type": "bytes"
        }
      ],
      "stateMutability": "nonpayable",
      "type": "function"
    },
    {
      "inputs": [
        {
          "internalType": "contract ISuperToken",
          "name": "_superToken",
          "type": "address"
        },
        {
          "internalType": "address",
          "name": "_agreementClass",
          "type": "address"
        },
        {
          "internalType": "bytes32",
          "name": "",
          "type": "bytes32"
        },
        {
          "internalType": "bytes",
          "name": "",
          "type": "bytes"
        },
        {
          "internalType": "bytes",
          "name": "_ctx",
          "type": "bytes"
        }
      ],
      "name": "beforeAgreementCreated",
      "outputs": [
        {
          "internalType": "bytes",
          "name": "cbdata",
          "type": "bytes"
        }
      ],
      "stateMutability": "view",
      "type": "function"
    },
    {
      "inputs": [
        {
          "internalType": "contract ISuperToken",
          "name": "_superToken",
          "type": "address"
        },
        {
          "internalType": "address",
          "name": "_agreementClass",
          "type": "address"
        },
        {
          "internalType": "bytes32",
          "name": "",
          "type": "bytes32"
        },
        {
          "internalType": "bytes",
          "name": "",
          "type": "bytes"
        },
        {
          "internalType": "bytes",
          "name": "",
          "type": "bytes"
        }
      ],
      "name": "beforeAgreementTerminated",
      "outputs": [
        {
          "internalType": "bytes",
          "name": "cbdata",
          "type": "bytes"
        }
      ],
      "stateMutability": "view",
      "type": "function"
    },
    {
      "inputs": [
        {
          "internalType": "contract ISuperToken",
          "name": "_superToken",
          "type": "address"
        },
        {
          "internalType": "address",
          "name": "_agreementClass",
          "type": "address"
        },
        {
          "internalType": "bytes32",
          "name": "_agreementId",
          "type": "bytes32"
        },
        {
          "internalType": "bytes",
          "name": "",
          "type": "bytes"
        },
        {
          "internalType": "bytes",
          "name": "_ctx",
          "type": "bytes"
        }
      ],
      "name": "beforeAgreementUpdated",
      "outputs": [
        {
          "internalType": "bytes",
          "name": "cbdata",
          "type": "bytes"
        }
      ],
      "stateMutability": "view",
      "type": "function"
    },
    {
      "inputs": [],
      "name": "cfaV1",
      "outputs": [
        {
          "internalType": "contract ISuperfluid",
          "name": "host",
          "type": "address"
        },
        {
          "internalType": "contract IConstantFlowAgreementV1",
          "name": "cfa",
          "type": "address"
        }
      ],
      "stateMutability": "view",
      "type": "function"
    },
    {
      "inputs": [
        {
          "internalType": "address",
          "name": "",
          "type": "address"
        }
      ],
      "name": "charities",
      "outputs": [
        {
          "internalType": "bool",
          "name": "",
          "type": "bool"
        }
      ],
      "stateMutability": "view",
      "type": "function"
    },
    {
      "inputs": [
        {
          "internalType": "address",
          "name": "",
          "type": "address"
        }
      ],
      "name": "charityToFlowRate",
      "outputs": [
        {
          "internalType": "int96",
          "name": "",
          "type": "int96"
        }
      ],
      "stateMutability": "view",
      "type": "function"
    },
    {
      "inputs": [
        {
          "internalType": "address",
          "name": "charity",
          "type": "address"
        }
      ],
      "name": "removeCharity",
      "outputs": [],
      "stateMutability": "nonpayable",
      "type": "function"
    },
    {
      "inputs": [
        {
          "internalType": "address",
          "name": "",
          "type": "address"
        }
      ],
      "name": "userToCharity",
      "outputs": [
        {
          "internalType": "address",
          "name": "",
          "type": "address"
        }
      ],
      "stateMutability": "view",
      "type": "function"
    },
    {
      "inputs": [
        {
          "internalType": "address",
          "name": "",
          "type": "address"
        }
      ],
      "name": "userToFlowRate",
      "outputs": [
        {
          "internalType": "int96",
          "name": "",
          "type": "int96"
        }
      ],
      "stateMutability": "view",
      "type": "function"
    }
  ],
  "bytecode": "0x60806040523480156200001157600080fd5b5060405162001e3e38038062001e3e8339810160408190526200003491620001d4565b6001600160a01b0382166200004d576200004d62000213565b6001600160a01b03811662000066576200006662000213565b600280546001600160a01b0319166001600160a01b038416908117909155604051635b69006f60e11b81527fa9214cc96615e0085d3bb077758db69497dc2dce3b2b1e97bc93c3d18d83efd3600482015263b6d200de90602401602060405180830381865afa158015620000de573d6000803e3d6000fd5b505050506040513d601f19601f8201168201806040525081019062000104919062000229565b600380546001600160a01b03199081166001600160a01b0393841690811790925560048054821685851617815560408051808201825260025490951680865260209095018490526000805484168617905560018054909316909317825591516315a722b960e31b8152918201819052919063ad3915c890602401600060405180830381600087803b1580156200019957600080fd5b505af1158015620001ae573d6000803e3d6000fd5b5050505050505062000250565b6001600160a01b0381168114620001d157600080fd5b50565b60008060408385031215620001e857600080fd5b8251620001f581620001bb565b60208401519092506200020881620001bb565b809150509250929050565b634e487b7160e01b600052600160045260246000fd5b6000602082840312156200023c57600080fd5b81516200024981620001bb565b9392505050565b611bde80620002606000396000f3fe608060405234801561001057600080fd5b50600436106100cf5760003560e01c80635f9e7d771161008c578063abefe59111610066578063abefe591146101e6578063d3112b2e146101f9578063d86ed3e514610233578063eada8c8b1461024657600080fd5b80635f9e7d77146101ab57806378b14f0a146101be578063884d1f40146101d357600080fd5b80630f89f971146100d4578063230dbd291461010f5780632478239a1461012f57806330d9c91514610162578063324418091461017557806353c11f9914610198575b600080fd5b6100f76100e2366004611397565b600560205260009081526040902054600b0b81565b604051600b9190910b81526020015b60405180910390f35b61012261011d366004611404565b610287565b604051610106919061152b565b61015261013d366004611397565b60066020526000908152604090205460ff1681565b6040519015158152602001610106565b61012261017036600461153e565b6105c9565b6100f7610183366004611397565b600860205260009081526040902054600b0b81565b6101226101a6366004611404565b610812565b6101226101b936600461153e565b6109e2565b6101d16101cc366004611397565b610a82565b005b6101226101e136600461153e565b610acc565b6101d16101f4366004611397565b610d95565b600054600154610213916001600160a01b03908116911682565b604080516001600160a01b03938416815292909116602083015201610106565b610122610241366004611404565b610dc0565b61026f610254366004611397565b6007602052600090815260409020546001600160a01b031681565b6040516001600160a01b039091168152602001610106565b606089896102a3826004546001600160a01b0391821691161490565b6102c85760405162461bcd60e51b81526004016102bf906115dd565b60405180910390fd5b6102d181610fbd565b6102ed5760405162461bcd60e51b81526004016102bf90611614565b6002546001600160a01b031633146103175760405162461bcd60e51b81526004016102bf9061164b565b60008080610327898b018b611691565b60035460048054604051631cd43d1160e31b81529598509396509194506000936001600160a01b039182169363e6a1e8889361036b939091169130918a91016116dc565b608060405180830381865afa158015610388573d6000803e3d6000fd5b505050506040513d601f19601f820116820180604052508101906103ac91906116ff565b50506001600160a01b038087166000908152600760205260409020549193509081169150841681146104bc576103e28184611049565b6103ec848361113f565b6001600160a01b03858116600090815260076020908152604080832080546001600160a01b0319168986161790559284168252600590522054610433908490600b0b611753565b6001600160a01b0382811660009081526005602052604080822080546001600160601b0319166001600160601b03959095169490941790935590861681522054610481908390600b0b6117a3565b6001600160a01b038516600090815260056020526040902080546001600160601b0319166001600160601b039290921691909117905561054e565b60006104c88385611753565b9050600081600b0b13156104e5576104e0858261113f565b6104ef565b6104ef8582611049565b6001600160a01b038516600090815260056020526040902054610516908290600b0b6117a3565b6001600160a01b038616600090815260056020526040902080546001600160601b0319166001600160601b0392909216919091179055505b6001600160a01b03851660009081526008602090815260409182902080546001600160601b0319166001600160601b0386161790558151601f8c018290048202810182019092528a82528b908b9081908401838280828437600092019190915250929a50505050505050505050509998505050505050505050565b6002546060906001600160a01b031633146105f65760405162461bcd60e51b81526004016102bf9061164b565b8787610610826004546001600160a01b0391821691161490565b61062c5760405162461bcd60e51b81526004016102bf906115dd565b61063581610fbd565b6106515760405162461bcd60e51b81526004016102bf90611614565b600254604051631fb6491d60e11b81526000916001600160a01b031690633f6c923a9061068490899089906004016117f2565b600060405180830381865afa1580156106a1573d6000803e3d6000fd5b505050506040513d6000823e601f3d908101601f191682016040526106c99190810190611922565b905060008160a001518060200190518101906106e59190611a29565b6001600160a01b03811660009081526006602052604090205490915060ff1661074b5760405162461bcd60e51b81526020600482015260186024820152775351463a204e6f7420612076616c6964206368617269747960401b60448201526064016102bf565b600254604051631fb6491d60e11b81526000916001600160a01b031690633f6c923a9061077e908b908b906004016117f2565b600060405180830381865afa15801561079b573d6000803e3d6000fd5b505050506040513d6000823e601f3d908101601f191682016040526107c39190810190611922565b60600151905080826040516020016107f19291906001600160a01b0392831681529116602082015260400190565b60405160208183030381529060405295505050505050979650505050505050565b6002546060906001600160a01b0316331461083f5760405162461bcd60e51b81526004016102bf9061164b565b600061084d85870187611a46565b905080156108955783838080601f0160208091040260200160405190810160405280939291908181526020018383808284376000920191909152509294506109d59350505050565b600254604051631fb6491d60e11b81526000916001600160a01b031690633f6c923a906108c890889088906004016117f2565b600060405180830381865afa1580156108e5573d6000803e3d6000fd5b505050506040513d6000823e601f3d908101601f1916820160405261090d9190810190611922565b606001516001600160a01b038082166000908152600760209081526040808320546008909252909120549293501690600b0b6109498282611049565b6001600160a01b038216600090815260056020526040902054610970908290600b0b611753565b6001600160a01b03928316600090815260056020908152604080832080546001600160601b03959095166001600160601b03199586161790559590941681526008845284812080549092169091556007909252502080546001600160a01b0319169055505b9998505050505050505050565b6002546060906001600160a01b03163314610a0f5760405162461bcd60e51b81526004016102bf9061164b565b6004546001600160a01b038981169116141580610a325750610a3087610fbd565b155b15610a59576040805160016020820152016040516020818303038152906040529050610a77565b60408051600060208201520160405160208183030381529060405290505b979650505050505050565b6001600160a01b03811660009081526006602052604090205460ff1615610aa857600080fd5b6001600160a01b03166000908152600660205260409020805460ff19166001179055565b6002546060906001600160a01b03163314610af95760405162461bcd60e51b81526004016102bf9061164b565b8787610b13826004546001600160a01b0391821691161490565b610b2f5760405162461bcd60e51b81526004016102bf906115dd565b610b3881610fbd565b610b545760405162461bcd60e51b81526004016102bf90611614565b600254604051631fb6491d60e11b81526000916001600160a01b031690633f6c923a90610b8790899089906004016117f2565b600060405180830381865afa158015610ba4573d6000803e3d6000fd5b505050506040513d6000823e601f3d908101601f19168201604052610bcc9190810190611922565b905060008160a00151806020019051810190610be89190611a29565b6001600160a01b03811660009081526006602052604090205490915060ff16610c4e5760405162461bcd60e51b81526020600482015260186024820152775351463a204e6f7420612076616c6964206368617269747960401b60448201526064016102bf565b60048054604051631557a4cd60e31b81526001600160a01b0391821692810192909252602482018c9052600091908d169063aabd266890604401608060405180830381865afa158015610ca5573d6000803e3d6000fd5b505050506040513d601f19601f82011682018060405250810190610cc991906116ff565b5050600254604051631fb6491d60e11b8152919350600092506001600160a01b031690633f6c923a90610d02908c908c906004016117f2565b600060405180830381865afa158015610d1f573d6000803e3d6000fd5b505050506040513d6000823e601f3d908101601f19168201604052610d479190810190611922565b606090810151604080516001600160a01b0392831660208201529590911685820152600b9390930b84820152825180850390910181526080909301909152509b9a5050505050505050505050565b6001600160a01b038116600090815260066020526040902054819060ff16610dbc57600080fd5b5050565b60608989610ddc826004546001600160a01b0391821691161490565b610df85760405162461bcd60e51b81526004016102bf906115dd565b610e0181610fbd565b610e1d5760405162461bcd60e51b81526004016102bf90611614565b6002546001600160a01b03163314610e475760405162461bcd60e51b81526004016102bf9061164b565b600080610e56888a018a611a68565b60035460048054604051631cd43d1160e31b81529496509294506000936001600160a01b039283169363e6a1e88893610e969391169130918991016116dc565b608060405180830381865afa158015610eb3573d6000803e3d6000fd5b505050506040513d601f19601f82011682018060405250810190610ed791906116ff565b5050915050610ee6828261113f565b6001600160a01b038216600090815260056020526040902054610f0d908290600b0b6117a3565b6001600160a01b03838116600081815260056020908152604080832080546001600160601b03199081166001600160601b03988916179091559489168352600882528083208054909516958716959095179093556007835283902080546001600160a01b03191690911790558151601f8a01829004820281018201909252888252899089908190840183828082843760009201919091525092985050505050505050509998505050505050505050565b60007fa9214cc96615e0085d3bb077758db69497dc2dce3b2b1e97bc93c3d18d83efd3826001600160a01b0316637730599e6040518163ffffffff1660e01b8152600401602060405180830381865afa15801561101e573d6000803e3d6000fd5b505050506040513d601f19601f820116820180604052508101906110429190611aa1565b1492915050565b306001600160a01b0383160361105d575050565b60035460048054604051631cd43d1160e31b81526000936001600160a01b039081169363e6a1e888936110979392169130918991016116dc565b608060405180830381865afa1580156110b4573d6000803e3d6000fd5b505050506040513d601f19601f820116820180604052508101906110d891906116ff565b505091505081600b0b81600b0b0361110b5760045461110690600090309086906001600160a01b0316611213565b505050565b81600b0b81600b0b1315611106576004546111069084906001600160a01b03166111358585611753565b60009291906112ed565b6001600160a01b038216611151575050565b60035460048054604051631cd43d1160e31b81526000936001600160a01b039081169363e6a1e8889361118b9392169130918991016116dc565b608060405180830381865afa1580156111a8573d6000803e3d6000fd5b505050506040513d601f19601f820116820180604052508101906111cc91906116ff565b505091505080600b0b6000036111f7576004546111069060009085906001600160a01b031685611353565b6004546111069084906001600160a01b031661113585856117a3565b835460018501546040805160008152602081019091526001600160a01b03928316926339255d5b921690635a5999e360e11b906112599086908990899060448101611aba565b60408051601f198184030181529181526020820180516001600160e01b03166001600160e01b03199485161790525160e085901b909216825261129f9291600401611aee565b6000604051808303816000875af11580156112be573d6000803e3d6000fd5b505050506040513d6000823e601f3d908101601f191682016040526112e69190810190611b35565b5050505050565b835460018501546001600160a01b03918216916339255d5b91166328104d3160e11b85878660005b6040519080825280601f01601f19166020018201604052801561133f576020820181803683370190505b506040516024016112599493929190611b72565b835460018501546001600160a01b03918216916339255d5b911663317e182f60e11b8587866000611315565b6001600160a01b038116811461139457600080fd5b50565b6000602082840312156113a957600080fd5b81356113b48161137f565b9392505050565b60008083601f8401126113cd57600080fd5b50813567ffffffffffffffff8111156113e557600080fd5b6020830191508360208285010111156113fd57600080fd5b9250929050565b600080600080600080600080600060c08a8c03121561142257600080fd5b893561142d8161137f565b985060208a013561143d8161137f565b975060408a0135965060608a013567ffffffffffffffff8082111561146157600080fd5b61146d8d838e016113bb565b909850965060808c013591508082111561148657600080fd5b6114928d838e016113bb565b909650945060a08c01359150808211156114ab57600080fd5b506114b88c828d016113bb565b915080935050809150509295985092959850929598565b60005b838110156114ea5781810151838201526020016114d2565b838111156114f9576000848401525b50505050565b600081518084526115178160208601602086016114cf565b601f01601f19169290920160200192915050565b6020815260006113b460208301846114ff565b600080600080600080600060a0888a03121561155957600080fd5b87356115648161137f565b965060208801356115748161137f565b955060408801359450606088013567ffffffffffffffff8082111561159857600080fd5b6115a48b838c016113bb565b909650945060808a01359150808211156115bd57600080fd5b506115ca8a828b016113bb565b989b979a50959850939692959293505050565b60208082526017908201527f5351463a206e6f7420616363657074656420746f6b656e000000000000000000604082015260600190565b60208082526019908201527f5351463a206f6e6c7920434641763120737570706f7274656400000000000000604082015260600190565b6020808252601a908201527f5351463a20737570706f7274206f6e6c79206f6e6520686f7374000000000000604082015260600190565b80600b0b811461139457600080fd5b6000806000606084860312156116a657600080fd5b83356116b18161137f565b925060208401356116c18161137f565b915060408401356116d181611682565b809150509250925092565b6001600160a01b0393841681529183166020830152909116604082015260600190565b6000806000806080858703121561171557600080fd5b84519350602085015161172781611682565b6040860151606090960151949790965092505050565b634e487b7160e01b600052601160045260246000fd5b600081600b0b83600b0b600081128160016001605f1b03190183128115161561177e5761177e61173d565b8160016001605f1b030183138116156117995761179961173d565b5090039392505050565b600081600b0b83600b0b600082128260016001605f1b03038213811516156117cd576117cd61173d565b8260016001605f1b03190382128116156117e9576117e961173d565b50019392505050565b60208152816020820152818360408301376000818301604090810191909152601f909201601f19160101919050565b634e487b7160e01b600052604160045260246000fd5b604051610160810167ffffffffffffffff8111828210171561185b5761185b611821565b60405290565b805160ff8116811461187257600080fd5b919050565b80516118728161137f565b80516001600160e01b03198116811461187257600080fd5b600082601f8301126118ab57600080fd5b815167ffffffffffffffff808211156118c6576118c6611821565b604051601f8301601f19908116603f011681019082821181831017156118ee576118ee611821565b8160405283815286602085880101111561190757600080fd5b6119188460208301602089016114cf565b9695505050505050565b60006020828403121561193457600080fd5b815167ffffffffffffffff8082111561194c57600080fd5b90830190610160828603121561196157600080fd5b611969611837565b61197283611861565b815261198060208401611861565b60208201526040830151604082015261199b60608401611877565b60608201526119ac60808401611882565b608082015260a0830151828111156119c357600080fd5b6119cf8782860161189a565b60a08301525060c083015160c082015260e083015160e0820152610100915081830151828201526101209150611a06828401611877565b828201526101409150611a1a828401611877565b91810191909152949350505050565b600060208284031215611a3b57600080fd5b81516113b48161137f565b600060208284031215611a5857600080fd5b813580151581146113b457600080fd5b60008060408385031215611a7b57600080fd5b8235611a868161137f565b91506020830135611a968161137f565b809150509250929050565b600060208284031215611ab357600080fd5b5051919050565b6001600160a01b038581168252848116602083015283166040820152608060608201819052600090611918908301846114ff565b6001600160a01b0383168152606060208201819052600090611b12908301846114ff565b8281036040938401526002815261060f60f31b6020820152919091019392505050565b600060208284031215611b4757600080fd5b815167ffffffffffffffff811115611b5e57600080fd5b611b6a8482850161189a565b949350505050565b6001600160a01b03858116825284166020820152600b83900b6040820152608060608201819052600090611918908301846114ff56fea2646970667358221220b929192e422b004115f4bf6df13ee97b86723a7841b548a37e54ff1ca1270ab964736f6c634300080d0033",
  "linkReferences": {},
  "deployedLinkReferences": {}
}