{
  "_format": "hh-sol-artifact-1",
  "contractName": "SuperQuadraticFunding",
  "sourceName": "contracts/SuperQuadraticFunding.sol",
  "abi": [
    {
      "inputs": [
        {
          "internalType": "contract ISuperfluid",
          "name": "host",
          "type": "address"
        },
        {
          "internalType": "contract ISuperToken",
          "name": "acceptedToken",
          "type": "address"
        }
      ],
      "stateMutability": "nonpayable",
      "type": "constructor"
    },
    {
      "anonymous": false,
      "inputs": [
        {
          "indexed": false,
          "internalType": "address",
          "name": "_from",
          "type": "address"
        },
        {
          "indexed": false,
          "internalType": "int96",
          "name": "_flowrate1",
          "type": "int96"
        },
        {
          "indexed": false,
          "internalType": "int96",
          "name": "_flowrate2",
          "type": "int96"
        }
      ],
      "name": "Flow",
      "type": "event"
    },
    {
      "anonymous": false,
      "inputs": [
        {
          "indexed": true,
          "internalType": "address",
          "name": "previousOwner",
          "type": "address"
        },
        {
          "indexed": true,
          "internalType": "address",
          "name": "newOwner",
          "type": "address"
        }
      ],
      "name": "OwnershipTransferred",
      "type": "event"
    },
    {
      "inputs": [
        {
          "internalType": "address",
          "name": "charity",
          "type": "address"
        }
      ],
      "name": "addCharity",
      "outputs": [],
      "stateMutability": "nonpayable",
      "type": "function"
    },
    {
      "inputs": [
        {
          "internalType": "contract ISuperToken",
          "name": "_superToken",
          "type": "address"
        },
        {
          "internalType": "address",
          "name": "_agreementClass",
          "type": "address"
        },
        {
          "internalType": "bytes32",
          "name": "",
          "type": "bytes32"
        },
        {
          "internalType": "bytes",
          "name": "",
          "type": "bytes"
        },
        {
          "internalType": "bytes",
          "name": "_cbdata",
          "type": "bytes"
        },
        {
          "internalType": "bytes",
          "name": "_ctx",
          "type": "bytes"
        }
      ],
      "name": "afterAgreementCreated",
      "outputs": [
        {
          "internalType": "bytes",
          "name": "newCtx",
          "type": "bytes"
        }
      ],
      "stateMutability": "nonpayable",
      "type": "function"
    },
    {
      "inputs": [
        {
          "internalType": "contract ISuperToken",
          "name": "",
          "type": "address"
        },
        {
          "internalType": "address",
          "name": "",
          "type": "address"
        },
        {
          "internalType": "bytes32",
          "name": "",
          "type": "bytes32"
        },
        {
          "internalType": "bytes",
          "name": "",
          "type": "bytes"
        },
        {
          "internalType": "bytes",
          "name": "_cbdata",
          "type": "bytes"
        },
        {
          "internalType": "bytes",
          "name": "_ctx",
          "type": "bytes"
        }
      ],
      "name": "afterAgreementTerminated",
      "outputs": [
        {
          "internalType": "bytes",
          "name": "newCtx",
          "type": "bytes"
        }
      ],
      "stateMutability": "nonpayable",
      "type": "function"
    },
    {
      "inputs": [
        {
          "internalType": "contract ISuperToken",
          "name": "_superToken",
          "type": "address"
        },
        {
          "internalType": "address",
          "name": "_agreementClass",
          "type": "address"
        },
        {
          "internalType": "bytes32",
          "name": "",
          "type": "bytes32"
        },
        {
          "internalType": "bytes",
          "name": "",
          "type": "bytes"
        },
        {
          "internalType": "bytes",
          "name": "_cbdata",
          "type": "bytes"
        },
        {
          "internalType": "bytes",
          "name": "_ctx",
          "type": "bytes"
        }
      ],
      "name": "afterAgreementUpdated",
      "outputs": [
        {
          "internalType": "bytes",
          "name": "newCtx",
          "type": "bytes"
        }
      ],
      "stateMutability": "nonpayable",
      "type": "function"
    },
    {
      "inputs": [
        {
          "internalType": "contract ISuperToken",
          "name": "_superToken",
          "type": "address"
        },
        {
          "internalType": "address",
          "name": "_agreementClass",
          "type": "address"
        },
        {
          "internalType": "bytes32",
          "name": "",
          "type": "bytes32"
        },
        {
          "internalType": "bytes",
          "name": "",
          "type": "bytes"
        },
        {
          "internalType": "bytes",
          "name": "_ctx",
          "type": "bytes"
        }
      ],
      "name": "beforeAgreementCreated",
      "outputs": [
        {
          "internalType": "bytes",
          "name": "cbdata",
          "type": "bytes"
        }
      ],
      "stateMutability": "view",
      "type": "function"
    },
    {
      "inputs": [
        {
          "internalType": "contract ISuperToken",
          "name": "_superToken",
          "type": "address"
        },
        {
          "internalType": "address",
          "name": "_agreementClass",
          "type": "address"
        },
        {
          "internalType": "bytes32",
          "name": "",
          "type": "bytes32"
        },
        {
          "internalType": "bytes",
          "name": "",
          "type": "bytes"
        },
        {
          "internalType": "bytes",
          "name": "",
          "type": "bytes"
        }
      ],
      "name": "beforeAgreementTerminated",
      "outputs": [
        {
          "internalType": "bytes",
          "name": "cbdata",
          "type": "bytes"
        }
      ],
      "stateMutability": "view",
      "type": "function"
    },
    {
      "inputs": [
        {
          "internalType": "contract ISuperToken",
          "name": "_superToken",
          "type": "address"
        },
        {
          "internalType": "address",
          "name": "_agreementClass",
          "type": "address"
        },
        {
          "internalType": "bytes32",
          "name": "_agreementId",
          "type": "bytes32"
        },
        {
          "internalType": "bytes",
          "name": "",
          "type": "bytes"
        },
        {
          "internalType": "bytes",
          "name": "_ctx",
          "type": "bytes"
        }
      ],
      "name": "beforeAgreementUpdated",
      "outputs": [
        {
          "internalType": "bytes",
          "name": "cbdata",
          "type": "bytes"
        }
      ],
      "stateMutability": "view",
      "type": "function"
    },
    {
      "inputs": [],
      "name": "cfaV1",
      "outputs": [
        {
          "internalType": "contract ISuperfluid",
          "name": "host",
          "type": "address"
        },
        {
          "internalType": "contract IConstantFlowAgreementV1",
          "name": "cfa",
          "type": "address"
        }
      ],
      "stateMutability": "view",
      "type": "function"
    },
    {
      "inputs": [
        {
          "internalType": "address",
          "name": "",
          "type": "address"
        }
      ],
      "name": "charities",
      "outputs": [
        {
          "internalType": "bool",
          "name": "",
          "type": "bool"
        }
      ],
      "stateMutability": "view",
      "type": "function"
    },
    {
      "inputs": [
        {
          "internalType": "address",
          "name": "",
          "type": "address"
        }
      ],
      "name": "charityToFlowRate",
      "outputs": [
        {
          "internalType": "int96",
          "name": "",
          "type": "int96"
        }
      ],
      "stateMutability": "view",
      "type": "function"
    },
    {
      "inputs": [],
      "name": "owner",
      "outputs": [
        {
          "internalType": "address",
          "name": "",
          "type": "address"
        }
      ],
      "stateMutability": "view",
      "type": "function"
    },
    {
      "inputs": [
        {
          "internalType": "address",
          "name": "charity",
          "type": "address"
        }
      ],
      "name": "removeCharity",
      "outputs": [],
      "stateMutability": "nonpayable",
      "type": "function"
    },
    {
      "inputs": [],
      "name": "renounceOwnership",
      "outputs": [],
      "stateMutability": "nonpayable",
      "type": "function"
    },
    {
      "inputs": [
        {
          "internalType": "address",
          "name": "newOwner",
          "type": "address"
        }
      ],
      "name": "transferOwnership",
      "outputs": [],
      "stateMutability": "nonpayable",
      "type": "function"
    },
    {
      "inputs": [
        {
          "internalType": "address",
          "name": "",
          "type": "address"
        }
      ],
      "name": "userToCharity",
      "outputs": [
        {
          "internalType": "address",
          "name": "",
          "type": "address"
        }
      ],
      "stateMutability": "view",
      "type": "function"
    },
    {
      "inputs": [
        {
          "internalType": "address",
          "name": "",
          "type": "address"
        }
      ],
      "name": "userToFlowRate",
      "outputs": [
        {
          "internalType": "int96",
          "name": "",
          "type": "int96"
        }
      ],
      "stateMutability": "view",
      "type": "function"
    }
  ],
  "bytecode": "0x60806040523480156200001157600080fd5b506040516200253138038062002531833981016040819052620000349162000312565b6200003f33620001d7565b6001600160a01b03821662000058576200005862000351565b6001600160a01b03811662000071576200007162000351565b600380546001600160a01b0319166001600160a01b038416908117909155604051635b69006f60e11b81527fa9214cc96615e0085d3bb077758db69497dc2dce3b2b1e97bc93c3d18d83efd3600482015263b6d200de90602401602060405180830381865afa158015620000e9573d6000803e3d6000fd5b505050506040513d601f19601f820116820180604052508101906200010f919062000367565b600480546001600160a01b03199081166001600160a01b0393841690811783556005805483168686161790556040805180820182526003549095168086526020909501829052600180548416861781556002805490941690921790925590516315a722b960e31b8152918201819052919063ad3915c890602401600060405180830381600087803b158015620001a457600080fd5b505af1158015620001b9573d6000803e3d6000fd5b50505050620001ce336200022760201b60201c565b5050506200038e565b600080546001600160a01b038381166001600160a01b0319831681178455604051919092169283917f8be0079c531659141344cd1fd0a4f28419497f9722a3daafe3b4186f6b6457e09190a35050565b6000546001600160a01b03163314620002875760405162461bcd60e51b815260206004820181905260248201527f4f776e61626c653a2063616c6c6572206973206e6f7420746865206f776e657260448201526064015b60405180910390fd5b6001600160a01b038116620002ee5760405162461bcd60e51b815260206004820152602660248201527f4f776e61626c653a206e6577206f776e657220697320746865207a65726f206160448201526564647265737360d01b60648201526084016200027e565b620002f981620001d7565b50565b6001600160a01b0381168114620002f957600080fd5b600080604083850312156200032657600080fd5b82516200033381620002fc565b60208401519092506200034681620002fc565b809150509250929050565b634e487b7160e01b600052600160045260246000fd5b6000602082840312156200037a57600080fd5b81516200038781620002fc565b9392505050565b612193806200039e6000396000f3fe608060405234801561001057600080fd5b50600436106101005760003560e01c806378b14f0a11610097578063d3112b2e11610066578063d3112b2e14610257578063d86ed3e514610291578063eada8c8b146102a4578063f2fde38b146102cd57600080fd5b806378b14f0a146101f9578063884d1f401461020c5780638da5cb5b1461021f578063abefe5911461024457600080fd5b806332441809116100d357806332441809146101a657806353c11f99146101c95780635f9e7d77146101dc578063715018a6146101ef57600080fd5b80630f89f97114610105578063230dbd29146101405780632478239a1461016057806330d9c91514610193575b600080fd5b6101286101133660046117c0565b600660205260009081526040902054600b0b81565b604051600b9190910b81526020015b60405180910390f35b61015361014e366004611826565b6102e0565b604051610137919061194d565b61018361016e3660046117c0565b60076020526000908152604090205460ff1681565b6040519015158152602001610137565b6101536101a1366004611960565b6106ac565b6101286101b43660046117c0565b600960205260009081526040902054600b0b81565b6101536101d7366004611826565b6108f5565b6101536101ea366004611960565b610b00565b6101f7610ba0565b005b6101f76102073660046117c0565b610bd6565b61015361021a366004611960565b610c4a565b6000546001600160a01b03165b6040516001600160a01b039091168152602001610137565b6101f76102523660046117c0565b610f0f565b600154600254610271916001600160a01b03908116911682565b604080516001600160a01b03938416815292909116602083015201610137565b61015361029f366004611826565b610f9e565b61022c6102b23660046117c0565b6008602052600090815260409020546001600160a01b031681565b6101f76102db3660046117c0565b6111f5565b606089896102fc826005546001600160a01b0391821691161490565b6103215760405162461bcd60e51b8152600401610318906119ff565b60405180910390fd5b61032a81611290565b6103465760405162461bcd60e51b815260040161031890611a36565b6003546001600160a01b031633146103705760405162461bcd60e51b815260040161031890611a6d565b60008080610380898b018b611ab3565b60048054600554604051631cd43d1160e31b81529598509396509194506000936001600160a01b039283169363e6a1e888936103c3939116918991309101611afe565b608060405180830381865afa1580156103e0573d6000803e3d6000fd5b505050506040513d601f19601f820116820180604052508101906104049190611b21565b50506001600160a01b038087166000908152600860205260409020549193509081169150841681146105515761047181848c8c8080601f01602080910402602001604051908101604052809392919081815260200183838082843760009201919091525061131c92505050565b975061047e84838a611428565b6001600160a01b03868116600090815260086020908152604080832080546001600160a01b0319168a861617905592851682526006905220549098506104c8908490600b0b611b75565b6001600160a01b0382811660009081526006602052604080822080546001600160601b0319166001600160601b03959095169490941790935590861681522054610516908390600b0b611bc5565b6001600160a01b038516600090815260066020526040902080546001600160601b0319166001600160601b0392909216919091179055610661565b600061055d8484611b75565b9050600081600b0b13156105b3576105ac85828d8d8080601f01602080910402602001604051908101604052809392919081815260200183838082843760009201919091525061142892505050565b9850610602565b6105ff856105c383600019611c14565b8d8d8080601f01602080910402602001604051908101604052809392919081815260200183838082843760009201919091525061131c92505050565b98505b6001600160a01b038516600090815260066020526040902054610629908290600b0b611bc5565b6001600160a01b038616600090815260066020526040902080546001600160601b0319166001600160601b0392909216919091179055505b506001600160a01b03909316600090815260096020526040902080546001600160601b039094166001600160601b031990941693909317909255505050509998505050505050505050565b6003546060906001600160a01b031633146106d95760405162461bcd60e51b815260040161031890611a6d565b87876106f3826005546001600160a01b0391821691161490565b61070f5760405162461bcd60e51b8152600401610318906119ff565b61071881611290565b6107345760405162461bcd60e51b815260040161031890611a36565b600354604051631fb6491d60e11b81526000916001600160a01b031690633f6c923a906107679089908990600401611cae565b600060405180830381865afa158015610784573d6000803e3d6000fd5b505050506040513d6000823e601f3d908101601f191682016040526107ac9190810190611dde565b905060008160a001518060200190518101906107c89190611ee5565b6001600160a01b03811660009081526007602052604090205490915060ff1661082e5760405162461bcd60e51b81526020600482015260186024820152775351463a204e6f7420612076616c6964206368617269747960401b6044820152606401610318565b600354604051631fb6491d60e11b81526000916001600160a01b031690633f6c923a90610861908b908b90600401611cae565b600060405180830381865afa15801561087e573d6000803e3d6000fd5b505050506040513d6000823e601f3d908101601f191682016040526108a69190810190611dde565b60600151905080826040516020016108d49291906001600160a01b0392831681529116602082015260400190565b60405160208183030381529060405295505050505050979650505050505050565b6003546060906001600160a01b031633146109225760405162461bcd60e51b815260040161031890611a6d565b600061093085870187611f02565b905080156109785783838080601f016020809104026020016040519081016040528093929190818152602001838380828437600092019190915250929450610af39350505050565b600354604051631fb6491d60e11b81526000916001600160a01b031690633f6c923a906109ab9088908890600401611cae565b600060405180830381865afa1580156109c8573d6000803e3d6000fd5b505050506040513d6000823e601f3d908101601f191682016040526109f09190810190611dde565b606001516001600160a01b038082166000908152600860209081526040808320546009835292819020548151601f8b018490048402810184019092528982529495509190921692600b0b91610a649184918491908b908b908190840183828082843760009201919091525061131c92505050565b6001600160a01b038316600090815260066020526040902054909550610a8e908290600b0b611b75565b6001600160a01b03928316600090815260066020908152604080832080546001600160601b03959095166001600160601b03199586161790559590941681526009845284812080549092169091556008909252502080546001600160a01b0319169055505b9998505050505050505050565b6003546060906001600160a01b03163314610b2d5760405162461bcd60e51b815260040161031890611a6d565b6005546001600160a01b038981169116141580610b505750610b4e87611290565b155b15610b77576040805160016020820152016040516020818303038152906040529050610b95565b60408051600060208201520160405160208183030381529060405290505b979650505050505050565b6000546001600160a01b03163314610bca5760405162461bcd60e51b815260040161031890611f24565b610bd46000611505565b565b6000546001600160a01b03163314610c005760405162461bcd60e51b815260040161031890611f24565b6001600160a01b03811660009081526007602052604090205460ff1615610c2657600080fd5b6001600160a01b03166000908152600760205260409020805460ff19166001179055565b6003546060906001600160a01b03163314610c775760405162461bcd60e51b815260040161031890611a6d565b8787610c91826005546001600160a01b0391821691161490565b610cad5760405162461bcd60e51b8152600401610318906119ff565b610cb681611290565b610cd25760405162461bcd60e51b815260040161031890611a36565b600354604051631fb6491d60e11b81526000916001600160a01b031690633f6c923a90610d059089908990600401611cae565b600060405180830381865afa158015610d22573d6000803e3d6000fd5b505050506040513d6000823e601f3d908101601f19168201604052610d4a9190810190611dde565b905060008160a00151806020019051810190610d669190611ee5565b6001600160a01b03811660009081526007602052604090205490915060ff16610dcc5760405162461bcd60e51b81526020600482015260186024820152775351463a204e6f7420612076616c6964206368617269747960401b6044820152606401610318565b600554604051631557a4cd60e31b81526001600160a01b039182166004820152602481018c90526000918d169063aabd266890604401608060405180830381865afa158015610e1f573d6000803e3d6000fd5b505050506040513d601f19601f82011682018060405250810190610e439190611b21565b5050600354604051631fb6491d60e11b8152919350600092506001600160a01b031690633f6c923a90610e7c908c908c90600401611cae565b600060405180830381865afa158015610e99573d6000803e3d6000fd5b505050506040513d6000823e601f3d908101601f19168201604052610ec19190810190611dde565b606090810151604080516001600160a01b0392831660208201529590911685820152600b9390930b84820152825180850390910181526080909301909152509b9a5050505050505050505050565b6001600160a01b038116600090815260076020526040902054819060ff16610f3657600080fd5b6000546001600160a01b03163314610f605760405162461bcd60e51b815260040161031890611f24565b600554610f7c90600190309085906001600160a01b0316611555565b506001600160a01b03166000908152600760205260409020805460ff19169055565b60608989610fba826005546001600160a01b0391821691161490565b610fd65760405162461bcd60e51b8152600401610318906119ff565b610fdf81611290565b610ffb5760405162461bcd60e51b815260040161031890611a36565b6003546001600160a01b031633146110255760405162461bcd60e51b815260040161031890611a6d565b600080611034888a018a611f59565b60048054600554604051631cd43d1160e31b81529496509294506000936001600160a01b039182169363e6a1e8889361107593909116918891309101611afe565b608060405180830381865afa158015611092573d6000803e3d6000fd5b505050506040513d601f19601f820116820180604052508101906110b69190611b21565b5050915050600081600b0b1361110e5760405162461bcd60e51b815260206004820152601c60248201527f535146203a2053747265616d20776173206e6f742063726561746564000000006044820152606401610318565b61114f82828a8a8080601f01602080910402602001604051908101604052809392919081815260200183838082843760009201919091525061142892505050565b6001600160a01b038316600090815260066020526040902054909650611179908290600b0b611bc5565b6001600160a01b03928316600081815260066020908152604080832080546001600160601b03199081166001600160601b03978816179091559790961682526009815285822080549097169490931693909317909455600890522080546001600160a01b031916909117905550909a9950505050505050505050565b6000546001600160a01b0316331461121f5760405162461bcd60e51b815260040161031890611f24565b6001600160a01b0381166112845760405162461bcd60e51b815260206004820152602660248201527f4f776e61626c653a206e6577206f776e657220697320746865207a65726f206160448201526564647265737360d01b6064820152608401610318565b61128d81611505565b50565b60007fa9214cc96615e0085d3bb077758db69497dc2dce3b2b1e97bc93c3d18d83efd3826001600160a01b0316637730599e6040518163ffffffff1660e01b8152600401602060405180830381865afa1580156112f1573d6000803e3d6000fd5b505050506040513d601f19601f820116820180604052508101906113159190611f92565b1492915050565b6060306001600160a01b03851603611335575080611421565b60048054600554604051631cd43d1160e31b81526000936001600160a01b039384169363e6a1e8889361136f9391169130918b9101611afe565b608060405180830381865afa15801561138c573d6000803e3d6000fd5b505050506040513d601f19601f820116820180604052508101906113b09190611b21565b505091505083600b0b81600b0b036113e8576005546113e0906001908590309089906001600160a01b031661162f565b915050611421565b83600b0b81600b0b131561141f576005546113e090849087906001600160a01b03166114148886611b75565b600193929190611713565b505b9392505050565b60606001600160a01b03841661143f575080611421565b60048054600554604051631cd43d1160e31b81526000936001600160a01b039384169363e6a1e888936114799391169130918b9101611afe565b608060405180830381865afa158015611496573d6000803e3d6000fd5b505050506040513d601f19601f820116820180604052508101906114ba9190611b21565b505091505080600b0b6000036114e7576005546113e090600190859088906001600160a01b03168861177c565b6005546113e090849087906001600160a01b03166114148886611bc5565b600080546001600160a01b038381166001600160a01b0319831681178455604051919092169283917f8be0079c531659141344cd1fd0a4f28419497f9722a3daafe3b4186f6b6457e09190a35050565b835460018501546040805160008152602081019091526001600160a01b03928316926339255d5b921690635a5999e360e11b9061159b9086908990899060448101611fab565b60408051601f198184030181529181526020820180516001600160e01b03166001600160e01b03199485161790525160e085901b90921682526115e19291600401611fdf565b6000604051808303816000875af1158015611600573d6000803e3d6000fd5b505050506040513d6000823e601f3d908101601f19168201604052611628919081019061202d565b5050505050565b845460018601546040805160008152602081019091526060926001600160a01b0390811692634329d29392911690635a5999e360e11b906116799087908a908a9060448101611fab565b60408051601f198184030181529181526020820180516001600160e01b03166001600160e01b03199485161790525160e085901b90921682526116c192918a9060040161206a565b6000604051808303816000875af11580156116e0573d6000803e3d6000fd5b505050506040513d6000823e601f3d908101601f1916820160405261170891908101906120c3565b509695505050505050565b845460018601546060916001600160a01b0390811691634329d29391166328104d3160e11b86888760005b6040519080825280601f01601f191660200182016040528015611768576020820181803683370190505b506040516024016116799493929190612127565b845460018601546060916001600160a01b0390811691634329d293911663317e182f60e11b868887600061173e565b6001600160a01b038116811461128d57600080fd5b6000602082840312156117d257600080fd5b8135611421816117ab565b60008083601f8401126117ef57600080fd5b50813567ffffffffffffffff81111561180757600080fd5b60208301915083602082850101111561181f57600080fd5b9250929050565b600080600080600080600080600060c08a8c03121561184457600080fd5b893561184f816117ab565b985060208a013561185f816117ab565b975060408a0135965060608a013567ffffffffffffffff8082111561188357600080fd5b61188f8d838e016117dd565b909850965060808c01359150808211156118a857600080fd5b6118b48d838e016117dd565b909650945060a08c01359150808211156118cd57600080fd5b506118da8c828d016117dd565b915080935050809150509295985092959850929598565b60005b8381101561190c5781810151838201526020016118f4565b8381111561191b576000848401525b50505050565b600081518084526119398160208601602086016118f1565b601f01601f19169290920160200192915050565b6020815260006114216020830184611921565b600080600080600080600060a0888a03121561197b57600080fd5b8735611986816117ab565b96506020880135611996816117ab565b955060408801359450606088013567ffffffffffffffff808211156119ba57600080fd5b6119c68b838c016117dd565b909650945060808a01359150808211156119df57600080fd5b506119ec8a828b016117dd565b989b979a50959850939692959293505050565b60208082526017908201527f5351463a206e6f7420616363657074656420746f6b656e000000000000000000604082015260600190565b60208082526019908201527f5351463a206f6e6c7920434641763120737570706f7274656400000000000000604082015260600190565b6020808252601a908201527f5351463a20737570706f7274206f6e6c79206f6e6520686f7374000000000000604082015260600190565b80600b0b811461128d57600080fd5b600080600060608486031215611ac857600080fd5b8335611ad3816117ab565b92506020840135611ae3816117ab565b91506040840135611af381611aa4565b809150509250925092565b6001600160a01b0393841681529183166020830152909116604082015260600190565b60008060008060808587031215611b3757600080fd5b845193506020850151611b4981611aa4565b6040860151606090960151949790965092505050565b634e487b7160e01b600052601160045260246000fd5b600081600b0b83600b0b600081128160016001605f1b031901831281151615611ba057611ba0611b5f565b8160016001605f1b03018313811615611bbb57611bbb611b5f565b5090039392505050565b600081600b0b83600b0b600082128260016001605f1b0303821381151615611bef57611bef611b5f565b8260016001605f1b0319038212811615611c0b57611c0b611b5f565b50019392505050565b600081600b0b83600b0b60016001605f1b03600082136000841383830485118282161615611c4457611c44611b5f565b6b7fffffffffffffffffffffff196000851282811687830587121615611c6c57611c6c611b5f565b60008712925085820587128484161615611c8857611c88611b5f565b85850587128184161615611c9e57611c9e611b5f565b5050509290910295945050505050565b60208152816020820152818360408301376000818301604090810191909152601f909201601f19160101919050565b634e487b7160e01b600052604160045260246000fd5b604051610160810167ffffffffffffffff81118282101715611d1757611d17611cdd565b60405290565b805160ff81168114611d2e57600080fd5b919050565b8051611d2e816117ab565b80516001600160e01b031981168114611d2e57600080fd5b600082601f830112611d6757600080fd5b815167ffffffffffffffff80821115611d8257611d82611cdd565b604051601f8301601f19908116603f01168101908282118183101715611daa57611daa611cdd565b81604052838152866020858801011115611dc357600080fd5b611dd48460208301602089016118f1565b9695505050505050565b600060208284031215611df057600080fd5b815167ffffffffffffffff80821115611e0857600080fd5b908301906101608286031215611e1d57600080fd5b611e25611cf3565b611e2e83611d1d565b8152611e3c60208401611d1d565b602082015260408301516040820152611e5760608401611d33565b6060820152611e6860808401611d3e565b608082015260a083015182811115611e7f57600080fd5b611e8b87828601611d56565b60a08301525060c083015160c082015260e083015160e0820152610100915081830151828201526101209150611ec2828401611d33565b828201526101409150611ed6828401611d33565b91810191909152949350505050565b600060208284031215611ef757600080fd5b8151611421816117ab565b600060208284031215611f1457600080fd5b8135801515811461142157600080fd5b6020808252818101527f4f776e61626c653a2063616c6c6572206973206e6f7420746865206f776e6572604082015260600190565b60008060408385031215611f6c57600080fd5b8235611f77816117ab565b91506020830135611f87816117ab565b809150509250929050565b600060208284031215611fa457600080fd5b5051919050565b6001600160a01b038581168252848116602083015283166040820152608060608201819052600090611dd490830184611921565b6001600160a01b038316815260606020820181905260009061200390830184611921565b8281036040840152612024816002815261060f60f31b602082015260400190565b95945050505050565b60006020828403121561203f57600080fd5b815167ffffffffffffffff81111561205657600080fd5b61206284828501611d56565b949350505050565b6001600160a01b038416815260806020820181905260009061208e90830185611921565b82810360408401526120af816002815261060f60f31b602082015260400190565b90508281036060840152611dd48185611921565b600080604083850312156120d657600080fd5b825167ffffffffffffffff808211156120ee57600080fd5b6120fa86838701611d56565b9350602085015191508082111561211057600080fd5b5061211d85828601611d56565b9150509250929050565b6001600160a01b03858116825284166020820152600b83900b6040820152608060608201819052600090611dd49083018461192156fea2646970667358221220b1116e34b49ce015f0a1ace6a05bf75f726095d4c350ec78859cb833efe980b264736f6c634300080d0033",
  "linkReferences": {},
  "deployedLinkReferences": {}
}