{
  "_format": "hh-sol-artifact-1",
  "contractName": "SuperQuadraticFunding",
  "sourceName": "contracts/SuperQuadraticFunding.sol",
  "abi": [
    {
      "inputs": [
        {
          "internalType": "contract ISuperfluid",
          "name": "host",
          "type": "address"
        },
        {
          "internalType": "contract ISuperToken",
          "name": "acceptedToken",
          "type": "address"
        }
      ],
      "stateMutability": "nonpayable",
      "type": "constructor"
    },
    {
      "anonymous": false,
      "inputs": [
        {
          "indexed": false,
          "internalType": "address",
          "name": "_from",
          "type": "address"
        },
        {
          "indexed": false,
          "internalType": "int96",
          "name": "_flowrate1",
          "type": "int96"
        },
        {
          "indexed": false,
          "internalType": "int96",
          "name": "_flowrate2",
          "type": "int96"
        }
      ],
      "name": "Flow",
      "type": "event"
    },
    {
      "anonymous": false,
      "inputs": [
        {
          "indexed": true,
          "internalType": "address",
          "name": "previousOwner",
          "type": "address"
        },
        {
          "indexed": true,
          "internalType": "address",
          "name": "newOwner",
          "type": "address"
        }
      ],
      "name": "OwnershipTransferred",
      "type": "event"
    },
    {
      "inputs": [
        {
          "internalType": "address",
          "name": "charity",
          "type": "address"
        }
      ],
      "name": "addCharity",
      "outputs": [],
      "stateMutability": "nonpayable",
      "type": "function"
    },
    {
      "inputs": [
        {
          "internalType": "contract ISuperToken",
          "name": "_superToken",
          "type": "address"
        },
        {
          "internalType": "address",
          "name": "_agreementClass",
          "type": "address"
        },
        {
          "internalType": "bytes32",
          "name": "",
          "type": "bytes32"
        },
        {
          "internalType": "bytes",
          "name": "",
          "type": "bytes"
        },
        {
          "internalType": "bytes",
          "name": "_cbdata",
          "type": "bytes"
        },
        {
          "internalType": "bytes",
          "name": "_ctx",
          "type": "bytes"
        }
      ],
      "name": "afterAgreementCreated",
      "outputs": [
        {
          "internalType": "bytes",
          "name": "newCtx",
          "type": "bytes"
        }
      ],
      "stateMutability": "nonpayable",
      "type": "function"
    },
    {
      "inputs": [
        {
          "internalType": "contract ISuperToken",
          "name": "",
          "type": "address"
        },
        {
          "internalType": "address",
          "name": "",
          "type": "address"
        },
        {
          "internalType": "bytes32",
          "name": "",
          "type": "bytes32"
        },
        {
          "internalType": "bytes",
          "name": "",
          "type": "bytes"
        },
        {
          "internalType": "bytes",
          "name": "_cbdata",
          "type": "bytes"
        },
        {
          "internalType": "bytes",
          "name": "_ctx",
          "type": "bytes"
        }
      ],
      "name": "afterAgreementTerminated",
      "outputs": [
        {
          "internalType": "bytes",
          "name": "newCtx",
          "type": "bytes"
        }
      ],
      "stateMutability": "nonpayable",
      "type": "function"
    },
    {
      "inputs": [
        {
          "internalType": "contract ISuperToken",
          "name": "_superToken",
          "type": "address"
        },
        {
          "internalType": "address",
          "name": "_agreementClass",
          "type": "address"
        },
        {
          "internalType": "bytes32",
          "name": "",
          "type": "bytes32"
        },
        {
          "internalType": "bytes",
          "name": "",
          "type": "bytes"
        },
        {
          "internalType": "bytes",
          "name": "_cbdata",
          "type": "bytes"
        },
        {
          "internalType": "bytes",
          "name": "_ctx",
          "type": "bytes"
        }
      ],
      "name": "afterAgreementUpdated",
      "outputs": [
        {
          "internalType": "bytes",
          "name": "newCtx",
          "type": "bytes"
        }
      ],
      "stateMutability": "nonpayable",
      "type": "function"
    },
    {
      "inputs": [
        {
          "internalType": "contract ISuperToken",
          "name": "",
          "type": "address"
        },
        {
          "internalType": "address",
          "name": "",
          "type": "address"
        },
        {
          "internalType": "bytes32",
          "name": "",
          "type": "bytes32"
        },
        {
          "internalType": "bytes",
          "name": "",
          "type": "bytes"
        },
        {
          "internalType": "bytes",
          "name": "",
          "type": "bytes"
        }
      ],
      "name": "beforeAgreementCreated",
      "outputs": [
        {
          "internalType": "bytes",
          "name": "",
          "type": "bytes"
        }
      ],
      "stateMutability": "view",
      "type": "function"
    },
    {
      "inputs": [
        {
          "internalType": "contract ISuperToken",
          "name": "_superToken",
          "type": "address"
        },
        {
          "internalType": "address",
          "name": "_agreementClass",
          "type": "address"
        },
        {
          "internalType": "bytes32",
          "name": "",
          "type": "bytes32"
        },
        {
          "internalType": "bytes",
          "name": "",
          "type": "bytes"
        },
        {
          "internalType": "bytes",
          "name": "",
          "type": "bytes"
        }
      ],
      "name": "beforeAgreementTerminated",
      "outputs": [
        {
          "internalType": "bytes",
          "name": "cbdata",
          "type": "bytes"
        }
      ],
      "stateMutability": "view",
      "type": "function"
    },
    {
      "inputs": [
        {
          "internalType": "contract ISuperToken",
          "name": "_superToken",
          "type": "address"
        },
        {
          "internalType": "address",
          "name": "_agreementClass",
          "type": "address"
        },
        {
          "internalType": "bytes32",
          "name": "_agreementId",
          "type": "bytes32"
        },
        {
          "internalType": "bytes",
          "name": "",
          "type": "bytes"
        },
        {
          "internalType": "bytes",
          "name": "_ctx",
          "type": "bytes"
        }
      ],
      "name": "beforeAgreementUpdated",
      "outputs": [
        {
          "internalType": "bytes",
          "name": "cbdata",
          "type": "bytes"
        }
      ],
      "stateMutability": "view",
      "type": "function"
    },
    {
      "inputs": [],
      "name": "cfaV1",
      "outputs": [
        {
          "internalType": "contract ISuperfluid",
          "name": "host",
          "type": "address"
        },
        {
          "internalType": "contract IConstantFlowAgreementV1",
          "name": "cfa",
          "type": "address"
        }
      ],
      "stateMutability": "view",
      "type": "function"
    },
    {
      "inputs": [
        {
          "internalType": "address",
          "name": "",
          "type": "address"
        }
      ],
      "name": "charityToFlowRate",
      "outputs": [
        {
          "internalType": "int96",
          "name": "",
          "type": "int96"
        }
      ],
      "stateMutability": "view",
      "type": "function"
    },
    {
      "inputs": [
        {
          "internalType": "address",
          "name": "",
          "type": "address"
        }
      ],
      "name": "charityToRootVotes",
      "outputs": [
        {
          "internalType": "uint128",
          "name": "",
          "type": "uint128"
        }
      ],
      "stateMutability": "view",
      "type": "function"
    },
    {
      "inputs": [],
      "name": "createIndex",
      "outputs": [],
      "stateMutability": "nonpayable",
      "type": "function"
    },
    {
      "inputs": [],
      "name": "distribute",
      "outputs": [],
      "stateMutability": "nonpayable",
      "type": "function"
    },
    {
      "inputs": [],
      "name": "idaV1",
      "outputs": [
        {
          "internalType": "contract ISuperfluid",
          "name": "host",
          "type": "address"
        },
        {
          "internalType": "contract IInstantDistributionAgreementV1",
          "name": "ida",
          "type": "address"
        }
      ],
      "stateMutability": "view",
      "type": "function"
    },
    {
      "inputs": [
        {
          "internalType": "address",
          "name": "",
          "type": "address"
        }
      ],
      "name": "isSubscribing",
      "outputs": [
        {
          "internalType": "bool",
          "name": "",
          "type": "bool"
        }
      ],
      "stateMutability": "view",
      "type": "function"
    },
    {
      "inputs": [],
      "name": "owner",
      "outputs": [
        {
          "internalType": "address",
          "name": "",
          "type": "address"
        }
      ],
      "stateMutability": "view",
      "type": "function"
    },
    {
      "inputs": [
        {
          "internalType": "address",
          "name": "charity",
          "type": "address"
        }
      ],
      "name": "removeCharity",
      "outputs": [],
      "stateMutability": "nonpayable",
      "type": "function"
    },
    {
      "inputs": [],
      "name": "renounceOwnership",
      "outputs": [],
      "stateMutability": "nonpayable",
      "type": "function"
    },
    {
      "inputs": [
        {
          "internalType": "uint128",
          "name": "x",
          "type": "uint128"
        }
      ],
      "name": "sqrt",
      "outputs": [
        {
          "internalType": "uint128",
          "name": "y",
          "type": "uint128"
        }
      ],
      "stateMutability": "pure",
      "type": "function"
    },
    {
      "inputs": [
        {
          "internalType": "address",
          "name": "newOwner",
          "type": "address"
        }
      ],
      "name": "transferOwnership",
      "outputs": [],
      "stateMutability": "nonpayable",
      "type": "function"
    },
    {
      "inputs": [
        {
          "internalType": "address",
          "name": "",
          "type": "address"
        }
      ],
      "name": "userToCharity",
      "outputs": [
        {
          "internalType": "address",
          "name": "",
          "type": "address"
        }
      ],
      "stateMutability": "view",
      "type": "function"
    },
    {
      "inputs": [
        {
          "internalType": "address",
          "name": "",
          "type": "address"
        }
      ],
      "name": "userToFlowRate",
      "outputs": [
        {
          "internalType": "int96",
          "name": "",
          "type": "int96"
        }
      ],
      "stateMutability": "view",
      "type": "function"
    }
  ],
  "bytecode": "0x60806040523480156200001157600080fd5b5060405162002f9338038062002f938339810160408190526200003491620003dd565b6200003f33620002a2565b6001600160a01b0382166200005857620000586200041c565b6001600160a01b0381166200007157620000716200041c565b600780546001600160a01b0319166001600160a01b038416908117909155604051635b69006f60e11b81527fa9214cc96615e0085d3bb077758db69497dc2dce3b2b1e97bc93c3d18d83efd3600482015263b6d200de90602401602060405180830381865afa158015620000e9573d6000803e3d6000fd5b505050506040513d601f19601f820116820180604052508101906200010f919062000432565b600580546001600160a01b0319166001600160a01b03928316179055604051635b69006f60e11b81527f8aedc3b5d4bf031e11a7e2940f7251c005698405d58e02e1c247fed3b1b3a67460048201529083169063b6d200de90602401602060405180830381865afa15801562000189573d6000803e3d6000fd5b505050506040513d601f19601f82011682018060405250810190620001af919062000432565b600680546001600160a01b03199081166001600160a01b0393841690811790925560088054821685851617905560408051808201825260075485168082526005549095166020918201819052600180548516871781556002805486169092179091558251808401845286815290910184905260038054841686179055600480549093169093178255516315a722b960e31b815290810182905290919063ad3915c890602401600060405180830381600087803b1580156200026f57600080fd5b505af115801562000284573d6000803e3d6000fd5b505050506200029933620002f260201b60201c565b50505062000459565b600080546001600160a01b038381166001600160a01b0319831681178455604051919092169283917f8be0079c531659141344cd1fd0a4f28419497f9722a3daafe3b4186f6b6457e09190a35050565b6000546001600160a01b03163314620003525760405162461bcd60e51b815260206004820181905260248201527f4f776e61626c653a2063616c6c6572206973206e6f7420746865206f776e657260448201526064015b60405180910390fd5b6001600160a01b038116620003b95760405162461bcd60e51b815260206004820152602660248201527f4f776e61626c653a206e6577206f776e657220697320746865207a65726f206160448201526564647265737360d01b606482015260840162000349565b620003c481620002a2565b50565b6001600160a01b0381168114620003c457600080fd5b60008060408385031215620003f157600080fd5b8251620003fe81620003c7565b60208401519092506200041181620003c7565b809150509250929050565b634e487b7160e01b600052600160045260246000fd5b6000602082840312156200044557600080fd5b81516200045281620003c7565b9392505050565b612b2a80620004696000396000f3fe608060405234801561001057600080fd5b50600436106101375760003560e01c806378b14f0a116100b8578063cefc81a31161007c578063cefc81a3146102fd578063d3112b2e14610326578063d86ed3e514610340578063e4fc6b6d14610353578063eada8c8b1461035b578063f2fde38b1461038457600080fd5b806378b14f0a1461026c578063884d1f401461027f5780638da5cb5b14610292578063915e3364146102b7578063abefe591146102ea57600080fd5b806332441809116100ff57806332441809146101ee57806344a48d671461021357806353c11f991461023e5780635f9e7d7714610251578063715018a61461026457600080fd5b80630f89f9711461013c5780631cc8ca9914610177578063230dbd29146101b1578063285742f5146101d157806330d9c915146101db575b600080fd5b61015f61014a366004611ea8565b600c60205260009081526040902054600b0b81565b604051600b9190910b81526020015b60405180910390f35b600354600454610191916001600160a01b03908116911682565b604080516001600160a01b0393841681529290911660208301520161016e565b6101c46101bf366004611f0e565b610397565b60405161016e9190612031565b6101d96107f5565b005b6101c46101e9366004612044565b610811565b61015f6101fc366004611ea8565b600b60208190526000918252604090912054900b81565b6102266102213660046120f8565b610874565b6040516001600160801b03909116815260200161016e565b6101c461024c366004611f0e565b6108df565b6101c461025f366004612044565b610af6565b6101d9610b96565b6101d961027a366004611ea8565b610bca565b6101c461028d366004612044565b610c9d565b6000546001600160a01b03165b6040516001600160a01b03909116815260200161016e565b6102da6102c5366004611ea8565b60096020526000908152604090205460ff1681565b604051901515815260200161016e565b6101d96102f8366004611ea8565b610f9b565b61022661030b366004611ea8565b600d602052600090815260409020546001600160801b031681565b600154600254610191916001600160a01b03908116911682565b6101c461034e366004611f0e565b61102a565b6101d96112b2565b61029f610369366004611ea8565b600a602052600090815260409020546001600160a01b031681565b6101d9610392366004611ea8565b611458565b606089896103b3826008546001600160a01b0391821691161490565b6103d85760405162461bcd60e51b81526004016103cf90612115565b60405180910390fd5b6103e1816114f3565b806103f057506103f08161157f565b61040c5760405162461bcd60e51b81526004016103cf9061214c565b6007546001600160a01b031633146104365760405162461bcd60e51b81526004016103cf9061218e565b61043f8b61157f565b156104795760005b6040519080825280601f01601f191660200182016040528015610471576020820181803683370190505b5092506107e6565b60008080610489898b018b6121ea565b600554600854604051631cd43d1160e31b81529497509295509093506000926001600160a01b039182169263e6a1e888926104cd9291169088903090600401612235565b608060405180830381865afa1580156104ea573d6000803e3d6000fd5b505050506040513d601f19601f8201168201806040525081019061050e9190612258565b50506001600160a01b038087166000908152600a60205260409020549193509081169150841681146106755761057b81848c8c8080601f0160208091040260200160405190810160405280939291908181526020018383808284376000920191909152506115e092505050565b975061058881848a6116ee565b975061059584838a6117ad565b97506105a284838a61188c565b6001600160a01b038681166000908152600a6020908152604080832080546001600160a01b0319168a86161790559285168252600c905220549098506105ec908490600b0b6122ac565b6001600160a01b038281166000908152600c602052604080822080546001600160601b0319166001600160601b0395909516949094179093559086168152205461063a908390600b0b6122fc565b6001600160a01b0385166000908152600c6020526040902080546001600160601b0319166001600160601b03929092169190911790556107aa565b600061068184846122ac565b9050600081600b0b13156106e4576106d085828d8d8080601f0160208091040260200160405190810160405280939291908181526020018383808284376000920191909152506117ad92505050565b98506106dd85848b61188c565b985061074b565b610730856106f48360001961234b565b8d8d8080601f0160208091040260200160405190810160405280939291908181526020018383808284376000920191909152506115e092505050565b9850610748856107428360001961234b565b8b6116ee565b98505b6001600160a01b0385166000908152600c6020526040902054610772908290600b0b6122fc565b6001600160a01b0386166000908152600c6020526040902080546001600160601b0319166001600160601b0392909216919091179055505b506001600160a01b03939093166000908152600b6020526040902080546001600160601b0319166001600160601b039094169390931790925550505b50509998505050505050505050565b60085461080f906003906001600160a01b031660006118eb565b565b60405162461bcd60e51b815260206004820152602f60248201527f556e737570706f727465642063616c6c6261636b202d204265666f726520416760448201526e1c99595b595b9d0810dc99585d1959608a1b60648201526060906084016103cf565b60008060026108848460016123e5565b61088e9190612410565b90508291505b816001600160801b0316816001600160801b031610156108d9579050806002816108be8186612410565b6108c891906123e5565b6108d29190612410565b9050610894565b50919050565b6007546060906001600160a01b0316331461090c5760405162461bcd60e51b81526004016103cf9061218e565b600061091a85870187612444565b905080156109625783838080601f016020809104026020016040519081016040528093929190818152602001838380828437600092019190915250929450610ae99350505050565b600754604051631fb6491d60e11b81526000916001600160a01b031690633f6c923a906109959088908890600401612466565b600060405180830381865afa1580156109b2573d6000803e3d6000fd5b505050506040513d6000823e601f3d908101601f191682016040526109da9190810190612576565b606001516001600160a01b038082166000908152600a6020908152604080832054600b80845293829020548251601f8c018590048502810185019093528a83529596509093169390910b91610a4d91849184918b908b90819084018382808284376000920191909152506115e092505050565b9450610a5a8282876116ee565b6001600160a01b0383166000908152600c6020526040902054909550610a84908290600b0b6122ac565b6001600160a01b039283166000908152600c6020908152604080832080546001600160601b03959095166001600160601b0319958616179055959094168152600b84528481208054909216909155600a909252502080546001600160a01b0319169055505b9998505050505050505050565b6007546060906001600160a01b03163314610b235760405162461bcd60e51b81526004016103cf9061218e565b6008546001600160a01b038981169116141580610b465750610b44876114f3565b155b15610b6d576040805160016020820152016040516020818303038152906040529050610b8b565b60408051600060208201520160405160208183030381529060405290505b979650505050505050565b6000546001600160a01b03163314610bc05760405162461bcd60e51b81526004016103cf9061267d565b61080f600061190e565b6000546001600160a01b03163314610bf45760405162461bcd60e51b81526004016103cf9061267d565b6001600160a01b03811660009081526009602052604090205460ff1615610c5d5760405162461bcd60e51b815260206004820152601a60248201527f5351463a204368617269747920616c726561647920616464656400000000000060448201526064016103cf565b60408051600080825260208201909252610c7891839161195e565b506001600160a01b03166000908152600960205260409020805460ff19166001179055565b60608787610cb9826008546001600160a01b0391821691161490565b610cd55760405162461bcd60e51b81526004016103cf90612115565b610cde816114f3565b80610ced5750610ced8161157f565b610d095760405162461bcd60e51b81526004016103cf9061214c565b6007546001600160a01b03163314610d335760405162461bcd60e51b81526004016103cf9061218e565b610d3c8961157f565b15610d57576040805160008152602081019091529250610f8e565b600754604051631fb6491d60e11b81526000916001600160a01b031690633f6c923a90610d8a9089908990600401612466565b600060405180830381865afa158015610da7573d6000803e3d6000fd5b505050506040513d6000823e601f3d908101601f19168201604052610dcf9190810190612576565b905060008160a00151806020019051810190610deb91906126b2565b6001600160a01b03811660009081526009602052604090205490915060ff16610e565760405162461bcd60e51b815260206004820152601860248201527f5351463a204e6f7420612076616c69642063686172697479000000000000000060448201526064016103cf565b600854604051631557a4cd60e31b81526001600160a01b039182166004820152602481018c90526000918d169063aabd266890604401608060405180830381865afa158015610ea9573d6000803e3d6000fd5b505050506040513d601f19601f82011682018060405250810190610ecd9190612258565b5050600754604051631fb6491d60e11b8152919350600092506001600160a01b031690633f6c923a90610f06908c908c90600401612466565b600060405180830381865afa158015610f23573d6000803e3d6000fd5b505050506040513d6000823e601f3d908101601f19168201604052610f4b9190810190612576565b606090810151604080516001600160a01b0392831660208201529590911685820152600b9390930b84820152825180850390910181526080909301909152509350505b5050979650505050505050565b6001600160a01b038116600090815260096020526040902054819060ff16610fc257600080fd5b6000546001600160a01b03163314610fec5760405162461bcd60e51b81526004016103cf9061267d565b60085461100890600190309085906001600160a01b0316611987565b506001600160a01b03166000908152600960205260409020805460ff19169055565b60608989611046826008546001600160a01b0391821691161490565b6110625760405162461bcd60e51b81526004016103cf90612115565b61106b816114f3565b8061107a575061107a8161157f565b6110965760405162461bcd60e51b81526004016103cf9061214c565b6007546001600160a01b031633146110c05760405162461bcd60e51b81526004016103cf9061218e565b6110c98b61157f565b156110d5576000610447565b6000806110e4888a018a6126cf565b600554600854604051631cd43d1160e31b81529395509193506000926001600160a01b039182169263e6a1e888926111259291169087903090600401612235565b608060405180830381865afa158015611142573d6000803e3d6000fd5b505050506040513d601f19601f820116820180604052508101906111669190612258565b5050915050600081600b0b136111be5760405162461bcd60e51b815260206004820152601c60248201527f535146203a2053747265616d20776173206e6f7420637265617465640000000060448201526064016103cf565b6111ff82828a8a8080601f0160208091040260200160405190810160405280939291908181526020018383808284376000920191909152506117ad92505050565b955061120c82828861188c565b6001600160a01b0383166000908152600c6020526040902054909650611236908290600b0b6122fc565b6001600160a01b039283166000818152600c6020908152604080832080546001600160601b03199081166001600160601b0397881617909155979096168252600b815285822080549097169490931693909317909455600a90522080546001600160a01b031916909117905550909a9950505050505050505050565b6000546001600160a01b031633146112dc5760405162461bcd60e51b81526004016103cf9061267d565b600854604051633acd4df360e21b81523060048201524260248201526000916001600160a01b03169063eb3537cc90604401606060405180830381865afa15801561132b573d6000803e3d6000fd5b505050506040513d601f19601f8201168201806040525081019061134f9190612708565b50509050600081136113ad5760405162461bcd60e51b815260206004820152602160248201527f5351463a20596f75206e656564204d6f6e657920746f206469737472696275746044820152606560f81b60648201526084016103cf565b600654600854604051632266eabb60e21b81526001600160a01b0391821660048201523060248201526000604482018190526064820185905292919091169063899baaec906084016040805180830381865afa158015611411573d6000803e3d6000fd5b505050506040513d601f19601f820116820180604052508101906114359190612736565b50600854909150611454906003906001600160a01b0316600084611a61565b5050565b6000546001600160a01b031633146114825760405162461bcd60e51b81526004016103cf9061267d565b6001600160a01b0381166114e75760405162461bcd60e51b815260206004820152602660248201527f4f776e61626c653a206e6577206f776e657220697320746865207a65726f206160448201526564647265737360d01b60648201526084016103cf565b6114f08161190e565b50565b60007fa9214cc96615e0085d3bb077758db69497dc2dce3b2b1e97bc93c3d18d83efd3826001600160a01b0316637730599e6040518163ffffffff1660e01b8152600401602060405180830381865afa158015611554573d6000803e3d6000fd5b505050506040513d601f19601f82011682018060405250810190611578919061275b565b1492915050565b60007f8aedc3b5d4bf031e11a7e2940f7251c005698405d58e02e1c247fed3b1b3a674826001600160a01b0316637730599e6040518163ffffffff1660e01b8152600401602060405180830381865afa158015611554573d6000803e3d6000fd5b6060306001600160a01b038516036115f95750806116e7565b600554600854604051631cd43d1160e31b81526000926001600160a01b039081169263e6a1e88892611635929091169030908a90600401612235565b608060405180830381865afa158015611652573d6000803e3d6000fd5b505050506040513d601f19601f820116820180604052508101906116769190612258565b505091505083600b0b81600b0b036116ae576008546116a6906001908590309089906001600160a01b0316611a87565b9150506116e7565b83600b0b81600b0b13156116e5576008546116a690849087906001600160a01b03166116da88866122ac565b600193929190611b6b565b505b9392505050565b6060600083600b0b136117135760405162461bcd60e51b81526004016103cf90612774565b600b83900b61172181610874565b6001600160a01b0386166000908152600d602052604090205461174d91906001600160801b03166127c9565b6001600160a01b0386166000908152600d6020526040812080546fffffffffffffffffffffffffffffffff19166001600160801b039390931692831790559061179690806127f1565b90506117a386828661195e565b9695505050505050565b60606001600160a01b0384166117c45750806116e7565b600554600854604051631cd43d1160e31b81526000926001600160a01b039081169263e6a1e88892611800929091169030908a90600401612235565b608060405180830381865afa15801561181d573d6000803e3d6000fd5b505050506040513d601f19601f820116820180604052508101906118419190612258565b505091505080600b0b60000361186e576008546116a690600190859088906001600160a01b031688611bd4565b6008546116a690849087906001600160a01b03166116da88866122fc565b6060600083600b0b136118b15760405162461bcd60e51b81526004016103cf90612774565b600b83900b6118bf81610874565b6001600160a01b0386166000908152600d602052604090205461174d91906001600160801b03166123e5565b60408051600081526020810190915261190990849084908490611c03565b505050565b600080546001600160a01b038381166001600160a01b0319831681178455604051919092169283917f8be0079c531659141344cd1fd0a4f28419497f9722a3daafe3b4186f6b6457e09190a35050565b60085460609061197f9060039084906001600160a01b031660008888611c8f565b949350505050565b835460018501546040805160008152602081019091526001600160a01b03928316926339255d5b921690635a5999e360e11b906119cd9086908990899060448101612820565b60408051601f198184030181529181526020820180516001600160e01b03166001600160e01b03199485161790525160e085901b9092168252611a139291600401612854565b6000604051808303816000875af1158015611a32573d6000803e3d6000fd5b505050506040513d6000823e601f3d908101601f19168201604052611a5a91908101906128a2565b5050505050565b604080516000815260208101909152611a81908590859085908590611ccc565b50505050565b845460018601546040805160008152602081019091526060926001600160a01b0390811692634329d29392911690635a5999e360e11b90611ad19087908a908a9060448101612820565b60408051601f198184030181529181526020820180516001600160e01b03166001600160e01b03199485161790525160e085901b9092168252611b1992918a906004016128d7565b6000604051808303816000875af1158015611b38573d6000803e3d6000fd5b505050506040513d6000823e601f3d908101601f19168201604052611b609190810190612930565b509695505050505050565b845460018601546060916001600160a01b0390811691634329d29391166328104d3160e11b86888760005b6040519080825280601f01601f191660200182016040528015611bc0576020820181803683370190505b50604051602401611ad19493929190612994565b845460018601546060916001600160a01b0390811691634329d293911663317e182f60e11b8688876000611b96565b835460018501546040805160008152602081019091526001600160a01b03928316926339255d5b921690636bc3c20560e11b90611c479088908890604481016129ca565b60408051601f198184030181529181526020820180516001600160e01b03166001600160e01b03199485161790525160e085901b9092168252611a13929186906004016129fa565b6060610b8b87878787878760006040519080825280601f01601f191660200182016040528015611cc6576020820181803683370190505b50611da9565b845460018601546040805160008152602081019091526001600160a01b03928316926339255d5b921690635cb398e160e11b90611d129089908990899060448101612a30565b60408051601f198184030181529181526020820180516001600160e01b03166001600160e01b03199485161790525160e085901b9092168252611d5a929186906004016129fa565b6000604051808303816000875af1158015611d79573d6000803e3d6000fd5b505050506040513d6000823e601f3d908101601f19168201604052611da191908101906128a2565b505050505050565b865460018801546040805160008152602081019091526060926001600160a01b0390811692634329d29392911690630465a56b60e31b90611df5908b908b908b908b9060448101612a63565b60408051601f198184030181529181526020820180516001600160e01b03166001600160e01b03199485161790525160e085901b9092168252611e3f929187908d90600401612aaa565b6000604051808303816000875af1158015611e5e573d6000803e3d6000fd5b505050506040513d6000823e601f3d908101601f19168201604052611e869190810190612930565b5098975050505050505050565b6001600160a01b03811681146114f057600080fd5b600060208284031215611eba57600080fd5b81356116e781611e93565b60008083601f840112611ed757600080fd5b50813567ffffffffffffffff811115611eef57600080fd5b602083019150836020828501011115611f0757600080fd5b9250929050565b600080600080600080600080600060c08a8c031215611f2c57600080fd5b8935611f3781611e93565b985060208a0135611f4781611e93565b975060408a0135965060608a013567ffffffffffffffff80821115611f6b57600080fd5b611f778d838e01611ec5565b909850965060808c0135915080821115611f9057600080fd5b611f9c8d838e01611ec5565b909650945060a08c0135915080821115611fb557600080fd5b50611fc28c828d01611ec5565b915080935050809150509295985092959850929598565b60005b83811015611ff4578181015183820152602001611fdc565b83811115611a815750506000910152565b6000815180845261201d816020860160208601611fd9565b601f01601f19169290920160200192915050565b6020815260006116e76020830184612005565b600080600080600080600060a0888a03121561205f57600080fd5b873561206a81611e93565b9650602088013561207a81611e93565b955060408801359450606088013567ffffffffffffffff8082111561209e57600080fd5b6120aa8b838c01611ec5565b909650945060808a01359150808211156120c357600080fd5b506120d08a828b01611ec5565b989b979a50959850939692959293505050565b6001600160801b03811681146114f057600080fd5b60006020828403121561210a57600080fd5b81356116e7816120e3565b60208082526017908201527f5351463a206e6f7420616363657074656420746f6b656e000000000000000000604082015260600190565b60208082526022908201527f5351463a206f6e6c79204346417631206f7220494441763120737570706f7274604082015261195960f21b606082015260800190565b6020808252601a908201527f5351463a20737570706f7274206f6e6c79206f6e6520686f7374000000000000604082015260600190565b634e487b7160e01b600052604160045260246000fd5b80600b0b81146114f057600080fd5b6000806000606084860312156121ff57600080fd5b833561220a81611e93565b9250602084013561221a81611e93565b9150604084013561222a816121db565b809150509250925092565b6001600160a01b0393841681529183166020830152909116604082015260600190565b6000806000806080858703121561226e57600080fd5b845193506020850151612280816121db565b6040860151606090960151949790965092505050565b634e487b7160e01b600052601160045260246000fd5b600081600b0b83600b0b600081128160016001605f1b0319018312811516156122d7576122d7612296565b8160016001605f1b030183138116156122f2576122f2612296565b5090039392505050565b600081600b0b83600b0b600082128260016001605f1b030382138115161561232657612326612296565b8260016001605f1b031903821281161561234257612342612296565b50019392505050565b600081600b0b83600b0b60016001605f1b0360008213600084138383048511828216161561237b5761237b612296565b6b7fffffffffffffffffffffff1960008512828116878305871216156123a3576123a3612296565b600087129250858205871284841616156123bf576123bf612296565b858505871281841616156123d5576123d5612296565b5050509290910295945050505050565b60006001600160801b0380831681851680830382111561240757612407612296565b01949350505050565b60006001600160801b038084168061243857634e487b7160e01b600052601260045260246000fd5b92169190910492915050565b60006020828403121561245657600080fd5b813580151581146116e757600080fd5b60208152816020820152818360408301376000818301604090810191909152601f909201601f19160101919050565b604051610160810167ffffffffffffffff811182821017156124b9576124b96121c5565b60405290565b805160ff811681146124d057600080fd5b919050565b80516124d081611e93565b80516001600160e01b0319811681146124d057600080fd5b600082601f83011261250957600080fd5b815167ffffffffffffffff80821115612524576125246121c5565b604051601f8301601f19908116603f0116810190828211818310171561254c5761254c6121c5565b8160405283815286602085880101111561256557600080fd5b6117a3846020830160208901611fd9565b60006020828403121561258857600080fd5b815167ffffffffffffffff808211156125a057600080fd5b9083019061016082860312156125b557600080fd5b6125bd612495565b6125c6836124bf565b81526125d4602084016124bf565b6020820152604083015160408201526125ef606084016124d5565b6060820152612600608084016124e0565b608082015260a08301518281111561261757600080fd5b612623878286016124f8565b60a08301525060c083015160c082015260e083015160e082015261010091508183015182820152610120915061265a8284016124d5565b82820152610140915061266e8284016124d5565b91810191909152949350505050565b6020808252818101527f4f776e61626c653a2063616c6c6572206973206e6f7420746865206f776e6572604082015260600190565b6000602082840312156126c457600080fd5b81516116e781611e93565b600080604083850312156126e257600080fd5b82356126ed81611e93565b915060208301356126fd81611e93565b809150509250929050565b60008060006060848603121561271d57600080fd5b8351925060208401519150604084015190509250925092565b6000806040838503121561274957600080fd5b8251915060208301516126fd816120e3565b60006020828403121561276d57600080fd5b5051919050565b60208082526035908201527f5351463a2063616e6e6f742074616b65207468652073717561726520726f6f746040820152741037b31030903732b3b0ba34bb3290373ab6b132b960591b606082015260800190565b60006001600160801b03838116908316818110156127e9576127e9612296565b039392505050565b60006001600160801b038083168185168183048111821515161561281757612817612296565b02949350505050565b6001600160a01b0385811682528481166020830152831660408201526080606082018190526000906117a390830184612005565b6001600160a01b038316815260606020820181905260009061287890830184612005565b8281036040840152612899816002815261060f60f31b602082015260400190565b95945050505050565b6000602082840312156128b457600080fd5b815167ffffffffffffffff8111156128cb57600080fd5b61197f848285016124f8565b6001600160a01b03841681526080602082018190526000906128fb90830185612005565b828103604084015261291c816002815261060f60f31b602082015260400190565b905082810360608401526117a38185612005565b6000806040838503121561294357600080fd5b825167ffffffffffffffff8082111561295b57600080fd5b612967868387016124f8565b9350602085015191508082111561297d57600080fd5b5061298a858286016124f8565b9150509250929050565b6001600160a01b03858116825284166020820152600b83900b60408201526080606082018190526000906117a390830184612005565b6001600160a01b038416815263ffffffff8316602082015260606040820181905260009061289990830184612005565b6001600160a01b0384168152606060208201819052600090612a1e90830185612005565b82810360408401526117a38185612005565b60018060a01b038516815263ffffffff841660208201528260408201526080606082015260006117a36080830184612005565b6001600160a01b03868116825263ffffffff86166020830152841660408201526001600160801b038316606082015260a060808201819052600090610b8b90830184612005565b6001600160a01b0385168152608060208201819052600090612ace90830186612005565b8281036040840152612ae08186612005565b90508281036060840152610b8b818561200556fea264697066735822122011f60c6c7864d637983722bc48a17328afa9dd82205e7fa5aeb5bafccfe0d80d64736f6c634300080d0033",
  "linkReferences": {},
  "deployedLinkReferences": {}
}