{
  "_format": "hh-sol-artifact-1",
  "contractName": "SuperQuadraticFunding",
  "sourceName": "contracts/SuperQuadraticFunding.sol",
  "abi": [
    {
      "inputs": [
        {
          "internalType": "contract ISuperfluid",
          "name": "host",
          "type": "address"
        },
        {
          "internalType": "contract ISuperToken",
          "name": "acceptedToken",
          "type": "address"
        }
      ],
      "stateMutability": "nonpayable",
      "type": "constructor"
    },
    {
      "inputs": [
        {
          "internalType": "address",
          "name": "charity",
          "type": "address"
        }
      ],
      "name": "addCharity",
      "outputs": [],
      "stateMutability": "nonpayable",
      "type": "function"
    },
    {
      "inputs": [
        {
          "internalType": "contract ISuperToken",
          "name": "_superToken",
          "type": "address"
        },
        {
          "internalType": "address",
          "name": "_agreementClass",
          "type": "address"
        },
        {
          "internalType": "bytes32",
          "name": "",
          "type": "bytes32"
        },
        {
          "internalType": "bytes",
          "name": "",
          "type": "bytes"
        },
        {
          "internalType": "bytes",
          "name": "_cbdata",
          "type": "bytes"
        },
        {
          "internalType": "bytes",
          "name": "_ctx",
          "type": "bytes"
        }
      ],
      "name": "afterAgreementCreated",
      "outputs": [
        {
          "internalType": "bytes",
          "name": "newCtx",
          "type": "bytes"
        }
      ],
      "stateMutability": "nonpayable",
      "type": "function"
    },
    {
      "inputs": [
        {
          "internalType": "contract ISuperToken",
          "name": "",
          "type": "address"
        },
        {
          "internalType": "address",
          "name": "",
          "type": "address"
        },
        {
          "internalType": "bytes32",
          "name": "",
          "type": "bytes32"
        },
        {
          "internalType": "bytes",
          "name": "",
          "type": "bytes"
        },
        {
          "internalType": "bytes",
          "name": "_cbdata",
          "type": "bytes"
        },
        {
          "internalType": "bytes",
          "name": "_ctx",
          "type": "bytes"
        }
      ],
      "name": "afterAgreementTerminated",
      "outputs": [
        {
          "internalType": "bytes",
          "name": "newCtx",
          "type": "bytes"
        }
      ],
      "stateMutability": "nonpayable",
      "type": "function"
    },
    {
      "inputs": [
        {
          "internalType": "contract ISuperToken",
          "name": "_superToken",
          "type": "address"
        },
        {
          "internalType": "address",
          "name": "_agreementClass",
          "type": "address"
        },
        {
          "internalType": "bytes32",
          "name": "",
          "type": "bytes32"
        },
        {
          "internalType": "bytes",
          "name": "",
          "type": "bytes"
        },
        {
          "internalType": "bytes",
          "name": "_cbdata",
          "type": "bytes"
        },
        {
          "internalType": "bytes",
          "name": "_ctx",
          "type": "bytes"
        }
      ],
      "name": "afterAgreementUpdated",
      "outputs": [
        {
          "internalType": "bytes",
          "name": "newCtx",
          "type": "bytes"
        }
      ],
      "stateMutability": "nonpayable",
      "type": "function"
    },
    {
      "inputs": [
        {
          "internalType": "contract ISuperToken",
          "name": "_superToken",
          "type": "address"
        },
        {
          "internalType": "address",
          "name": "_agreementClass",
          "type": "address"
        },
        {
          "internalType": "bytes32",
          "name": "",
          "type": "bytes32"
        },
        {
          "internalType": "bytes",
          "name": "",
          "type": "bytes"
        },
        {
          "internalType": "bytes",
          "name": "_ctx",
          "type": "bytes"
        }
      ],
      "name": "beforeAgreementCreated",
      "outputs": [
        {
          "internalType": "bytes",
          "name": "cbdata",
          "type": "bytes"
        }
      ],
      "stateMutability": "view",
      "type": "function"
    },
    {
      "inputs": [
        {
          "internalType": "contract ISuperToken",
          "name": "_superToken",
          "type": "address"
        },
        {
          "internalType": "address",
          "name": "_agreementClass",
          "type": "address"
        },
        {
          "internalType": "bytes32",
          "name": "",
          "type": "bytes32"
        },
        {
          "internalType": "bytes",
          "name": "",
          "type": "bytes"
        },
        {
          "internalType": "bytes",
          "name": "",
          "type": "bytes"
        }
      ],
      "name": "beforeAgreementTerminated",
      "outputs": [
        {
          "internalType": "bytes",
          "name": "cbdata",
          "type": "bytes"
        }
      ],
      "stateMutability": "view",
      "type": "function"
    },
    {
      "inputs": [
        {
          "internalType": "contract ISuperToken",
          "name": "_superToken",
          "type": "address"
        },
        {
          "internalType": "address",
          "name": "_agreementClass",
          "type": "address"
        },
        {
          "internalType": "bytes32",
          "name": "_agreementId",
          "type": "bytes32"
        },
        {
          "internalType": "bytes",
          "name": "",
          "type": "bytes"
        },
        {
          "internalType": "bytes",
          "name": "_ctx",
          "type": "bytes"
        }
      ],
      "name": "beforeAgreementUpdated",
      "outputs": [
        {
          "internalType": "bytes",
          "name": "cbdata",
          "type": "bytes"
        }
      ],
      "stateMutability": "view",
      "type": "function"
    },
    {
      "inputs": [],
      "name": "cfaV1",
      "outputs": [
        {
          "internalType": "contract ISuperfluid",
          "name": "host",
          "type": "address"
        },
        {
          "internalType": "contract IConstantFlowAgreementV1",
          "name": "cfa",
          "type": "address"
        }
      ],
      "stateMutability": "view",
      "type": "function"
    },
    {
      "inputs": [
        {
          "internalType": "address",
          "name": "",
          "type": "address"
        }
      ],
      "name": "charities",
      "outputs": [
        {
          "internalType": "bool",
          "name": "",
          "type": "bool"
        }
      ],
      "stateMutability": "view",
      "type": "function"
    },
    {
      "inputs": [
        {
          "internalType": "address",
          "name": "",
          "type": "address"
        }
      ],
      "name": "charityToFlowRate",
      "outputs": [
        {
          "internalType": "int96",
          "name": "",
          "type": "int96"
        }
      ],
      "stateMutability": "view",
      "type": "function"
    },
    {
      "inputs": [
        {
          "internalType": "address",
          "name": "charity",
          "type": "address"
        }
      ],
      "name": "removeCharity",
      "outputs": [],
      "stateMutability": "nonpayable",
      "type": "function"
    },
    {
      "inputs": [
        {
          "internalType": "address",
          "name": "",
          "type": "address"
        }
      ],
      "name": "userToCharity",
      "outputs": [
        {
          "internalType": "address",
          "name": "",
          "type": "address"
        }
      ],
      "stateMutability": "view",
      "type": "function"
    },
    {
      "inputs": [
        {
          "internalType": "address",
          "name": "",
          "type": "address"
        }
      ],
      "name": "userToFlowRate",
      "outputs": [
        {
          "internalType": "int96",
          "name": "",
          "type": "int96"
        }
      ],
      "stateMutability": "view",
      "type": "function"
    }
  ],
  "bytecode": "0x60806040523480156200001157600080fd5b5060405162001dca38038062001dca8339810160408190526200003491620001dc565b6001600160a01b0382166200004d576200004d6200021b565b6001600160a01b0381166200006657620000666200021b565b600280546001600160a01b0319166001600160a01b038416908117909155604051635b69006f60e11b81527fa9214cc96615e0085d3bb077758db69497dc2dce3b2b1e97bc93c3d18d83efd3600482015263b6d200de90602401602060405180830381865afa158015620000de573d6000803e3d6000fd5b505050506040513d601f19601f8201168201806040525081019062000104919062000231565b600380546001600160a01b03199081166001600160a01b039384169081179092556004805482168585161781556040805180820182526002549095168086526020909501849052600080548416861790556001805490931690931790915590516315a722b960e31b815264150000000191810182905290919063ad3915c890602401600060405180830381600087803b158015620001a157600080fd5b505af1158015620001b6573d6000803e3d6000fd5b5050505050505062000258565b6001600160a01b0381168114620001d957600080fd5b50565b60008060408385031215620001f057600080fd5b8251620001fd81620001c3565b60208401519092506200021081620001c3565b809150509250929050565b634e487b7160e01b600052600160045260246000fd5b6000602082840312156200024457600080fd5b81516200025181620001c3565b9392505050565b611b6280620002686000396000f3fe608060405234801561001057600080fd5b50600436106100cf5760003560e01c80635f9e7d771161008c578063abefe59111610066578063abefe591146101e6578063d3112b2e146101f9578063d86ed3e514610233578063eada8c8b1461024657600080fd5b80635f9e7d77146101ab57806378b14f0a146101be578063884d1f40146101d357600080fd5b80630f89f971146100d4578063230dbd291461010f5780632478239a1461012f57806330d9c91514610162578063324418091461017557806353c11f9914610198575b600080fd5b6100f76100e236600461131b565b600560205260009081526040902054600b0b81565b604051600b9190910b81526020015b60405180910390f35b61012261011d366004611388565b610287565b60405161010691906114af565b61015261013d36600461131b565b60066020526000908152604090205460ff1681565b6040519015158152602001610106565b6101226101703660046114c2565b6105c9565b6100f761018336600461131b565b600860205260009081526040902054600b0b81565b6101226101a6366004611388565b6107d4565b6101226101b93660046114c2565b6109a4565b6101d16101cc36600461131b565b610a44565b005b6101226101e13660046114c2565b610a8e565b6101d16101f436600461131b565b610d19565b600054600154610213916001600160a01b03908116911682565b604080516001600160a01b03938416815292909116602083015201610106565b610122610241366004611388565b610d44565b61026f61025436600461131b565b6007602052600090815260409020546001600160a01b031681565b6040516001600160a01b039091168152602001610106565b606089896102a3826004546001600160a01b0391821691161490565b6102c85760405162461bcd60e51b81526004016102bf90611561565b60405180910390fd5b6102d181610f41565b6102ed5760405162461bcd60e51b81526004016102bf90611598565b6002546001600160a01b031633146103175760405162461bcd60e51b81526004016102bf906115cf565b60008080610327898b018b611615565b60035460048054604051631cd43d1160e31b81529598509396509194506000936001600160a01b039182169363e6a1e8889361036b939091169130918a9101611660565b608060405180830381865afa158015610388573d6000803e3d6000fd5b505050506040513d601f19601f820116820180604052508101906103ac9190611683565b50506001600160a01b038087166000908152600760205260409020549193509081169150841681146104bc576103e28184610fcd565b6103ec84836110c3565b6001600160a01b03858116600090815260076020908152604080832080546001600160a01b0319168986161790559284168252600590522054610433908490600b0b6116d7565b6001600160a01b0382811660009081526005602052604080822080546001600160601b0319166001600160601b03959095169490941790935590861681522054610481908390600b0b611727565b6001600160a01b038516600090815260056020526040902080546001600160601b0319166001600160601b039290921691909117905561054e565b60006104c883856116d7565b9050600081600b0b13156104e5576104e085826110c3565b6104ef565b6104ef8582610fcd565b6001600160a01b038516600090815260056020526040902054610516908290600b0b611727565b6001600160a01b038616600090815260056020526040902080546001600160601b0319166001600160601b0392909216919091179055505b6001600160a01b03851660009081526008602090815260409182902080546001600160601b0319166001600160601b0386161790558151601f8c018290048202810182019092528a82528b908b9081908401838280828437600092019190915250929a50505050505050505050509998505050505050505050565b6002546060906001600160a01b031633146105f65760405162461bcd60e51b81526004016102bf906115cf565b8787610610826004546001600160a01b0391821691161490565b61062c5760405162461bcd60e51b81526004016102bf90611561565b61063581610f41565b6106515760405162461bcd60e51b81526004016102bf90611598565b600254604051631fb6491d60e11b81526000916001600160a01b031690633f6c923a906106849089908990600401611776565b600060405180830381865afa1580156106a1573d6000803e3d6000fd5b505050506040513d6000823e601f3d908101601f191682016040526106c991908101906118a6565b905060008160a001518060200190518101906106e591906119ad565b6001600160a01b03811660009081526006602052604090205490915060ff1661070d57600080fd5b600254604051631fb6491d60e11b81526000916001600160a01b031690633f6c923a90610740908b908b90600401611776565b600060405180830381865afa15801561075d573d6000803e3d6000fd5b505050506040513d6000823e601f3d908101601f1916820160405261078591908101906118a6565b60600151905080826040516020016107b39291906001600160a01b0392831681529116602082015260400190565b60405160208183030381529060405295505050505050979650505050505050565b6002546060906001600160a01b031633146108015760405162461bcd60e51b81526004016102bf906115cf565b600061080f858701876119ca565b905080156108575783838080601f0160208091040260200160405190810160405280939291908181526020018383808284376000920191909152509294506109979350505050565b600254604051631fb6491d60e11b81526000916001600160a01b031690633f6c923a9061088a9088908890600401611776565b600060405180830381865afa1580156108a7573d6000803e3d6000fd5b505050506040513d6000823e601f3d908101601f191682016040526108cf91908101906118a6565b606001516001600160a01b038082166000908152600760209081526040808320546008909252909120549293501690600b0b61090b8282610fcd565b6001600160a01b038216600090815260056020526040902054610932908290600b0b6116d7565b6001600160a01b03928316600090815260056020908152604080832080546001600160601b03959095166001600160601b03199586161790559590941681526008845284812080549092169091556007909252502080546001600160a01b0319169055505b9998505050505050505050565b6002546060906001600160a01b031633146109d15760405162461bcd60e51b81526004016102bf906115cf565b6004546001600160a01b0389811691161415806109f457506109f287610f41565b155b15610a1b576040805160016020820152016040516020818303038152906040529050610a39565b60408051600060208201520160405160208183030381529060405290505b979650505050505050565b6001600160a01b03811660009081526006602052604090205460ff1615610a6a57600080fd5b6001600160a01b03166000908152600660205260409020805460ff19166001179055565b6002546060906001600160a01b03163314610abb5760405162461bcd60e51b81526004016102bf906115cf565b8787610ad5826004546001600160a01b0391821691161490565b610af15760405162461bcd60e51b81526004016102bf90611561565b610afa81610f41565b610b165760405162461bcd60e51b81526004016102bf90611598565b600254604051631fb6491d60e11b81526000916001600160a01b031690633f6c923a90610b499089908990600401611776565b600060405180830381865afa158015610b66573d6000803e3d6000fd5b505050506040513d6000823e601f3d908101601f19168201604052610b8e91908101906118a6565b905060008160a00151806020019051810190610baa91906119ad565b6001600160a01b03811660009081526006602052604090205490915060ff16610bd257600080fd5b60048054604051631557a4cd60e31b81526001600160a01b0391821692810192909252602482018c9052600091908d169063aabd266890604401608060405180830381865afa158015610c29573d6000803e3d6000fd5b505050506040513d601f19601f82011682018060405250810190610c4d9190611683565b5050600254604051631fb6491d60e11b8152919350600092506001600160a01b031690633f6c923a90610c86908c908c90600401611776565b600060405180830381865afa158015610ca3573d6000803e3d6000fd5b505050506040513d6000823e601f3d908101601f19168201604052610ccb91908101906118a6565b606090810151604080516001600160a01b0392831660208201529590911685820152600b9390930b84820152825180850390910181526080909301909152509b9a5050505050505050505050565b6001600160a01b038116600090815260066020526040902054819060ff16610d4057600080fd5b5050565b60608989610d60826004546001600160a01b0391821691161490565b610d7c5760405162461bcd60e51b81526004016102bf90611561565b610d8581610f41565b610da15760405162461bcd60e51b81526004016102bf90611598565b6002546001600160a01b03163314610dcb5760405162461bcd60e51b81526004016102bf906115cf565b600080610dda888a018a6119ec565b60035460048054604051631cd43d1160e31b81529496509294506000936001600160a01b039283169363e6a1e88893610e1a939116913091899101611660565b608060405180830381865afa158015610e37573d6000803e3d6000fd5b505050506040513d601f19601f82011682018060405250810190610e5b9190611683565b5050915050610e6a82826110c3565b6001600160a01b038216600090815260056020526040902054610e91908290600b0b611727565b6001600160a01b03838116600081815260056020908152604080832080546001600160601b03199081166001600160601b03988916179091559489168352600882528083208054909516958716959095179093556007835283902080546001600160a01b03191690911790558151601f8a01829004820281018201909252888252899089908190840183828082843760009201919091525092985050505050505050509998505050505050505050565b60007fa9214cc96615e0085d3bb077758db69497dc2dce3b2b1e97bc93c3d18d83efd3826001600160a01b0316637730599e6040518163ffffffff1660e01b8152600401602060405180830381865afa158015610fa2573d6000803e3d6000fd5b505050506040513d601f19601f82011682018060405250810190610fc69190611a25565b1492915050565b306001600160a01b03831603610fe1575050565b60035460048054604051631cd43d1160e31b81526000936001600160a01b039081169363e6a1e8889361101b939216913091899101611660565b608060405180830381865afa158015611038573d6000803e3d6000fd5b505050506040513d601f19601f8201168201806040525081019061105c9190611683565b505091505081600b0b81600b0b0361108f5760045461108a90600090309086906001600160a01b0316611197565b505050565b81600b0b81600b0b131561108a5760045461108a9084906001600160a01b03166110b985856116d7565b6000929190611271565b6001600160a01b0382166110d5575050565b60035460048054604051631cd43d1160e31b81526000936001600160a01b039081169363e6a1e8889361110f939216913091899101611660565b608060405180830381865afa15801561112c573d6000803e3d6000fd5b505050506040513d601f19601f820116820180604052508101906111509190611683565b505091505080600b0b60000361117b5760045461108a9060009085906001600160a01b0316856112d7565b60045461108a9084906001600160a01b03166110b98585611727565b835460018501546040805160008152602081019091526001600160a01b03928316926339255d5b921690635a5999e360e11b906111dd9086908990899060448101611a3e565b60408051601f198184030181529181526020820180516001600160e01b03166001600160e01b03199485161790525160e085901b90921682526112239291600401611a72565b6000604051808303816000875af1158015611242573d6000803e3d6000fd5b505050506040513d6000823e601f3d908101601f1916820160405261126a9190810190611ab9565b5050505050565b835460018501546001600160a01b03918216916339255d5b91166328104d3160e11b85878660005b6040519080825280601f01601f1916602001820160405280156112c3576020820181803683370190505b506040516024016111dd9493929190611af6565b835460018501546001600160a01b03918216916339255d5b911663317e182f60e11b8587866000611299565b6001600160a01b038116811461131857600080fd5b50565b60006020828403121561132d57600080fd5b813561133881611303565b9392505050565b60008083601f84011261135157600080fd5b50813567ffffffffffffffff81111561136957600080fd5b60208301915083602082850101111561138157600080fd5b9250929050565b600080600080600080600080600060c08a8c0312156113a657600080fd5b89356113b181611303565b985060208a01356113c181611303565b975060408a0135965060608a013567ffffffffffffffff808211156113e557600080fd5b6113f18d838e0161133f565b909850965060808c013591508082111561140a57600080fd5b6114168d838e0161133f565b909650945060a08c013591508082111561142f57600080fd5b5061143c8c828d0161133f565b915080935050809150509295985092959850929598565b60005b8381101561146e578181015183820152602001611456565b8381111561147d576000848401525b50505050565b6000815180845261149b816020860160208601611453565b601f01601f19169290920160200192915050565b6020815260006113386020830184611483565b600080600080600080600060a0888a0312156114dd57600080fd5b87356114e881611303565b965060208801356114f881611303565b955060408801359450606088013567ffffffffffffffff8082111561151c57600080fd5b6115288b838c0161133f565b909650945060808a013591508082111561154157600080fd5b5061154e8a828b0161133f565b989b979a50959850939692959293505050565b60208082526017908201527f5351463a206e6f7420616363657074656420746f6b656e000000000000000000604082015260600190565b60208082526019908201527f5351463a206f6e6c7920434641763120737570706f7274656400000000000000604082015260600190565b6020808252601a908201527f5351463a20737570706f7274206f6e6c79206f6e6520686f7374000000000000604082015260600190565b80600b0b811461131857600080fd5b60008060006060848603121561162a57600080fd5b833561163581611303565b9250602084013561164581611303565b9150604084013561165581611606565b809150509250925092565b6001600160a01b0393841681529183166020830152909116604082015260600190565b6000806000806080858703121561169957600080fd5b8451935060208501516116ab81611606565b6040860151606090960151949790965092505050565b634e487b7160e01b600052601160045260246000fd5b600081600b0b83600b0b600081128160016001605f1b031901831281151615611702576117026116c1565b8160016001605f1b0301831381161561171d5761171d6116c1565b5090039392505050565b600081600b0b83600b0b600082128260016001605f1b0303821381151615611751576117516116c1565b8260016001605f1b031903821281161561176d5761176d6116c1565b50019392505050565b60208152816020820152818360408301376000818301604090810191909152601f909201601f19160101919050565b634e487b7160e01b600052604160045260246000fd5b604051610160810167ffffffffffffffff811182821017156117df576117df6117a5565b60405290565b805160ff811681146117f657600080fd5b919050565b80516117f681611303565b80516001600160e01b0319811681146117f657600080fd5b600082601f83011261182f57600080fd5b815167ffffffffffffffff8082111561184a5761184a6117a5565b604051601f8301601f19908116603f01168101908282118183101715611872576118726117a5565b8160405283815286602085880101111561188b57600080fd5b61189c846020830160208901611453565b9695505050505050565b6000602082840312156118b857600080fd5b815167ffffffffffffffff808211156118d057600080fd5b9083019061016082860312156118e557600080fd5b6118ed6117bb565b6118f6836117e5565b8152611904602084016117e5565b60208201526040830151604082015261191f606084016117fb565b606082015261193060808401611806565b608082015260a08301518281111561194757600080fd5b6119538782860161181e565b60a08301525060c083015160c082015260e083015160e082015261010091508183015182820152610120915061198a8284016117fb565b82820152610140915061199e8284016117fb565b91810191909152949350505050565b6000602082840312156119bf57600080fd5b815161133881611303565b6000602082840312156119dc57600080fd5b8135801515811461133857600080fd5b600080604083850312156119ff57600080fd5b8235611a0a81611303565b91506020830135611a1a81611303565b809150509250929050565b600060208284031215611a3757600080fd5b5051919050565b6001600160a01b03858116825284811660208301528316604082015260806060820181905260009061189c90830184611483565b6001600160a01b0383168152606060208201819052600090611a9690830184611483565b8281036040938401526002815261060f60f31b6020820152919091019392505050565b600060208284031215611acb57600080fd5b815167ffffffffffffffff811115611ae257600080fd5b611aee8482850161181e565b949350505050565b6001600160a01b03858116825284166020820152600b83900b604082015260806060820181905260009061189c9083018461148356fea2646970667358221220a24f08f86cd183a8540cd95553391ffee259313c25c08c907ec95e6429e605d964736f6c634300080d0033",
  "linkReferences": {},
  "deployedLinkReferences": {}
}