{
  "_format": "hh-sol-artifact-1",
  "contractName": "SuperQuadraticFunding",
  "sourceName": "contracts/SuperQuadraticFunding.sol",
  "abi": [
    {
      "inputs": [
        {
          "internalType": "contract ISuperfluid",
          "name": "host",
          "type": "address"
        },
        {
          "internalType": "contract ISuperToken",
          "name": "acceptedToken",
          "type": "address"
        }
      ],
      "stateMutability": "nonpayable",
      "type": "constructor"
    },
    {
      "anonymous": false,
      "inputs": [
        {
          "indexed": false,
          "internalType": "address",
          "name": "_from",
          "type": "address"
        },
        {
          "indexed": false,
          "internalType": "int96",
          "name": "_flowrate1",
          "type": "int96"
        },
        {
          "indexed": false,
          "internalType": "int96",
          "name": "_flowrate2",
          "type": "int96"
        }
      ],
      "name": "Flow",
      "type": "event"
    },
    {
      "anonymous": false,
      "inputs": [
        {
          "indexed": true,
          "internalType": "address",
          "name": "previousOwner",
          "type": "address"
        },
        {
          "indexed": true,
          "internalType": "address",
          "name": "newOwner",
          "type": "address"
        }
      ],
      "name": "OwnershipTransferred",
      "type": "event"
    },
    {
      "inputs": [
        {
          "internalType": "address",
          "name": "charity",
          "type": "address"
        }
      ],
      "name": "addCharity",
      "outputs": [],
      "stateMutability": "nonpayable",
      "type": "function"
    },
    {
      "inputs": [
        {
          "internalType": "contract ISuperToken",
          "name": "_superToken",
          "type": "address"
        },
        {
          "internalType": "address",
          "name": "_agreementClass",
          "type": "address"
        },
        {
          "internalType": "bytes32",
          "name": "",
          "type": "bytes32"
        },
        {
          "internalType": "bytes",
          "name": "",
          "type": "bytes"
        },
        {
          "internalType": "bytes",
          "name": "_cbdata",
          "type": "bytes"
        },
        {
          "internalType": "bytes",
          "name": "_ctx",
          "type": "bytes"
        }
      ],
      "name": "afterAgreementCreated",
      "outputs": [
        {
          "internalType": "bytes",
          "name": "newCtx",
          "type": "bytes"
        }
      ],
      "stateMutability": "nonpayable",
      "type": "function"
    },
    {
      "inputs": [
        {
          "internalType": "contract ISuperToken",
          "name": "",
          "type": "address"
        },
        {
          "internalType": "address",
          "name": "",
          "type": "address"
        },
        {
          "internalType": "bytes32",
          "name": "",
          "type": "bytes32"
        },
        {
          "internalType": "bytes",
          "name": "",
          "type": "bytes"
        },
        {
          "internalType": "bytes",
          "name": "_cbdata",
          "type": "bytes"
        },
        {
          "internalType": "bytes",
          "name": "_ctx",
          "type": "bytes"
        }
      ],
      "name": "afterAgreementTerminated",
      "outputs": [
        {
          "internalType": "bytes",
          "name": "newCtx",
          "type": "bytes"
        }
      ],
      "stateMutability": "nonpayable",
      "type": "function"
    },
    {
      "inputs": [
        {
          "internalType": "contract ISuperToken",
          "name": "_superToken",
          "type": "address"
        },
        {
          "internalType": "address",
          "name": "_agreementClass",
          "type": "address"
        },
        {
          "internalType": "bytes32",
          "name": "",
          "type": "bytes32"
        },
        {
          "internalType": "bytes",
          "name": "",
          "type": "bytes"
        },
        {
          "internalType": "bytes",
          "name": "_cbdata",
          "type": "bytes"
        },
        {
          "internalType": "bytes",
          "name": "_ctx",
          "type": "bytes"
        }
      ],
      "name": "afterAgreementUpdated",
      "outputs": [
        {
          "internalType": "bytes",
          "name": "newCtx",
          "type": "bytes"
        }
      ],
      "stateMutability": "nonpayable",
      "type": "function"
    },
    {
      "inputs": [
        {
          "internalType": "contract ISuperToken",
          "name": "_superToken",
          "type": "address"
        },
        {
          "internalType": "address",
          "name": "_agreementClass",
          "type": "address"
        },
        {
          "internalType": "bytes32",
          "name": "",
          "type": "bytes32"
        },
        {
          "internalType": "bytes",
          "name": "",
          "type": "bytes"
        },
        {
          "internalType": "bytes",
          "name": "_ctx",
          "type": "bytes"
        }
      ],
      "name": "beforeAgreementCreated",
      "outputs": [
        {
          "internalType": "bytes",
          "name": "cbdata",
          "type": "bytes"
        }
      ],
      "stateMutability": "view",
      "type": "function"
    },
    {
      "inputs": [
        {
          "internalType": "contract ISuperToken",
          "name": "_superToken",
          "type": "address"
        },
        {
          "internalType": "address",
          "name": "_agreementClass",
          "type": "address"
        },
        {
          "internalType": "bytes32",
          "name": "",
          "type": "bytes32"
        },
        {
          "internalType": "bytes",
          "name": "",
          "type": "bytes"
        },
        {
          "internalType": "bytes",
          "name": "",
          "type": "bytes"
        }
      ],
      "name": "beforeAgreementTerminated",
      "outputs": [
        {
          "internalType": "bytes",
          "name": "cbdata",
          "type": "bytes"
        }
      ],
      "stateMutability": "view",
      "type": "function"
    },
    {
      "inputs": [
        {
          "internalType": "contract ISuperToken",
          "name": "_superToken",
          "type": "address"
        },
        {
          "internalType": "address",
          "name": "_agreementClass",
          "type": "address"
        },
        {
          "internalType": "bytes32",
          "name": "_agreementId",
          "type": "bytes32"
        },
        {
          "internalType": "bytes",
          "name": "",
          "type": "bytes"
        },
        {
          "internalType": "bytes",
          "name": "_ctx",
          "type": "bytes"
        }
      ],
      "name": "beforeAgreementUpdated",
      "outputs": [
        {
          "internalType": "bytes",
          "name": "cbdata",
          "type": "bytes"
        }
      ],
      "stateMutability": "view",
      "type": "function"
    },
    {
      "inputs": [],
      "name": "cfaV1",
      "outputs": [
        {
          "internalType": "contract ISuperfluid",
          "name": "host",
          "type": "address"
        },
        {
          "internalType": "contract IConstantFlowAgreementV1",
          "name": "cfa",
          "type": "address"
        }
      ],
      "stateMutability": "view",
      "type": "function"
    },
    {
      "inputs": [
        {
          "internalType": "address",
          "name": "",
          "type": "address"
        }
      ],
      "name": "charityToFlowRate",
      "outputs": [
        {
          "internalType": "int96",
          "name": "",
          "type": "int96"
        }
      ],
      "stateMutability": "view",
      "type": "function"
    },
    {
      "inputs": [
        {
          "internalType": "address",
          "name": "",
          "type": "address"
        }
      ],
      "name": "charityToRootVotes",
      "outputs": [
        {
          "internalType": "uint128",
          "name": "",
          "type": "uint128"
        }
      ],
      "stateMutability": "view",
      "type": "function"
    },
    {
      "inputs": [],
      "name": "idaV1",
      "outputs": [
        {
          "internalType": "contract ISuperfluid",
          "name": "host",
          "type": "address"
        },
        {
          "internalType": "contract IInstantDistributionAgreementV1",
          "name": "ida",
          "type": "address"
        }
      ],
      "stateMutability": "view",
      "type": "function"
    },
    {
      "inputs": [
        {
          "internalType": "address",
          "name": "",
          "type": "address"
        }
      ],
      "name": "isSubscribing",
      "outputs": [
        {
          "internalType": "bool",
          "name": "",
          "type": "bool"
        }
      ],
      "stateMutability": "view",
      "type": "function"
    },
    {
      "inputs": [],
      "name": "owner",
      "outputs": [
        {
          "internalType": "address",
          "name": "",
          "type": "address"
        }
      ],
      "stateMutability": "view",
      "type": "function"
    },
    {
      "inputs": [
        {
          "internalType": "address",
          "name": "charity",
          "type": "address"
        }
      ],
      "name": "removeCharity",
      "outputs": [],
      "stateMutability": "nonpayable",
      "type": "function"
    },
    {
      "inputs": [],
      "name": "renounceOwnership",
      "outputs": [],
      "stateMutability": "nonpayable",
      "type": "function"
    },
    {
      "inputs": [
        {
          "internalType": "uint128",
          "name": "x",
          "type": "uint128"
        }
      ],
      "name": "sqrt",
      "outputs": [
        {
          "internalType": "uint128",
          "name": "y",
          "type": "uint128"
        }
      ],
      "stateMutability": "pure",
      "type": "function"
    },
    {
      "inputs": [
        {
          "internalType": "address",
          "name": "newOwner",
          "type": "address"
        }
      ],
      "name": "transferOwnership",
      "outputs": [],
      "stateMutability": "nonpayable",
      "type": "function"
    },
    {
      "inputs": [
        {
          "internalType": "address",
          "name": "",
          "type": "address"
        }
      ],
      "name": "userToCharity",
      "outputs": [
        {
          "internalType": "address",
          "name": "",
          "type": "address"
        }
      ],
      "stateMutability": "view",
      "type": "function"
    },
    {
      "inputs": [
        {
          "internalType": "address",
          "name": "",
          "type": "address"
        }
      ],
      "name": "userToFlowRate",
      "outputs": [
        {
          "internalType": "int96",
          "name": "",
          "type": "int96"
        }
      ],
      "stateMutability": "view",
      "type": "function"
    }
  ],
  "bytecode": "0x60806040523480156200001157600080fd5b50604051620030673803806200306783398101604081905262000034916200050f565b6200003f33620002ce565b6001600160a01b0382166200005857620000586200054e565b6001600160a01b0381166200007157620000716200054e565b600780546001600160a01b0319166001600160a01b038416908117909155604051635b69006f60e11b81527fa9214cc96615e0085d3bb077758db69497dc2dce3b2b1e97bc93c3d18d83efd3600482015263b6d200de90602401602060405180830381865afa158015620000e9573d6000803e3d6000fd5b505050506040513d601f19601f820116820180604052508101906200010f919062000564565b600580546001600160a01b0319166001600160a01b03928316179055604051635b69006f60e11b81527f8aedc3b5d4bf031e11a7e2940f7251c005698405d58e02e1c247fed3b1b3a67460048201529083169063b6d200de90602401602060405180830381865afa15801562000189573d6000803e3d6000fd5b505050506040513d601f19601f82011682018060405250810190620001af919062000564565b600680546001600160a01b039283166001600160a01b031991821681179092556008805485851690831681179091556040805180820182526007548616808252600554909616602091820181905260018054861688179055600280548616909117905581518083019092528582529081018490526003805484169095178555600480549093169093179091556200025392916000906200147a6200031e821b17901c565b6007546040516315a722b960e31b8152600160048201819052916001600160a01b03169063ad3915c890602401600060405180830381600087803b1580156200029b57600080fd5b505af1158015620002b0573d6000803e3d6000fd5b50505050620002c5336200034360201b60201c565b50505062000739565b600080546001600160a01b038381166001600160a01b0319831681178455604051919092169283917f8be0079c531659141344cd1fd0a4f28419497f9722a3daafe3b4186f6b6457e09190a35050565b6040805160008152602081019091526200033e9084908490849062000418565b505050565b6000546001600160a01b03163314620003a35760405162461bcd60e51b815260206004820181905260248201527f4f776e61626c653a2063616c6c6572206973206e6f7420746865206f776e657260448201526064015b60405180910390fd5b6001600160a01b0381166200040a5760405162461bcd60e51b815260206004820152602660248201527f4f776e61626c653a206e6577206f776e657220697320746865207a65726f206160448201526564647265737360d01b60648201526084016200039a565b6200041581620002ce565b50565b835460018501546040805160008152602081019091526001600160a01b03928316926339255d5b921690636bc3c20560e11b906200045e90889088906044810162000602565b60408051601f198184030181529181526020820180516001600160e01b03166001600160e01b03199485161790525160e085901b9092168252620004a8929186906004016200063d565b6000604051808303816000875af1158015620004c8573d6000803e3d6000fd5b505050506040513d6000823e601f3d908101601f19168201604052620004f2919081019062000681565b5050505050565b6001600160a01b03811681146200041557600080fd5b600080604083850312156200052357600080fd5b82516200053081620004f9565b60208401519092506200054381620004f9565b809150509250929050565b634e487b7160e01b600052600160045260246000fd5b6000602082840312156200057757600080fd5b81516200058481620004f9565b9392505050565b634e487b7160e01b600052604160045260246000fd5b60005b83811015620005be578181015183820152602001620005a4565b83811115620005ce576000848401525b50505050565b60008151808452620005ee816020860160208601620005a1565b601f01601f19169290920160200192915050565b6001600160a01b038416815263ffffffff831660208201526060604082018190526000906200063490830184620005d4565b95945050505050565b6001600160a01b03841681526060602082018190526000906200066390830185620005d4565b8281036040840152620006778185620005d4565b9695505050505050565b6000602082840312156200069457600080fd5b81516001600160401b0380821115620006ac57600080fd5b818401915084601f830112620006c157600080fd5b815181811115620006d657620006d66200058b565b604051601f8201601f19908116603f011681019083821181831017156200070157620007016200058b565b816040528281528760208487010111156200071b57600080fd5b6200072e836020830160208801620005a1565b979650505050505050565b61291e80620007496000396000f3fe608060405234801561001057600080fd5b50600436106101215760003560e01c806378b14f0a116100ad578063cefc81a311610071578063cefc81a3146102df578063d3112b2e14610308578063d86ed3e514610322578063eada8c8b14610335578063f2fde38b1461035e57600080fd5b806378b14f0a1461024e578063884d1f40146102615780638da5cb5b14610274578063915e336414610299578063abefe591146102cc57600080fd5b806332441809116100f457806332441809146101ce57806344a48d67146101f357806353c11f991461021e5780635f9e7d7714610231578063715018a61461024457600080fd5b80630f89f971146101265780631cc8ca9914610161578063230dbd291461019b57806330d9c915146101bb575b600080fd5b610149610134366004611d27565b600c60205260009081526040902054600b0b81565b604051600b9190910b81526020015b60405180910390f35b60035460045461017b916001600160a01b03908116911682565b604080516001600160a01b03938416815292909116602083015201610158565b6101ae6101a9366004611d8d565b610371565b6040516101589190611eb4565b6101ae6101c9366004611ec7565b61078c565b6101496101dc366004611d27565b600b60208190526000918252604090912054900b81565b610206610201366004611f66565b610a28565b6040516001600160801b039091168152602001610158565b6101ae61022c366004611d8d565b610a93565b6101ae61023f366004611ec7565b610caa565b61024c610d4a565b005b61024c61025c366004611d27565b610d80565b6101ae61026f366004611ec7565b610df4565b6000546001600160a01b03165b6040516001600160a01b039091168152602001610158565b6102bc6102a7366004611d27565b60096020526000908152604090205460ff1681565b6040519015158152602001610158565b61024c6102da366004611d27565b6110dd565b6102066102ed366004611d27565b600d602052600090815260409020546001600160801b031681565b60015460025461017b916001600160a01b03908116911682565b6101ae610330366004611d8d565b61116c565b610281610343366004611d27565b600a602052600090815260409020546001600160a01b031681565b61024c61036c366004611d27565b6113df565b6060898961038d826008546001600160a01b0391821691161490565b6103b25760405162461bcd60e51b81526004016103a990611f8f565b60405180910390fd5b6103bb8161149d565b806103ca57506103ca81611529565b6103e65760405162461bcd60e51b81526004016103a990611fc6565b6007546001600160a01b031633146104105760405162461bcd60e51b81526004016103a990612008565b60008080610420898b018b61204e565b600554600854604051631cd43d1160e31b81529497509295509093506000926001600160a01b039182169263e6a1e888926104649291169088903090600401612099565b608060405180830381865afa158015610481573d6000803e3d6000fd5b505050506040513d601f19601f820116820180604052508101906104a591906120bc565b50506001600160a01b038087166000908152600a602052604090205491935090811691508416811461060c5761051281848c8c8080601f01602080910402602001604051908101604052809392919081815260200183838082843760009201919091525061158a92505050565b975061051f81848a611698565b975061052c84838a611757565b975061053984838a611836565b6001600160a01b038681166000908152600a6020908152604080832080546001600160a01b0319168a86161790559285168252600c90522054909850610583908490600b0b612110565b6001600160a01b038281166000908152600c602052604080822080546001600160601b0319166001600160601b039590951694909417909355908616815220546105d1908390600b0b612160565b6001600160a01b0385166000908152600c6020526040902080546001600160601b0319166001600160601b0392909216919091179055610741565b60006106188484612110565b9050600081600b0b131561067b5761066785828d8d8080601f01602080910402602001604051908101604052809392919081815260200183838082843760009201919091525061175792505050565b985061067485848b611836565b98506106e2565b6106c78561068b836000196121af565b8d8d8080601f01602080910402602001604051908101604052809392919081815260200183838082843760009201919091525061158a92505050565b98506106df856106d9836000196121af565b8b611698565b98505b6001600160a01b0385166000908152600c6020526040902054610709908290600b0b612160565b6001600160a01b0386166000908152600c6020526040902080546001600160601b0319166001600160601b0392909216919091179055505b506001600160a01b039093166000908152600b6020526040902080546001600160601b039094166001600160601b031990941693909317909255505050509998505050505050505050565b6007546060906001600160a01b031633146107b95760405162461bcd60e51b81526004016103a990612008565b87876107d3826008546001600160a01b0391821691161490565b6107ef5760405162461bcd60e51b81526004016103a990611f8f565b6107f88161149d565b80610807575061080781611529565b6108235760405162461bcd60e51b81526004016103a990611fc6565b61082c89611529565b156108665760005b6040519080825280601f01601f19166020018201604052801561085e576020820181803683370190505b509250610a1b565b600754604051631fb6491d60e11b81526000916001600160a01b031690633f6c923a90610899908990899060040161225f565b600060405180830381865afa1580156108b6573d6000803e3d6000fd5b505050506040513d6000823e601f3d908101601f191682016040526108de919081019061236f565b905060008160a001518060200190518101906108fa9190612476565b6001600160a01b03811660009081526009602052604090205490915060ff166109605760405162461bcd60e51b81526020600482015260186024820152775351463a204e6f7420612076616c6964206368617269747960401b60448201526064016103a9565b600754604051631fb6491d60e11b81526000916001600160a01b031690633f6c923a90610993908b908b9060040161225f565b600060405180830381865afa1580156109b0573d6000803e3d6000fd5b505050506040513d6000823e601f3d908101601f191682016040526109d8919081019061236f565b6060015190508082604051602001610a069291906001600160a01b0392831681529116602082015260400190565b60405160208183030381529060405295505050505b5050979650505050505050565b6000806002610a38846001612493565b610a4291906124be565b90508291505b816001600160801b0316816001600160801b03161015610a8d57905080600281610a7281866124be565b610a7c9190612493565b610a8691906124be565b9050610a48565b50919050565b6007546060906001600160a01b03163314610ac05760405162461bcd60e51b81526004016103a990612008565b6000610ace858701876124f2565b90508015610b165783838080601f016020809104026020016040519081016040528093929190818152602001838380828437600092019190915250929450610c9d9350505050565b600754604051631fb6491d60e11b81526000916001600160a01b031690633f6c923a90610b49908890889060040161225f565b600060405180830381865afa158015610b66573d6000803e3d6000fd5b505050506040513d6000823e601f3d908101601f19168201604052610b8e919081019061236f565b606001516001600160a01b038082166000908152600a6020908152604080832054600b80845293829020548251601f8c018590048502810185019093528a83529596509093169390910b91610c0191849184918b908b908190840183828082843760009201919091525061158a92505050565b9450610c0e828287611698565b6001600160a01b0383166000908152600c6020526040902054909550610c38908290600b0b612110565b6001600160a01b039283166000908152600c6020908152604080832080546001600160601b03959095166001600160601b0319958616179055959094168152600b84528481208054909216909155600a909252502080546001600160a01b0319169055505b9998505050505050505050565b6007546060906001600160a01b03163314610cd75760405162461bcd60e51b81526004016103a990612008565b6008546001600160a01b038981169116141580610cfa5750610cf88761149d565b155b15610d21576040805160016020820152016040516020818303038152906040529050610d3f565b60408051600060208201520160405160208183030381529060405290505b979650505050505050565b6000546001600160a01b03163314610d745760405162461bcd60e51b81526004016103a990612514565b610d7e6000611895565b565b6000546001600160a01b03163314610daa5760405162461bcd60e51b81526004016103a990612514565b6001600160a01b03811660009081526009602052604090205460ff1615610dd057600080fd5b6001600160a01b03166000908152600960205260409020805460ff19166001179055565b6007546060906001600160a01b03163314610e215760405162461bcd60e51b81526004016103a990612008565b8787610e3b826008546001600160a01b0391821691161490565b610e575760405162461bcd60e51b81526004016103a990611f8f565b610e608161149d565b80610e6f5750610e6f81611529565b610e8b5760405162461bcd60e51b81526004016103a990611fc6565b610e9489611529565b15610ea0576000610834565b600754604051631fb6491d60e11b81526000916001600160a01b031690633f6c923a90610ed3908990899060040161225f565b600060405180830381865afa158015610ef0573d6000803e3d6000fd5b505050506040513d6000823e601f3d908101601f19168201604052610f18919081019061236f565b905060008160a00151806020019051810190610f349190612476565b6001600160a01b03811660009081526009602052604090205490915060ff16610f9a5760405162461bcd60e51b81526020600482015260186024820152775351463a204e6f7420612076616c6964206368617269747960401b60448201526064016103a9565b600854604051631557a4cd60e31b81526001600160a01b039182166004820152602481018c90526000918d169063aabd266890604401608060405180830381865afa158015610fed573d6000803e3d6000fd5b505050506040513d601f19601f8201168201806040525081019061101191906120bc565b5050600754604051631fb6491d60e11b8152919350600092506001600160a01b031690633f6c923a9061104a908c908c9060040161225f565b600060405180830381865afa158015611067573d6000803e3d6000fd5b505050506040513d6000823e601f3d908101601f1916820160405261108f919081019061236f565b606090810151604080516001600160a01b0392831660208201529590911685820152600b9390930b84820152825180850390910181526080909301909152509b9a5050505050505050505050565b6001600160a01b038116600090815260096020526040902054819060ff1661110457600080fd5b6000546001600160a01b0316331461112e5760405162461bcd60e51b81526004016103a990612514565b60085461114a90600190309085906001600160a01b03166118e5565b506001600160a01b03166000908152600960205260409020805460ff19169055565b60608989611188826008546001600160a01b0391821691161490565b6111a45760405162461bcd60e51b81526004016103a990611f8f565b6111ad8161149d565b806111bc57506111bc81611529565b6111d85760405162461bcd60e51b81526004016103a990611fc6565b6007546001600160a01b031633146112025760405162461bcd60e51b81526004016103a990612008565b600080611211888a018a612549565b600554600854604051631cd43d1160e31b81529395509193506000926001600160a01b039182169263e6a1e888926112529291169087903090600401612099565b608060405180830381865afa15801561126f573d6000803e3d6000fd5b505050506040513d601f19601f8201168201806040525081019061129391906120bc565b5050915050600081600b0b136112eb5760405162461bcd60e51b815260206004820152601c60248201527f535146203a2053747265616d20776173206e6f7420637265617465640000000060448201526064016103a9565b61132c82828a8a8080601f01602080910402602001604051908101604052809392919081815260200183838082843760009201919091525061175792505050565b9550611339828288611836565b6001600160a01b0383166000908152600c6020526040902054909650611363908290600b0b612160565b6001600160a01b039283166000818152600c6020908152604080832080546001600160601b03199081166001600160601b0397881617909155979096168252600b815285822080549097169490931693909317909455600a90522080546001600160a01b031916909117905550909a9950505050505050505050565b6000546001600160a01b031633146114095760405162461bcd60e51b81526004016103a990612514565b6001600160a01b03811661146e5760405162461bcd60e51b815260206004820152602660248201527f4f776e61626c653a206e6577206f776e657220697320746865207a65726f206160448201526564647265737360d01b60648201526084016103a9565b61147781611895565b50565b604080516000815260208101909152611498908490849084906119bf565b505050565b60007fa9214cc96615e0085d3bb077758db69497dc2dce3b2b1e97bc93c3d18d83efd3826001600160a01b0316637730599e6040518163ffffffff1660e01b8152600401602060405180830381865afa1580156114fe573d6000803e3d6000fd5b505050506040513d601f19601f820116820180604052508101906115229190612582565b1492915050565b60007f8aedc3b5d4bf031e11a7e2940f7251c005698405d58e02e1c247fed3b1b3a674826001600160a01b0316637730599e6040518163ffffffff1660e01b8152600401602060405180830381865afa1580156114fe573d6000803e3d6000fd5b6060306001600160a01b038516036115a3575080611691565b600554600854604051631cd43d1160e31b81526000926001600160a01b039081169263e6a1e888926115df929091169030908a90600401612099565b608060405180830381865afa1580156115fc573d6000803e3d6000fd5b505050506040513d601f19601f8201168201806040525081019061162091906120bc565b505091505083600b0b81600b0b0361165857600854611650906001908590309089906001600160a01b0316611a4b565b915050611691565b83600b0b81600b0b131561168f5760085461165090849087906001600160a01b03166116848886612110565b600193929190611b2f565b505b9392505050565b6060600083600b0b136116bd5760405162461bcd60e51b81526004016103a99061259b565b600b83900b6116cb81610a28565b6001600160a01b0386166000908152600d60205260409020546116f791906001600160801b03166125f0565b6001600160a01b0386166000908152600d6020526040812080546fffffffffffffffffffffffffffffffff19166001600160801b03939093169283179055906117409080612618565b905061174d868286611b98565b9695505050505050565b60606001600160a01b03841661176e575080611691565b600554600854604051631cd43d1160e31b81526000926001600160a01b039081169263e6a1e888926117aa929091169030908a90600401612099565b608060405180830381865afa1580156117c7573d6000803e3d6000fd5b505050506040513d601f19601f820116820180604052508101906117eb91906120bc565b505091505080600b0b6000036118185760085461165090600190859088906001600160a01b031688611bc1565b60085461165090849087906001600160a01b03166116848886612160565b6060600083600b0b1361185b5760405162461bcd60e51b81526004016103a99061259b565b600b83900b61186981610a28565b6001600160a01b0386166000908152600d60205260409020546116f791906001600160801b0316612493565b600080546001600160a01b038381166001600160a01b0319831681178455604051919092169283917f8be0079c531659141344cd1fd0a4f28419497f9722a3daafe3b4186f6b6457e09190a35050565b835460018501546040805160008152602081019091526001600160a01b03928316926339255d5b921690635a5999e360e11b9061192b9086908990899060448101612647565b60408051601f198184030181529181526020820180516001600160e01b03166001600160e01b03199485161790525160e085901b9092168252611971929160040161267b565b6000604051808303816000875af1158015611990573d6000803e3d6000fd5b505050506040513d6000823e601f3d908101601f191682016040526119b891908101906126c9565b5050505050565b835460018501546040805160008152602081019091526001600160a01b03928316926339255d5b921690636bc3c20560e11b90611a039088908890604481016126fe565b60408051601f198184030181529181526020820180516001600160e01b03166001600160e01b03199485161790525160e085901b90921682526119719291869060040161272e565b845460018601546040805160008152602081019091526060926001600160a01b0390811692634329d29392911690635a5999e360e11b90611a959087908a908a9060448101612647565b60408051601f198184030181529181526020820180516001600160e01b03166001600160e01b03199485161790525160e085901b9092168252611add92918a90600401612764565b6000604051808303816000875af1158015611afc573d6000803e3d6000fd5b505050506040513d6000823e601f3d908101601f19168201604052611b2491908101906127bd565b509695505050505050565b845460018601546060916001600160a01b0390811691634329d29391166328104d3160e11b86888760005b6040519080825280601f01601f191660200182016040528015611b84576020820181803683370190505b50604051602401611a959493929190612821565b600854606090611bb99060039084906001600160a01b031660008888611bf0565b949350505050565b845460018601546060916001600160a01b0390811691634329d293911663317e182f60e11b8688876000611b5a565b6060610d3f87878787878760006040519080825280601f01601f191660200182016040528015611c27576020820181803683370190505b50865460018801546040805160008152602081019091526060926001600160a01b0390811692634329d29392911690630465a56b60e31b90611c74908b908b908b908b9060448101612857565b60408051601f198184030181529181526020820180516001600160e01b03166001600160e01b03199485161790525160e085901b9092168252611cbe929187908d9060040161289e565b6000604051808303816000875af1158015611cdd573d6000803e3d6000fd5b505050506040513d6000823e601f3d908101601f19168201604052611d0591908101906127bd565b5098975050505050505050565b6001600160a01b038116811461147757600080fd5b600060208284031215611d3957600080fd5b813561169181611d12565b60008083601f840112611d5657600080fd5b50813567ffffffffffffffff811115611d6e57600080fd5b602083019150836020828501011115611d8657600080fd5b9250929050565b600080600080600080600080600060c08a8c031215611dab57600080fd5b8935611db681611d12565b985060208a0135611dc681611d12565b975060408a0135965060608a013567ffffffffffffffff80821115611dea57600080fd5b611df68d838e01611d44565b909850965060808c0135915080821115611e0f57600080fd5b611e1b8d838e01611d44565b909650945060a08c0135915080821115611e3457600080fd5b50611e418c828d01611d44565b915080935050809150509295985092959850929598565b60005b83811015611e73578181015183820152602001611e5b565b83811115611e82576000848401525b50505050565b60008151808452611ea0816020860160208601611e58565b601f01601f19169290920160200192915050565b6020815260006116916020830184611e88565b600080600080600080600060a0888a031215611ee257600080fd5b8735611eed81611d12565b96506020880135611efd81611d12565b955060408801359450606088013567ffffffffffffffff80821115611f2157600080fd5b611f2d8b838c01611d44565b909650945060808a0135915080821115611f4657600080fd5b50611f538a828b01611d44565b989b979a50959850939692959293505050565b600060208284031215611f7857600080fd5b81356001600160801b038116811461169157600080fd5b60208082526017908201527f5351463a206e6f7420616363657074656420746f6b656e000000000000000000604082015260600190565b60208082526022908201527f5351463a206f6e6c79204346417631206f7220494441763120737570706f7274604082015261195960f21b606082015260800190565b6020808252601a908201527f5351463a20737570706f7274206f6e6c79206f6e6520686f7374000000000000604082015260600190565b80600b0b811461147757600080fd5b60008060006060848603121561206357600080fd5b833561206e81611d12565b9250602084013561207e81611d12565b9150604084013561208e8161203f565b809150509250925092565b6001600160a01b0393841681529183166020830152909116604082015260600190565b600080600080608085870312156120d257600080fd5b8451935060208501516120e48161203f565b6040860151606090960151949790965092505050565b634e487b7160e01b600052601160045260246000fd5b600081600b0b83600b0b600081128160016001605f1b03190183128115161561213b5761213b6120fa565b8160016001605f1b03018313811615612156576121566120fa565b5090039392505050565b600081600b0b83600b0b600082128260016001605f1b030382138115161561218a5761218a6120fa565b8260016001605f1b03190382128116156121a6576121a66120fa565b50019392505050565b600081600b0b83600b0b60016001605f1b036000821360008413838304851182821616156121df576121df6120fa565b6b7fffffffffffffffffffffff196000851282811687830587121615612207576122076120fa565b60008712925085820587128484161615612223576122236120fa565b85850587128184161615612239576122396120fa565b5050509290910295945050505050565b634e487b7160e01b600052604160045260246000fd5b60208152816020820152818360408301376000818301604090810191909152601f909201601f19160101919050565b604051610160810167ffffffffffffffff811182821017156122b2576122b2612249565b60405290565b805160ff811681146122c957600080fd5b919050565b80516122c981611d12565b80516001600160e01b0319811681146122c957600080fd5b600082601f83011261230257600080fd5b815167ffffffffffffffff8082111561231d5761231d612249565b604051601f8301601f19908116603f0116810190828211818310171561234557612345612249565b8160405283815286602085880101111561235e57600080fd5b61174d846020830160208901611e58565b60006020828403121561238157600080fd5b815167ffffffffffffffff8082111561239957600080fd5b9083019061016082860312156123ae57600080fd5b6123b661228e565b6123bf836122b8565b81526123cd602084016122b8565b6020820152604083015160408201526123e8606084016122ce565b60608201526123f9608084016122d9565b608082015260a08301518281111561241057600080fd5b61241c878286016122f1565b60a08301525060c083015160c082015260e083015160e08201526101009150818301518282015261012091506124538284016122ce565b8282015261014091506124678284016122ce565b91810191909152949350505050565b60006020828403121561248857600080fd5b815161169181611d12565b60006001600160801b038083168185168083038211156124b5576124b56120fa565b01949350505050565b60006001600160801b03808416806124e657634e487b7160e01b600052601260045260246000fd5b92169190910492915050565b60006020828403121561250457600080fd5b8135801515811461169157600080fd5b6020808252818101527f4f776e61626c653a2063616c6c6572206973206e6f7420746865206f776e6572604082015260600190565b6000806040838503121561255c57600080fd5b823561256781611d12565b9150602083013561257781611d12565b809150509250929050565b60006020828403121561259457600080fd5b5051919050565b60208082526035908201527f5351463a2063616e6e6f742074616b65207468652073717561726520726f6f746040820152741037b31030903732b3b0ba34bb3290373ab6b132b960591b606082015260800190565b60006001600160801b0383811690831681811015612610576126106120fa565b039392505050565b60006001600160801b038083168185168183048111821515161561263e5761263e6120fa565b02949350505050565b6001600160a01b03858116825284811660208301528316604082015260806060820181905260009061174d90830184611e88565b6001600160a01b038316815260606020820181905260009061269f90830184611e88565b82810360408401526126c0816002815261060f60f31b602082015260400190565b95945050505050565b6000602082840312156126db57600080fd5b815167ffffffffffffffff8111156126f257600080fd5b611bb9848285016122f1565b6001600160a01b038416815263ffffffff831660208201526060604082018190526000906126c090830184611e88565b6001600160a01b038416815260606020820181905260009061275290830185611e88565b828103604084015261174d8185611e88565b6001600160a01b038416815260806020820181905260009061278890830185611e88565b82810360408401526127a9816002815261060f60f31b602082015260400190565b9050828103606084015261174d8185611e88565b600080604083850312156127d057600080fd5b825167ffffffffffffffff808211156127e857600080fd5b6127f4868387016122f1565b9350602085015191508082111561280a57600080fd5b50612817858286016122f1565b9150509250929050565b6001600160a01b03858116825284166020820152600b83900b604082015260806060820181905260009061174d90830184611e88565b6001600160a01b03868116825263ffffffff86166020830152841660408201526001600160801b038316606082015260a060808201819052600090610d3f90830184611e88565b6001600160a01b03851681526080602082018190526000906128c290830186611e88565b82810360408401526128d48186611e88565b90508281036060840152610d3f8185611e8856fea264697066735822122046b52d4fdb452dcc43c306fa5030de2eef55c05a6bd7a49cdd6569aa44d3f7e564736f6c634300080d0033",
  "linkReferences": {},
  "deployedLinkReferences": {}
}