{
  "_format": "hh-sol-artifact-1",
  "contractName": "SuperQuadraticFunding",
  "sourceName": "contracts/SuperQuadraticFunding.sol",
  "abi": [
    {
      "inputs": [
        {
          "internalType": "contract ISuperfluid",
          "name": "host",
          "type": "address"
        },
        {
          "internalType": "contract ISuperToken",
          "name": "acceptedToken",
          "type": "address"
        }
      ],
      "stateMutability": "nonpayable",
      "type": "constructor"
    },
    {
      "anonymous": false,
      "inputs": [
        {
          "indexed": false,
          "internalType": "address",
          "name": "_from",
          "type": "address"
        },
        {
          "indexed": false,
          "internalType": "int96",
          "name": "_flowrate1",
          "type": "int96"
        },
        {
          "indexed": false,
          "internalType": "int96",
          "name": "_flowrate2",
          "type": "int96"
        }
      ],
      "name": "Flow",
      "type": "event"
    },
    {
      "anonymous": false,
      "inputs": [
        {
          "indexed": true,
          "internalType": "address",
          "name": "previousOwner",
          "type": "address"
        },
        {
          "indexed": true,
          "internalType": "address",
          "name": "newOwner",
          "type": "address"
        }
      ],
      "name": "OwnershipTransferred",
      "type": "event"
    },
    {
      "inputs": [
        {
          "internalType": "address",
          "name": "charity",
          "type": "address"
        }
      ],
      "name": "addCharity",
      "outputs": [],
      "stateMutability": "nonpayable",
      "type": "function"
    },
    {
      "inputs": [
        {
          "internalType": "contract ISuperToken",
          "name": "_superToken",
          "type": "address"
        },
        {
          "internalType": "address",
          "name": "_agreementClass",
          "type": "address"
        },
        {
          "internalType": "bytes32",
          "name": "",
          "type": "bytes32"
        },
        {
          "internalType": "bytes",
          "name": "",
          "type": "bytes"
        },
        {
          "internalType": "bytes",
          "name": "_cbdata",
          "type": "bytes"
        },
        {
          "internalType": "bytes",
          "name": "_ctx",
          "type": "bytes"
        }
      ],
      "name": "afterAgreementCreated",
      "outputs": [
        {
          "internalType": "bytes",
          "name": "newCtx",
          "type": "bytes"
        }
      ],
      "stateMutability": "nonpayable",
      "type": "function"
    },
    {
      "inputs": [
        {
          "internalType": "contract ISuperToken",
          "name": "",
          "type": "address"
        },
        {
          "internalType": "address",
          "name": "",
          "type": "address"
        },
        {
          "internalType": "bytes32",
          "name": "",
          "type": "bytes32"
        },
        {
          "internalType": "bytes",
          "name": "",
          "type": "bytes"
        },
        {
          "internalType": "bytes",
          "name": "_cbdata",
          "type": "bytes"
        },
        {
          "internalType": "bytes",
          "name": "_ctx",
          "type": "bytes"
        }
      ],
      "name": "afterAgreementTerminated",
      "outputs": [
        {
          "internalType": "bytes",
          "name": "newCtx",
          "type": "bytes"
        }
      ],
      "stateMutability": "nonpayable",
      "type": "function"
    },
    {
      "inputs": [
        {
          "internalType": "contract ISuperToken",
          "name": "_superToken",
          "type": "address"
        },
        {
          "internalType": "address",
          "name": "_agreementClass",
          "type": "address"
        },
        {
          "internalType": "bytes32",
          "name": "",
          "type": "bytes32"
        },
        {
          "internalType": "bytes",
          "name": "",
          "type": "bytes"
        },
        {
          "internalType": "bytes",
          "name": "_cbdata",
          "type": "bytes"
        },
        {
          "internalType": "bytes",
          "name": "_ctx",
          "type": "bytes"
        }
      ],
      "name": "afterAgreementUpdated",
      "outputs": [
        {
          "internalType": "bytes",
          "name": "newCtx",
          "type": "bytes"
        }
      ],
      "stateMutability": "nonpayable",
      "type": "function"
    },
    {
      "inputs": [
        {
          "internalType": "contract ISuperToken",
          "name": "_superToken",
          "type": "address"
        },
        {
          "internalType": "address",
          "name": "_agreementClass",
          "type": "address"
        },
        {
          "internalType": "bytes32",
          "name": "",
          "type": "bytes32"
        },
        {
          "internalType": "bytes",
          "name": "",
          "type": "bytes"
        },
        {
          "internalType": "bytes",
          "name": "_ctx",
          "type": "bytes"
        }
      ],
      "name": "beforeAgreementCreated",
      "outputs": [
        {
          "internalType": "bytes",
          "name": "cbdata",
          "type": "bytes"
        }
      ],
      "stateMutability": "view",
      "type": "function"
    },
    {
      "inputs": [
        {
          "internalType": "contract ISuperToken",
          "name": "_superToken",
          "type": "address"
        },
        {
          "internalType": "address",
          "name": "_agreementClass",
          "type": "address"
        },
        {
          "internalType": "bytes32",
          "name": "",
          "type": "bytes32"
        },
        {
          "internalType": "bytes",
          "name": "",
          "type": "bytes"
        },
        {
          "internalType": "bytes",
          "name": "",
          "type": "bytes"
        }
      ],
      "name": "beforeAgreementTerminated",
      "outputs": [
        {
          "internalType": "bytes",
          "name": "cbdata",
          "type": "bytes"
        }
      ],
      "stateMutability": "view",
      "type": "function"
    },
    {
      "inputs": [
        {
          "internalType": "contract ISuperToken",
          "name": "_superToken",
          "type": "address"
        },
        {
          "internalType": "address",
          "name": "_agreementClass",
          "type": "address"
        },
        {
          "internalType": "bytes32",
          "name": "_agreementId",
          "type": "bytes32"
        },
        {
          "internalType": "bytes",
          "name": "",
          "type": "bytes"
        },
        {
          "internalType": "bytes",
          "name": "_ctx",
          "type": "bytes"
        }
      ],
      "name": "beforeAgreementUpdated",
      "outputs": [
        {
          "internalType": "bytes",
          "name": "cbdata",
          "type": "bytes"
        }
      ],
      "stateMutability": "view",
      "type": "function"
    },
    {
      "inputs": [],
      "name": "cfaV1",
      "outputs": [
        {
          "internalType": "contract ISuperfluid",
          "name": "host",
          "type": "address"
        },
        {
          "internalType": "contract IConstantFlowAgreementV1",
          "name": "cfa",
          "type": "address"
        }
      ],
      "stateMutability": "view",
      "type": "function"
    },
    {
      "inputs": [
        {
          "internalType": "address",
          "name": "",
          "type": "address"
        }
      ],
      "name": "charityToFlowRate",
      "outputs": [
        {
          "internalType": "int96",
          "name": "",
          "type": "int96"
        }
      ],
      "stateMutability": "view",
      "type": "function"
    },
    {
      "inputs": [
        {
          "internalType": "address",
          "name": "",
          "type": "address"
        }
      ],
      "name": "charityToRootVotes",
      "outputs": [
        {
          "internalType": "uint128",
          "name": "",
          "type": "uint128"
        }
      ],
      "stateMutability": "view",
      "type": "function"
    },
    {
      "inputs": [],
      "name": "distribute",
      "outputs": [],
      "stateMutability": "nonpayable",
      "type": "function"
    },
    {
      "inputs": [],
      "name": "idaV1",
      "outputs": [
        {
          "internalType": "contract ISuperfluid",
          "name": "host",
          "type": "address"
        },
        {
          "internalType": "contract IInstantDistributionAgreementV1",
          "name": "ida",
          "type": "address"
        }
      ],
      "stateMutability": "view",
      "type": "function"
    },
    {
      "inputs": [
        {
          "internalType": "address",
          "name": "",
          "type": "address"
        }
      ],
      "name": "isSubscribing",
      "outputs": [
        {
          "internalType": "bool",
          "name": "",
          "type": "bool"
        }
      ],
      "stateMutability": "view",
      "type": "function"
    },
    {
      "inputs": [],
      "name": "owner",
      "outputs": [
        {
          "internalType": "address",
          "name": "",
          "type": "address"
        }
      ],
      "stateMutability": "view",
      "type": "function"
    },
    {
      "inputs": [
        {
          "internalType": "address",
          "name": "charity",
          "type": "address"
        }
      ],
      "name": "removeCharity",
      "outputs": [],
      "stateMutability": "nonpayable",
      "type": "function"
    },
    {
      "inputs": [],
      "name": "renounceOwnership",
      "outputs": [],
      "stateMutability": "nonpayable",
      "type": "function"
    },
    {
      "inputs": [
        {
          "internalType": "uint128",
          "name": "x",
          "type": "uint128"
        }
      ],
      "name": "sqrt",
      "outputs": [
        {
          "internalType": "uint128",
          "name": "y",
          "type": "uint128"
        }
      ],
      "stateMutability": "pure",
      "type": "function"
    },
    {
      "inputs": [
        {
          "internalType": "address",
          "name": "newOwner",
          "type": "address"
        }
      ],
      "name": "transferOwnership",
      "outputs": [],
      "stateMutability": "nonpayable",
      "type": "function"
    },
    {
      "inputs": [
        {
          "internalType": "address",
          "name": "",
          "type": "address"
        }
      ],
      "name": "userToCharity",
      "outputs": [
        {
          "internalType": "address",
          "name": "",
          "type": "address"
        }
      ],
      "stateMutability": "view",
      "type": "function"
    },
    {
      "inputs": [
        {
          "internalType": "address",
          "name": "",
          "type": "address"
        }
      ],
      "name": "userToFlowRate",
      "outputs": [
        {
          "internalType": "int96",
          "name": "",
          "type": "int96"
        }
      ],
      "stateMutability": "view",
      "type": "function"
    }
  ],
  "bytecode": "0x60806040523480156200001157600080fd5b506040516200346a3803806200346a83398101604081905262000034916200050f565b6200003f33620002ce565b6001600160a01b0382166200005857620000586200054e565b6001600160a01b0381166200007157620000716200054e565b600780546001600160a01b0319166001600160a01b038416908117909155604051635b69006f60e11b81527fa9214cc96615e0085d3bb077758db69497dc2dce3b2b1e97bc93c3d18d83efd3600482015263b6d200de90602401602060405180830381865afa158015620000e9573d6000803e3d6000fd5b505050506040513d601f19601f820116820180604052508101906200010f919062000564565b600580546001600160a01b0319166001600160a01b03928316179055604051635b69006f60e11b81527f8aedc3b5d4bf031e11a7e2940f7251c005698405d58e02e1c247fed3b1b3a67460048201529083169063b6d200de90602401602060405180830381865afa15801562000189573d6000803e3d6000fd5b505050506040513d601f19601f82011682018060405250810190620001af919062000564565b600680546001600160a01b039283166001600160a01b03199182168117909255600880548585169083168117909155604080518082018252600754861680825260055490961660209182018190526001805486168817905560028054861690911790558151808301909252858252908101849052600380548416909517855560048054909316909317909155620002539291600090620016ea6200031e821b17901c565b6007546040516315a722b960e31b8152600160048201819052916001600160a01b03169063ad3915c890602401600060405180830381600087803b1580156200029b57600080fd5b505af1158015620002b0573d6000803e3d6000fd5b50505050620002c5336200034360201b60201c565b50505062000739565b600080546001600160a01b038381166001600160a01b0319831681178455604051919092169283917f8be0079c531659141344cd1fd0a4f28419497f9722a3daafe3b4186f6b6457e09190a35050565b6040805160008152602081019091526200033e9084908490849062000418565b505050565b6000546001600160a01b03163314620003a35760405162461bcd60e51b815260206004820181905260248201527f4f776e61626c653a2063616c6c6572206973206e6f7420746865206f776e657260448201526064015b60405180910390fd5b6001600160a01b0381166200040a5760405162461bcd60e51b815260206004820152602660248201527f4f776e61626c653a206e6577206f776e657220697320746865207a65726f206160448201526564647265737360d01b60648201526084016200039a565b6200041581620002ce565b50565b835460018501546040805160008152602081019091526001600160a01b03928316926339255d5b921690636bc3c20560e11b906200045e90889088906044810162000602565b60408051601f198184030181529181526020820180516001600160e01b03166001600160e01b03199485161790525160e085901b9092168252620004a8929186906004016200063d565b6000604051808303816000875af1158015620004c8573d6000803e3d6000fd5b505050506040513d6000823e601f3d908101601f19168201604052620004f2919081019062000681565b5050505050565b6001600160a01b03811681146200041557600080fd5b600080604083850312156200052357600080fd5b82516200053081620004f9565b60208401519092506200054381620004f9565b809150509250929050565b634e487b7160e01b600052600160045260246000fd5b6000602082840312156200057757600080fd5b81516200058481620004f9565b9392505050565b634e487b7160e01b600052604160045260246000fd5b60005b83811015620005be578181015183820152602001620005a4565b83811115620005ce576000848401525b50505050565b60008151808452620005ee816020860160208601620005a1565b601f01601f19169290920160200192915050565b6001600160a01b038416815263ffffffff831660208201526060604082018190526000906200063490830184620005d4565b95945050505050565b6001600160a01b03841681526060602082018190526000906200066390830185620005d4565b8281036040840152620006778185620005d4565b9695505050505050565b6000602082840312156200069457600080fd5b81516001600160401b0380821115620006ac57600080fd5b818401915084601f830112620006c157600080fd5b815181811115620006d657620006d66200058b565b604051601f8201601f19908116603f011681019083821181831017156200070157620007016200058b565b816040528281528760208487010111156200071b57600080fd5b6200072e836020830160208801620005a1565b979650505050505050565b612d2180620007496000396000f3fe608060405234801561001057600080fd5b506004361061012c5760003560e01c8063884d1f40116100ad578063d3112b2e11610071578063d3112b2e14610313578063d86ed3e51461032d578063e4fc6b6d14610340578063eada8c8b14610348578063f2fde38b1461037157600080fd5b8063884d1f401461026c5780638da5cb5b1461027f578063915e3364146102a4578063abefe591146102d7578063cefc81a3146102ea57600080fd5b806344a48d67116100f457806344a48d67146101fe57806353c11f99146102295780635f9e7d771461023c578063715018a61461024f57806378b14f0a1461025957600080fd5b80630f89f971146101315780631cc8ca991461016c578063230dbd29146101a657806330d9c915146101c657806332441809146101d9575b600080fd5b61015461013f36600461209f565b600c60205260009081526040902054600b0b81565b604051600b9190910b81526020015b60405180910390f35b600354600454610186916001600160a01b03908116911682565b604080516001600160a01b03938416815292909116602083015201610163565b6101b96101b4366004612105565b610384565b6040516101639190612228565b6101b96101d436600461223b565b6107e2565b6101546101e736600461209f565b600b60208190526000918252604090912054900b81565b61021161020c3660046122ef565b610a7e565b6040516001600160801b039091168152602001610163565b6101b9610237366004612105565b610ae9565b6101b961024a36600461223b565b610d00565b610257610da0565b005b61025761026736600461209f565b610dd6565b6101b961027a36600461223b565b610ea9565b6000546001600160a01b03165b6040516001600160a01b039091168152602001610163565b6102c76102b236600461209f565b60096020526000908152604090205460ff1681565b6040519015158152602001610163565b6102576102e536600461209f565b611192565b6102116102f836600461209f565b600d602052600090815260409020546001600160801b031681565b600154600254610186916001600160a01b03908116911682565b6101b961033b366004612105565b611221565b6102576114a9565b61028c61035636600461209f565b600a602052600090815260409020546001600160a01b031681565b61025761037f36600461209f565b61164f565b606089896103a0826008546001600160a01b0391821691161490565b6103c55760405162461bcd60e51b81526004016103bc9061230c565b60405180910390fd5b6103ce8161170d565b806103dd57506103dd81611799565b6103f95760405162461bcd60e51b81526004016103bc90612343565b6007546001600160a01b031633146104235760405162461bcd60e51b81526004016103bc90612385565b61042c8b611799565b156104665760005b6040519080825280601f01601f19166020018201604052801561045e576020820181803683370190505b5092506107d3565b60008080610476898b018b6123e1565b600554600854604051631cd43d1160e31b81529497509295509093506000926001600160a01b039182169263e6a1e888926104ba929116908890309060040161242c565b608060405180830381865afa1580156104d7573d6000803e3d6000fd5b505050506040513d601f19601f820116820180604052508101906104fb919061244f565b50506001600160a01b038087166000908152600a60205260409020549193509081169150841681146106625761056881848c8c8080601f0160208091040260200160405190810160405280939291908181526020018383808284376000920191909152506117fa92505050565b975061057581848a611908565b975061058284838a6119c7565b975061058f84838a611aa6565b6001600160a01b038681166000908152600a6020908152604080832080546001600160a01b0319168a86161790559285168252600c905220549098506105d9908490600b0b6124a3565b6001600160a01b038281166000908152600c602052604080822080546001600160601b0319166001600160601b03959095169490941790935590861681522054610627908390600b0b6124f3565b6001600160a01b0385166000908152600c6020526040902080546001600160601b0319166001600160601b0392909216919091179055610797565b600061066e84846124a3565b9050600081600b0b13156106d1576106bd85828d8d8080601f0160208091040260200160405190810160405280939291908181526020018383808284376000920191909152506119c792505050565b98506106ca85848b611aa6565b9850610738565b61071d856106e183600019612542565b8d8d8080601f0160208091040260200160405190810160405280939291908181526020018383808284376000920191909152506117fa92505050565b98506107358561072f83600019612542565b8b611908565b98505b6001600160a01b0385166000908152600c602052604090205461075f908290600b0b6124f3565b6001600160a01b0386166000908152600c6020526040902080546001600160601b0319166001600160601b0392909216919091179055505b506001600160a01b03939093166000908152600b6020526040902080546001600160601b0319166001600160601b039094169390931790925550505b50509998505050505050505050565b6007546060906001600160a01b0316331461080f5760405162461bcd60e51b81526004016103bc90612385565b8787610829826008546001600160a01b0391821691161490565b6108455760405162461bcd60e51b81526004016103bc9061230c565b61084e8161170d565b8061085d575061085d81611799565b6108795760405162461bcd60e51b81526004016103bc90612343565b61088289611799565b156108bc5760005b6040519080825280601f01601f1916602001820160405280156108b4576020820181803683370190505b509250610a71565b600754604051631fb6491d60e11b81526000916001600160a01b031690633f6c923a906108ef90899089906004016125dc565b600060405180830381865afa15801561090c573d6000803e3d6000fd5b505050506040513d6000823e601f3d908101601f1916820160405261093491908101906126ec565b905060008160a0015180602001905181019061095091906127f3565b6001600160a01b03811660009081526009602052604090205490915060ff166109b65760405162461bcd60e51b81526020600482015260186024820152775351463a204e6f7420612076616c6964206368617269747960401b60448201526064016103bc565b600754604051631fb6491d60e11b81526000916001600160a01b031690633f6c923a906109e9908b908b906004016125dc565b600060405180830381865afa158015610a06573d6000803e3d6000fd5b505050506040513d6000823e601f3d908101601f19168201604052610a2e91908101906126ec565b6060015190508082604051602001610a5c9291906001600160a01b0392831681529116602082015260400190565b60405160208183030381529060405295505050505b5050979650505050505050565b6000806002610a8e846001612810565b610a98919061283b565b90508291505b816001600160801b0316816001600160801b03161015610ae357905080600281610ac8818661283b565b610ad29190612810565b610adc919061283b565b9050610a9e565b50919050565b6007546060906001600160a01b03163314610b165760405162461bcd60e51b81526004016103bc90612385565b6000610b248587018761286f565b90508015610b6c5783838080601f016020809104026020016040519081016040528093929190818152602001838380828437600092019190915250929450610cf39350505050565b600754604051631fb6491d60e11b81526000916001600160a01b031690633f6c923a90610b9f90889088906004016125dc565b600060405180830381865afa158015610bbc573d6000803e3d6000fd5b505050506040513d6000823e601f3d908101601f19168201604052610be491908101906126ec565b606001516001600160a01b038082166000908152600a6020908152604080832054600b80845293829020548251601f8c018590048502810185019093528a83529596509093169390910b91610c5791849184918b908b90819084018382808284376000920191909152506117fa92505050565b9450610c64828287611908565b6001600160a01b0383166000908152600c6020526040902054909550610c8e908290600b0b6124a3565b6001600160a01b039283166000908152600c6020908152604080832080546001600160601b03959095166001600160601b0319958616179055959094168152600b84528481208054909216909155600a909252502080546001600160a01b0319169055505b9998505050505050505050565b6007546060906001600160a01b03163314610d2d5760405162461bcd60e51b81526004016103bc90612385565b6008546001600160a01b038981169116141580610d505750610d4e8761170d565b155b15610d77576040805160016020820152016040516020818303038152906040529050610d95565b60408051600060208201520160405160208183030381529060405290505b979650505050505050565b6000546001600160a01b03163314610dca5760405162461bcd60e51b81526004016103bc90612891565b610dd46000611b05565b565b6000546001600160a01b03163314610e005760405162461bcd60e51b81526004016103bc90612891565b6001600160a01b03811660009081526009602052604090205460ff1615610e695760405162461bcd60e51b815260206004820152601a60248201527f5351463a204368617269747920616c726561647920616464656400000000000060448201526064016103bc565b60408051600080825260208201909252610e84918391611b55565b506001600160a01b03166000908152600960205260409020805460ff19166001179055565b6007546060906001600160a01b03163314610ed65760405162461bcd60e51b81526004016103bc90612385565b8787610ef0826008546001600160a01b0391821691161490565b610f0c5760405162461bcd60e51b81526004016103bc9061230c565b610f158161170d565b80610f245750610f2481611799565b610f405760405162461bcd60e51b81526004016103bc90612343565b610f4989611799565b15610f5557600061088a565b600754604051631fb6491d60e11b81526000916001600160a01b031690633f6c923a90610f8890899089906004016125dc565b600060405180830381865afa158015610fa5573d6000803e3d6000fd5b505050506040513d6000823e601f3d908101601f19168201604052610fcd91908101906126ec565b905060008160a00151806020019051810190610fe991906127f3565b6001600160a01b03811660009081526009602052604090205490915060ff1661104f5760405162461bcd60e51b81526020600482015260186024820152775351463a204e6f7420612076616c6964206368617269747960401b60448201526064016103bc565b600854604051631557a4cd60e31b81526001600160a01b039182166004820152602481018c90526000918d169063aabd266890604401608060405180830381865afa1580156110a2573d6000803e3d6000fd5b505050506040513d601f19601f820116820180604052508101906110c6919061244f565b5050600754604051631fb6491d60e11b8152919350600092506001600160a01b031690633f6c923a906110ff908c908c906004016125dc565b600060405180830381865afa15801561111c573d6000803e3d6000fd5b505050506040513d6000823e601f3d908101601f1916820160405261114491908101906126ec565b606090810151604080516001600160a01b0392831660208201529590911685820152600b9390930b84820152825180850390910181526080909301909152509b9a5050505050505050505050565b6001600160a01b038116600090815260096020526040902054819060ff166111b957600080fd5b6000546001600160a01b031633146111e35760405162461bcd60e51b81526004016103bc90612891565b6008546111ff90600190309085906001600160a01b0316611b7e565b506001600160a01b03166000908152600960205260409020805460ff19169055565b6060898961123d826008546001600160a01b0391821691161490565b6112595760405162461bcd60e51b81526004016103bc9061230c565b6112628161170d565b80611271575061127181611799565b61128d5760405162461bcd60e51b81526004016103bc90612343565b6007546001600160a01b031633146112b75760405162461bcd60e51b81526004016103bc90612385565b6112c08b611799565b156112cc576000610434565b6000806112db888a018a6128c6565b600554600854604051631cd43d1160e31b81529395509193506000926001600160a01b039182169263e6a1e8889261131c929116908790309060040161242c565b608060405180830381865afa158015611339573d6000803e3d6000fd5b505050506040513d601f19601f8201168201806040525081019061135d919061244f565b5050915050600081600b0b136113b55760405162461bcd60e51b815260206004820152601c60248201527f535146203a2053747265616d20776173206e6f7420637265617465640000000060448201526064016103bc565b6113f682828a8a8080601f0160208091040260200160405190810160405280939291908181526020018383808284376000920191909152506119c792505050565b9550611403828288611aa6565b6001600160a01b0383166000908152600c602052604090205490965061142d908290600b0b6124f3565b6001600160a01b039283166000818152600c6020908152604080832080546001600160601b03199081166001600160601b0397881617909155979096168252600b815285822080549097169490931693909317909455600a90522080546001600160a01b031916909117905550909a9950505050505050505050565b6000546001600160a01b031633146114d35760405162461bcd60e51b81526004016103bc90612891565b600854604051633acd4df360e21b81523060048201524260248201526000916001600160a01b03169063eb3537cc90604401606060405180830381865afa158015611522573d6000803e3d6000fd5b505050506040513d601f19601f8201168201806040525081019061154691906128ff565b50509050600081136115a45760405162461bcd60e51b815260206004820152602160248201527f5351463a20596f75206e656564204d6f6e657920746f206469737472696275746044820152606560f81b60648201526084016103bc565b600654600854604051632266eabb60e21b81526001600160a01b0391821660048201523060248201526000604482018190526064820185905292919091169063899baaec906084016040805180830381865afa158015611608573d6000803e3d6000fd5b505050506040513d601f19601f8201168201806040525081019061162c919061292d565b5060085490915061164b906003906001600160a01b0316600084611c58565b5050565b6000546001600160a01b031633146116795760405162461bcd60e51b81526004016103bc90612891565b6001600160a01b0381166116de5760405162461bcd60e51b815260206004820152602660248201527f4f776e61626c653a206e6577206f776e657220697320746865207a65726f206160448201526564647265737360d01b60648201526084016103bc565b6116e781611b05565b50565b60408051600081526020810190915261170890849084908490611c7e565b505050565b60007fa9214cc96615e0085d3bb077758db69497dc2dce3b2b1e97bc93c3d18d83efd3826001600160a01b0316637730599e6040518163ffffffff1660e01b8152600401602060405180830381865afa15801561176e573d6000803e3d6000fd5b505050506040513d601f19601f820116820180604052508101906117929190612952565b1492915050565b60007f8aedc3b5d4bf031e11a7e2940f7251c005698405d58e02e1c247fed3b1b3a674826001600160a01b0316637730599e6040518163ffffffff1660e01b8152600401602060405180830381865afa15801561176e573d6000803e3d6000fd5b6060306001600160a01b03851603611813575080611901565b600554600854604051631cd43d1160e31b81526000926001600160a01b039081169263e6a1e8889261184f929091169030908a9060040161242c565b608060405180830381865afa15801561186c573d6000803e3d6000fd5b505050506040513d601f19601f82011682018060405250810190611890919061244f565b505091505083600b0b81600b0b036118c8576008546118c0906001908590309089906001600160a01b0316611d0a565b915050611901565b83600b0b81600b0b13156118ff576008546118c090849087906001600160a01b03166118f488866124a3565b600193929190611dee565b505b9392505050565b6060600083600b0b1361192d5760405162461bcd60e51b81526004016103bc9061296b565b600b83900b61193b81610a7e565b6001600160a01b0386166000908152600d602052604090205461196791906001600160801b03166129c0565b6001600160a01b0386166000908152600d6020526040812080546fffffffffffffffffffffffffffffffff19166001600160801b03939093169283179055906119b090806129e8565b90506119bd868286611b55565b9695505050505050565b60606001600160a01b0384166119de575080611901565b600554600854604051631cd43d1160e31b81526000926001600160a01b039081169263e6a1e88892611a1a929091169030908a9060040161242c565b608060405180830381865afa158015611a37573d6000803e3d6000fd5b505050506040513d601f19601f82011682018060405250810190611a5b919061244f565b505091505080600b0b600003611a88576008546118c090600190859088906001600160a01b031688611e57565b6008546118c090849087906001600160a01b03166118f488866124f3565b6060600083600b0b13611acb5760405162461bcd60e51b81526004016103bc9061296b565b600b83900b611ad981610a7e565b6001600160a01b0386166000908152600d602052604090205461196791906001600160801b0316612810565b600080546001600160a01b038381166001600160a01b0319831681178455604051919092169283917f8be0079c531659141344cd1fd0a4f28419497f9722a3daafe3b4186f6b6457e09190a35050565b600854606090611b769060039084906001600160a01b031660008888611e86565b949350505050565b835460018501546040805160008152602081019091526001600160a01b03928316926339255d5b921690635a5999e360e11b90611bc49086908990899060448101612a17565b60408051601f198184030181529181526020820180516001600160e01b03166001600160e01b03199485161790525160e085901b9092168252611c0a9291600401612a4b565b6000604051808303816000875af1158015611c29573d6000803e3d6000fd5b505050506040513d6000823e601f3d908101601f19168201604052611c519190810190612a99565b5050505050565b604080516000815260208101909152611c78908590859085908590611ec3565b50505050565b835460018501546040805160008152602081019091526001600160a01b03928316926339255d5b921690636bc3c20560e11b90611cc2908890889060448101612ace565b60408051601f198184030181529181526020820180516001600160e01b03166001600160e01b03199485161790525160e085901b9092168252611c0a92918690600401612afe565b845460018601546040805160008152602081019091526060926001600160a01b0390811692634329d29392911690635a5999e360e11b90611d549087908a908a9060448101612a17565b60408051601f198184030181529181526020820180516001600160e01b03166001600160e01b03199485161790525160e085901b9092168252611d9c92918a90600401612b34565b6000604051808303816000875af1158015611dbb573d6000803e3d6000fd5b505050506040513d6000823e601f3d908101601f19168201604052611de39190810190612b8d565b509695505050505050565b845460018601546060916001600160a01b0390811691634329d29391166328104d3160e11b86888760005b6040519080825280601f01601f191660200182016040528015611e43576020820181803683370190505b50604051602401611d549493929190612bf1565b845460018601546060916001600160a01b0390811691634329d293911663317e182f60e11b8688876000611e19565b6060610d9587878787878760006040519080825280601f01601f191660200182016040528015611ebd576020820181803683370190505b50611fa0565b845460018601546040805160008152602081019091526001600160a01b03928316926339255d5b921690635cb398e160e11b90611f099089908990899060448101612c27565b60408051601f198184030181529181526020820180516001600160e01b03166001600160e01b03199485161790525160e085901b9092168252611f5192918690600401612afe565b6000604051808303816000875af1158015611f70573d6000803e3d6000fd5b505050506040513d6000823e601f3d908101601f19168201604052611f989190810190612a99565b505050505050565b865460018801546040805160008152602081019091526060926001600160a01b0390811692634329d29392911690630465a56b60e31b90611fec908b908b908b908b9060448101612c5a565b60408051601f198184030181529181526020820180516001600160e01b03166001600160e01b03199485161790525160e085901b9092168252612036929187908d90600401612ca1565b6000604051808303816000875af1158015612055573d6000803e3d6000fd5b505050506040513d6000823e601f3d908101601f1916820160405261207d9190810190612b8d565b5098975050505050505050565b6001600160a01b03811681146116e757600080fd5b6000602082840312156120b157600080fd5b81356119018161208a565b60008083601f8401126120ce57600080fd5b50813567ffffffffffffffff8111156120e657600080fd5b6020830191508360208285010111156120fe57600080fd5b9250929050565b600080600080600080600080600060c08a8c03121561212357600080fd5b893561212e8161208a565b985060208a013561213e8161208a565b975060408a0135965060608a013567ffffffffffffffff8082111561216257600080fd5b61216e8d838e016120bc565b909850965060808c013591508082111561218757600080fd5b6121938d838e016120bc565b909650945060a08c01359150808211156121ac57600080fd5b506121b98c828d016120bc565b915080935050809150509295985092959850929598565b60005b838110156121eb5781810151838201526020016121d3565b83811115611c785750506000910152565b600081518084526122148160208601602086016121d0565b601f01601f19169290920160200192915050565b60208152600061190160208301846121fc565b600080600080600080600060a0888a03121561225657600080fd5b87356122618161208a565b965060208801356122718161208a565b955060408801359450606088013567ffffffffffffffff8082111561229557600080fd5b6122a18b838c016120bc565b909650945060808a01359150808211156122ba57600080fd5b506122c78a828b016120bc565b989b979a50959850939692959293505050565b6001600160801b03811681146116e757600080fd5b60006020828403121561230157600080fd5b8135611901816122da565b60208082526017908201527f5351463a206e6f7420616363657074656420746f6b656e000000000000000000604082015260600190565b60208082526022908201527f5351463a206f6e6c79204346417631206f7220494441763120737570706f7274604082015261195960f21b606082015260800190565b6020808252601a908201527f5351463a20737570706f7274206f6e6c79206f6e6520686f7374000000000000604082015260600190565b634e487b7160e01b600052604160045260246000fd5b80600b0b81146116e757600080fd5b6000806000606084860312156123f657600080fd5b83356124018161208a565b925060208401356124118161208a565b91506040840135612421816123d2565b809150509250925092565b6001600160a01b0393841681529183166020830152909116604082015260600190565b6000806000806080858703121561246557600080fd5b845193506020850151612477816123d2565b6040860151606090960151949790965092505050565b634e487b7160e01b600052601160045260246000fd5b600081600b0b83600b0b600081128160016001605f1b0319018312811516156124ce576124ce61248d565b8160016001605f1b030183138116156124e9576124e961248d565b5090039392505050565b600081600b0b83600b0b600082128260016001605f1b030382138115161561251d5761251d61248d565b8260016001605f1b03190382128116156125395761253961248d565b50019392505050565b600081600b0b83600b0b60016001605f1b036000821360008413838304851182821616156125725761257261248d565b6b7fffffffffffffffffffffff19600085128281168783058712161561259a5761259a61248d565b600087129250858205871284841616156125b6576125b661248d565b858505871281841616156125cc576125cc61248d565b5050509290910295945050505050565b60208152816020820152818360408301376000818301604090810191909152601f909201601f19160101919050565b604051610160810167ffffffffffffffff8111828210171561262f5761262f6123bc565b60405290565b805160ff8116811461264657600080fd5b919050565b80516126468161208a565b80516001600160e01b03198116811461264657600080fd5b600082601f83011261267f57600080fd5b815167ffffffffffffffff8082111561269a5761269a6123bc565b604051601f8301601f19908116603f011681019082821181831017156126c2576126c26123bc565b816040528381528660208588010111156126db57600080fd5b6119bd8460208301602089016121d0565b6000602082840312156126fe57600080fd5b815167ffffffffffffffff8082111561271657600080fd5b90830190610160828603121561272b57600080fd5b61273361260b565b61273c83612635565b815261274a60208401612635565b6020820152604083015160408201526127656060840161264b565b606082015261277660808401612656565b608082015260a08301518281111561278d57600080fd5b6127998782860161266e565b60a08301525060c083015160c082015260e083015160e08201526101009150818301518282015261012091506127d082840161264b565b8282015261014091506127e482840161264b565b91810191909152949350505050565b60006020828403121561280557600080fd5b81516119018161208a565b60006001600160801b038083168185168083038211156128325761283261248d565b01949350505050565b60006001600160801b038084168061286357634e487b7160e01b600052601260045260246000fd5b92169190910492915050565b60006020828403121561288157600080fd5b8135801515811461190157600080fd5b6020808252818101527f4f776e61626c653a2063616c6c6572206973206e6f7420746865206f776e6572604082015260600190565b600080604083850312156128d957600080fd5b82356128e48161208a565b915060208301356128f48161208a565b809150509250929050565b60008060006060848603121561291457600080fd5b8351925060208401519150604084015190509250925092565b6000806040838503121561294057600080fd5b8251915060208301516128f4816122da565b60006020828403121561296457600080fd5b5051919050565b60208082526035908201527f5351463a2063616e6e6f742074616b65207468652073717561726520726f6f746040820152741037b31030903732b3b0ba34bb3290373ab6b132b960591b606082015260800190565b60006001600160801b03838116908316818110156129e0576129e061248d565b039392505050565b60006001600160801b0380831681851681830481118215151615612a0e57612a0e61248d565b02949350505050565b6001600160a01b0385811682528481166020830152831660408201526080606082018190526000906119bd908301846121fc565b6001600160a01b0383168152606060208201819052600090612a6f908301846121fc565b8281036040840152612a90816002815261060f60f31b602082015260400190565b95945050505050565b600060208284031215612aab57600080fd5b815167ffffffffffffffff811115612ac257600080fd5b611b768482850161266e565b6001600160a01b038416815263ffffffff83166020820152606060408201819052600090612a90908301846121fc565b6001600160a01b0384168152606060208201819052600090612b22908301856121fc565b82810360408401526119bd81856121fc565b6001600160a01b0384168152608060208201819052600090612b58908301856121fc565b8281036040840152612b79816002815261060f60f31b602082015260400190565b905082810360608401526119bd81856121fc565b60008060408385031215612ba057600080fd5b825167ffffffffffffffff80821115612bb857600080fd5b612bc48683870161266e565b93506020850151915080821115612bda57600080fd5b50612be78582860161266e565b9150509250929050565b6001600160a01b03858116825284166020820152600b83900b60408201526080606082018190526000906119bd908301846121fc565b60018060a01b038516815263ffffffff841660208201528260408201526080606082015260006119bd60808301846121fc565b6001600160a01b03868116825263ffffffff86166020830152841660408201526001600160801b038316606082015260a060808201819052600090610d95908301846121fc565b6001600160a01b0385168152608060208201819052600090612cc5908301866121fc565b8281036040840152612cd781866121fc565b90508281036060840152610d9581856121fc56fea264697066735822122096eabc8423cad369bf49303968b8903a36d8fbde0a88b504e7c364c3aa0e6ef264736f6c634300080d0033",
  "linkReferences": {},
  "deployedLinkReferences": {}
}