{
  "_format": "hh-sol-artifact-1",
  "contractName": "TradeableCashflow",
  "sourceName": "contracts/TradeableCashflow.sol",
  "abi": [
    {
      "inputs": [
        {
          "internalType": "address",
          "name": "owner",
          "type": "address"
        },
        {
          "internalType": "string",
          "name": "_name",
          "type": "string"
        },
        {
          "internalType": "string",
          "name": "_symbol",
          "type": "string"
        },
        {
          "internalType": "contract ISuperfluid",
          "name": "host",
          "type": "address"
        },
        {
          "internalType": "contract ISuperToken",
          "name": "acceptedToken",
          "type": "address"
        }
      ],
      "stateMutability": "nonpayable",
      "type": "constructor"
    },
    {
      "anonymous": false,
      "inputs": [
        {
          "indexed": true,
          "internalType": "address",
          "name": "owner",
          "type": "address"
        },
        {
          "indexed": true,
          "internalType": "address",
          "name": "approved",
          "type": "address"
        },
        {
          "indexed": true,
          "internalType": "uint256",
          "name": "tokenId",
          "type": "uint256"
        }
      ],
      "name": "Approval",
      "type": "event"
    },
    {
      "anonymous": false,
      "inputs": [
        {
          "indexed": true,
          "internalType": "address",
          "name": "owner",
          "type": "address"
        },
        {
          "indexed": true,
          "internalType": "address",
          "name": "operator",
          "type": "address"
        },
        {
          "indexed": false,
          "internalType": "bool",
          "name": "approved",
          "type": "bool"
        }
      ],
      "name": "ApprovalForAll",
      "type": "event"
    },
    {
      "anonymous": false,
      "inputs": [
        {
          "indexed": false,
          "internalType": "address",
          "name": "receiver",
          "type": "address"
        }
      ],
      "name": "ReceiverChanged",
      "type": "event"
    },
    {
      "anonymous": false,
      "inputs": [
        {
          "indexed": true,
          "internalType": "address",
          "name": "from",
          "type": "address"
        },
        {
          "indexed": true,
          "internalType": "address",
          "name": "to",
          "type": "address"
        },
        {
          "indexed": true,
          "internalType": "uint256",
          "name": "tokenId",
          "type": "uint256"
        }
      ],
      "name": "Transfer",
      "type": "event"
    },
    {
      "inputs": [],
      "name": "_receiver",
      "outputs": [
        {
          "internalType": "address",
          "name": "",
          "type": "address"
        }
      ],
      "stateMutability": "view",
      "type": "function"
    },
    {
      "inputs": [
        {
          "internalType": "contract ISuperToken",
          "name": "_superToken",
          "type": "address"
        },
        {
          "internalType": "address",
          "name": "_agreementClass",
          "type": "address"
        },
        {
          "internalType": "bytes32",
          "name": "",
          "type": "bytes32"
        },
        {
          "internalType": "bytes",
          "name": "",
          "type": "bytes"
        },
        {
          "internalType": "bytes",
          "name": "",
          "type": "bytes"
        },
        {
          "internalType": "bytes",
          "name": "_ctx",
          "type": "bytes"
        }
      ],
      "name": "afterAgreementCreated",
      "outputs": [
        {
          "internalType": "bytes",
          "name": "newCtx",
          "type": "bytes"
        }
      ],
      "stateMutability": "nonpayable",
      "type": "function"
    },
    {
      "inputs": [
        {
          "internalType": "contract ISuperToken",
          "name": "_superToken",
          "type": "address"
        },
        {
          "internalType": "address",
          "name": "_agreementClass",
          "type": "address"
        },
        {
          "internalType": "bytes32",
          "name": "",
          "type": "bytes32"
        },
        {
          "internalType": "bytes",
          "name": "",
          "type": "bytes"
        },
        {
          "internalType": "bytes",
          "name": "",
          "type": "bytes"
        },
        {
          "internalType": "bytes",
          "name": "_ctx",
          "type": "bytes"
        }
      ],
      "name": "afterAgreementTerminated",
      "outputs": [
        {
          "internalType": "bytes",
          "name": "newCtx",
          "type": "bytes"
        }
      ],
      "stateMutability": "nonpayable",
      "type": "function"
    },
    {
      "inputs": [
        {
          "internalType": "contract ISuperToken",
          "name": "_superToken",
          "type": "address"
        },
        {
          "internalType": "address",
          "name": "_agreementClass",
          "type": "address"
        },
        {
          "internalType": "bytes32",
          "name": "",
          "type": "bytes32"
        },
        {
          "internalType": "bytes",
          "name": "",
          "type": "bytes"
        },
        {
          "internalType": "bytes",
          "name": "",
          "type": "bytes"
        },
        {
          "internalType": "bytes",
          "name": "_ctx",
          "type": "bytes"
        }
      ],
      "name": "afterAgreementUpdated",
      "outputs": [
        {
          "internalType": "bytes",
          "name": "newCtx",
          "type": "bytes"
        }
      ],
      "stateMutability": "nonpayable",
      "type": "function"
    },
    {
      "inputs": [
        {
          "internalType": "address",
          "name": "to",
          "type": "address"
        },
        {
          "internalType": "uint256",
          "name": "tokenId",
          "type": "uint256"
        }
      ],
      "name": "approve",
      "outputs": [],
      "stateMutability": "nonpayable",
      "type": "function"
    },
    {
      "inputs": [
        {
          "internalType": "address",
          "name": "owner",
          "type": "address"
        }
      ],
      "name": "balanceOf",
      "outputs": [
        {
          "internalType": "uint256",
          "name": "",
          "type": "uint256"
        }
      ],
      "stateMutability": "view",
      "type": "function"
    },
    {
      "inputs": [
        {
          "internalType": "contract ISuperToken",
          "name": "",
          "type": "address"
        },
        {
          "internalType": "address",
          "name": "",
          "type": "address"
        },
        {
          "internalType": "bytes32",
          "name": "",
          "type": "bytes32"
        },
        {
          "internalType": "bytes",
          "name": "",
          "type": "bytes"
        },
        {
          "internalType": "bytes",
          "name": "",
          "type": "bytes"
        }
      ],
      "name": "beforeAgreementCreated",
      "outputs": [
        {
          "internalType": "bytes",
          "name": "",
          "type": "bytes"
        }
      ],
      "stateMutability": "view",
      "type": "function"
    },
    {
      "inputs": [
        {
          "internalType": "contract ISuperToken",
          "name": "",
          "type": "address"
        },
        {
          "internalType": "address",
          "name": "",
          "type": "address"
        },
        {
          "internalType": "bytes32",
          "name": "",
          "type": "bytes32"
        },
        {
          "internalType": "bytes",
          "name": "",
          "type": "bytes"
        },
        {
          "internalType": "bytes",
          "name": "",
          "type": "bytes"
        }
      ],
      "name": "beforeAgreementTerminated",
      "outputs": [
        {
          "internalType": "bytes",
          "name": "",
          "type": "bytes"
        }
      ],
      "stateMutability": "view",
      "type": "function"
    },
    {
      "inputs": [
        {
          "internalType": "contract ISuperToken",
          "name": "",
          "type": "address"
        },
        {
          "internalType": "address",
          "name": "",
          "type": "address"
        },
        {
          "internalType": "bytes32",
          "name": "",
          "type": "bytes32"
        },
        {
          "internalType": "bytes",
          "name": "",
          "type": "bytes"
        },
        {
          "internalType": "bytes",
          "name": "",
          "type": "bytes"
        }
      ],
      "name": "beforeAgreementUpdated",
      "outputs": [
        {
          "internalType": "bytes",
          "name": "",
          "type": "bytes"
        }
      ],
      "stateMutability": "view",
      "type": "function"
    },
    {
      "inputs": [],
      "name": "cfaV1",
      "outputs": [
        {
          "internalType": "contract ISuperfluid",
          "name": "host",
          "type": "address"
        },
        {
          "internalType": "contract IConstantFlowAgreementV1",
          "name": "cfa",
          "type": "address"
        }
      ],
      "stateMutability": "view",
      "type": "function"
    },
    {
      "inputs": [],
      "name": "currentReceiver",
      "outputs": [
        {
          "internalType": "uint256",
          "name": "startTime",
          "type": "uint256"
        },
        {
          "internalType": "address",
          "name": "receiver",
          "type": "address"
        },
        {
          "internalType": "int96",
          "name": "flowRate",
          "type": "int96"
        }
      ],
      "stateMutability": "view",
      "type": "function"
    },
    {
      "inputs": [
        {
          "internalType": "uint256",
          "name": "tokenId",
          "type": "uint256"
        }
      ],
      "name": "getApproved",
      "outputs": [
        {
          "internalType": "address",
          "name": "",
          "type": "address"
        }
      ],
      "stateMutability": "view",
      "type": "function"
    },
    {
      "inputs": [
        {
          "internalType": "address",
          "name": "owner",
          "type": "address"
        },
        {
          "internalType": "address",
          "name": "operator",
          "type": "address"
        }
      ],
      "name": "isApprovedForAll",
      "outputs": [
        {
          "internalType": "bool",
          "name": "",
          "type": "bool"
        }
      ],
      "stateMutability": "view",
      "type": "function"
    },
    {
      "inputs": [],
      "name": "name",
      "outputs": [
        {
          "internalType": "string",
          "name": "",
          "type": "string"
        }
      ],
      "stateMutability": "view",
      "type": "function"
    },
    {
      "inputs": [
        {
          "internalType": "uint256",
          "name": "tokenId",
          "type": "uint256"
        }
      ],
      "name": "ownerOf",
      "outputs": [
        {
          "internalType": "address",
          "name": "",
          "type": "address"
        }
      ],
      "stateMutability": "view",
      "type": "function"
    },
    {
      "inputs": [
        {
          "internalType": "address",
          "name": "from",
          "type": "address"
        },
        {
          "internalType": "address",
          "name": "to",
          "type": "address"
        },
        {
          "internalType": "uint256",
          "name": "tokenId",
          "type": "uint256"
        }
      ],
      "name": "safeTransferFrom",
      "outputs": [],
      "stateMutability": "nonpayable",
      "type": "function"
    },
    {
      "inputs": [
        {
          "internalType": "address",
          "name": "from",
          "type": "address"
        },
        {
          "internalType": "address",
          "name": "to",
          "type": "address"
        },
        {
          "internalType": "uint256",
          "name": "tokenId",
          "type": "uint256"
        },
        {
          "internalType": "bytes",
          "name": "_data",
          "type": "bytes"
        }
      ],
      "name": "safeTransferFrom",
      "outputs": [],
      "stateMutability": "nonpayable",
      "type": "function"
    },
    {
      "inputs": [
        {
          "internalType": "address",
          "name": "operator",
          "type": "address"
        },
        {
          "internalType": "bool",
          "name": "approved",
          "type": "bool"
        }
      ],
      "name": "setApprovalForAll",
      "outputs": [],
      "stateMutability": "nonpayable",
      "type": "function"
    },
    {
      "inputs": [
        {
          "internalType": "bytes4",
          "name": "interfaceId",
          "type": "bytes4"
        }
      ],
      "name": "supportsInterface",
      "outputs": [
        {
          "internalType": "bool",
          "name": "",
          "type": "bool"
        }
      ],
      "stateMutability": "view",
      "type": "function"
    },
    {
      "inputs": [],
      "name": "symbol",
      "outputs": [
        {
          "internalType": "string",
          "name": "",
          "type": "string"
        }
      ],
      "stateMutability": "view",
      "type": "function"
    },
    {
      "inputs": [
        {
          "internalType": "uint256",
          "name": "tokenId",
          "type": "uint256"
        }
      ],
      "name": "tokenURI",
      "outputs": [
        {
          "internalType": "string",
          "name": "",
          "type": "string"
        }
      ],
      "stateMutability": "view",
      "type": "function"
    },
    {
      "inputs": [
        {
          "internalType": "address",
          "name": "from",
          "type": "address"
        },
        {
          "internalType": "address",
          "name": "to",
          "type": "address"
        },
        {
          "internalType": "uint256",
          "name": "tokenId",
          "type": "uint256"
        }
      ],
      "name": "transferFrom",
      "outputs": [],
      "stateMutability": "nonpayable",
      "type": "function"
    }
  ],
  "bytecode": "0x60806040523480156200001157600080fd5b50604051620030cf380380620030cf83398101604081905262000034916200096e565b8181868686816000908051906020019062000051929190620007c0565b50805162000067906001906020840190620007c0565b5050506001600160a01b03831662000083576200008362000a1a565b6001600160a01b0382166200009c576200009c62000a1a565b6001600160a01b038116620000b557620000b562000a1a565b600880546001600160a01b0319166001600160a01b038516908117909155604051635b69006f60e11b81527fa9214cc96615e0085d3bb077758db69497dc2dce3b2b1e97bc93c3d18d83efd3600482015263b6d200de90602401602060405180830381865afa1580156200012d573d6000803e3d6000fd5b505050506040513d601f19601f8201168201806040525081019062000153919062000a30565b600980546001600160a01b03199081166001600160a01b03938416908117909255600a80548216868516179055600b80548216858516179055604080518082018252600854909416808552602090940183905260068054831685179055600780549092169092179055516315a722b960e31b815264150000000160048201819052919063ad3915c890602401600060405180830381600087803b158015620001fa57600080fd5b505af11580156200020f573d6000803e3d6000fd5b50505050505050506200022a8560016200023560201b60201c565b505050505062000c90565b6001600160a01b038216620002915760405162461bcd60e51b815260206004820181905260248201527f4552433732313a206d696e7420746f20746865207a65726f206164647265737360448201526064015b60405180910390fd5b6000818152600260205260409020546001600160a01b031615620002f85760405162461bcd60e51b815260206004820152601c60248201527f4552433732313a20746f6b656e20616c7265616479206d696e74656400000000604482015260640162000288565b62000306600083836200038f565b6001600160a01b03821660009081526003602052604081208054600192906200033190849062000a50565b909155505060008181526002602052604080822080546001600160a01b0319166001600160a01b03861690811790915590518392907fddf252ad1be2c89b69c2b068fc378daa952ba7f163c4a11628f55a4df523b3ef908290a45050565b6200039a826200039f565b505050565b6001600160a01b038116620003f75760405162461bcd60e51b815260206004820152601c60248201527f4e6577207265636569766572206973207a65726f206164647265737300000000604482015260640162000288565b600854604051631e51d6a760e11b81526001600160a01b03838116600483015290911690633ca3ad4e90602401602060405180830381865afa15801562000442573d6000803e3d6000fd5b505050506040513d601f19601f8201168201806040525081019062000468919062000a77565b15620004c25760405162461bcd60e51b815260206004820152602260248201527f4e65772072656365697665722063616e206e6f74206265206120737570657241604482015261070760f41b606482015260840162000288565b600b546001600160a01b0390811690821603620004dc5750565b600954600a54600b54604051631cd43d1160e31b81526001600160a01b0392831660048201523060248201529082166044820152600092919091169063e6a1e88890606401608060405180830381865afa1580156200053f573d6000803e3d6000fd5b505050506040513d601f19601f8201168201806040525081019062000565919062000ab3565b5050915050600081600b0b13156200064257600b54600a54620005a69160069130916001600160a01b03908116911662000697602090811b62000c2c17901c565b600a5460095460405163e8e7e2d160e01b81526001600160a01b039283166004820181905230602483015262000642938693919291169063e8e7e2d190604401602060405180830381865afa15801562000604573d6000803e3d6000fd5b505050506040513d601f19601f820116820180604052508101906200062a919062000af2565b60066200077860201b62000d0617909392919060201c565b600b80546001600160a01b0319166001600160a01b0384169081179091556040519081527f7dfb1d59db37a3fd2e15e796c189dcab714cdbb18650d68a1de58f8fa60718c99060200160405180910390a15050565b835460018501546040805160008152602081019091526001600160a01b03928316926339255d5b921690635a5999e360e11b90620006df908690899089906044810162000b3e565b60408051601f198184030181529181526020820180516001600160e01b03166001600160e01b03199485161790525160e085901b909216825262000727929160040162000b7e565b6000604051808303816000875af115801562000747573d6000803e3d6000fd5b505050506040513d6000823e601f3d908101601f1916820160405262000771919081019062000bc7565b5050505050565b835460018501546040805160008152602081019091526001600160a01b03928316926339255d5b92169063317e182f60e11b90620006df908790899088906044810162000c1c565b828054620007ce9062000c54565b90600052602060002090601f016020900481019282620007f257600085556200083d565b82601f106200080d57805160ff19168380011785556200083d565b828001600101855582156200083d579182015b828111156200083d57825182559160200191906001019062000820565b506200084b9291506200084f565b5090565b5b808211156200084b576000815560010162000850565b6001600160a01b03811681146200087c57600080fd5b50565b634e487b7160e01b600052604160045260246000fd5b60005b83811015620008b257818101518382015260200162000898565b83811115620008c2576000848401525b50505050565b60006001600160401b0380841115620008e557620008e56200087f565b604051601f8501601f19908116603f011681019082821181831017156200091057620009106200087f565b816040528093508581528686860111156200092a57600080fd5b6200093a86602083018762000895565b5050509392505050565b600082601f8301126200095657600080fd5b6200096783835160208501620008c8565b9392505050565b600080600080600060a086880312156200098757600080fd5b8551620009948162000866565b60208701519095506001600160401b0380821115620009b257600080fd5b620009c089838a0162000944565b95506040880151915080821115620009d757600080fd5b50620009e68882890162000944565b9350506060860151620009f98162000866565b608087015190925062000a0c8162000866565b809150509295509295909350565b634e487b7160e01b600052600160045260246000fd5b60006020828403121562000a4357600080fd5b8151620009678162000866565b6000821982111562000a7257634e487b7160e01b600052601160045260246000fd5b500190565b60006020828403121562000a8a57600080fd5b815180151581146200096757600080fd5b8051600b81900b811462000aae57600080fd5b919050565b6000806000806080858703121562000aca57600080fd5b8451935062000adc6020860162000a9b565b6040860151606090960151949790965092505050565b60006020828403121562000b0557600080fd5b620009678262000a9b565b6000815180845262000b2a81602086016020860162000895565b601f01601f19169290920160200192915050565b6001600160a01b03858116825284811660208301528316604082015260806060820181905260009062000b749083018462000b10565b9695505050505050565b6001600160a01b038316815260606020820181905260009062000ba49083018462000b10565b8281036040938401526002815261060f60f31b6020820152919091019392505050565b60006020828403121562000bda57600080fd5b81516001600160401b0381111562000bf157600080fd5b8201601f8101841362000c0357600080fd5b62000c1484825160208401620008c8565b949350505050565b6001600160a01b03858116825284166020820152600b83900b604082015260806060820181905260009062000b749083018462000b10565b600181811c9082168062000c6957607f821691505b60208210810362000c8a57634e487b7160e01b600052602260045260246000fd5b50919050565b61242f8062000ca06000396000f3fe608060405234801561001057600080fd5b50600436106101425760003560e01c80635f9e7d77116100b8578063a22cb4651161007c578063a22cb465146102c6578063b88d4fde146102d9578063c87b56dd146102ec578063d3112b2e146102ff578063d86ed3e5146101d7578063e985e9c51461033957600080fd5b80635f9e7d77146102645780636352211e1461027757806370a082311461028a578063884d1f40146102ab57806395d89b41146102be57600080fd5b8063230dbd291161010a578063230dbd29146101d757806323b872dd146101ea57806328d2bf94146101fd57806330d9c9151461022b57806342842e0e1461023e57806353c11f991461025157600080fd5b806301ffc9a71461014757806302964ff11461016f57806306fdde031461019a578063081812fc146101af578063095ea7b3146101c2575b600080fd5b61015a610155366004611a2d565b610375565b60405190151581526020015b60405180910390f35b600b54610182906001600160a01b031681565b6040516001600160a01b039091168152602001610166565b6101a26103c7565b6040516101669190611aa2565b6101826101bd366004611ab5565b610459565b6101d56101d0366004611ae3565b6104f3565b005b6101a26101e5366004611b58565b610608565b6101d56101f8366004611c23565b610713565b610205610744565b604080519384526001600160a01b039092166020840152600b0b90820152606001610166565b6101a2610239366004611c64565b6107fa565b6101d561024c366004611c23565b61085d565b6101a261025f366004611b58565b610878565b6101a2610272366004611c64565b610926565b610182610285366004611ab5565b61098d565b61029d610298366004611d03565b610a04565b604051908152602001610166565b6101a26102b9366004611c64565b610a8b565b6101a2610aee565b6101d56102d4366004611d2e565b610afd565b6101d56102e7366004611dd6565b610b0c565b6101a26102fa366004611ab5565b610b44565b600654600754610319916001600160a01b03908116911682565b604080516001600160a01b03938416815292909116602083015201610166565b61015a610347366004611e85565b6001600160a01b03918216600090815260056020908152604080832093909416825291909152205460ff1690565b60006001600160e01b031982166380ac58cd60e01b14806103a657506001600160e01b03198216635b5e139f60e01b145b806103c157506301ffc9a760e01b6001600160e01b03198316145b92915050565b6060600080546103d690611eb3565b80601f016020809104026020016040519081016040528092919081815260200182805461040290611eb3565b801561044f5780601f106104245761010080835404028352916020019161044f565b820191906000526020600020905b81548152906001019060200180831161043257829003601f168201915b5050505050905090565b6000818152600260205260408120546001600160a01b03166104d75760405162461bcd60e51b815260206004820152602c60248201527f4552433732313a20617070726f76656420717565727920666f72206e6f6e657860448201526b34b9ba32b73a103a37b5b2b760a11b60648201526084015b60405180910390fd5b506000908152600460205260409020546001600160a01b031690565b60006104fe8261098d565b9050806001600160a01b0316836001600160a01b03160361056b5760405162461bcd60e51b815260206004820152602160248201527f4552433732313a20617070726f76616c20746f2063757272656e74206f776e656044820152603960f91b60648201526084016104ce565b336001600160a01b038216148061058757506105878133610347565b6105f95760405162461bcd60e51b815260206004820152603860248201527f4552433732313a20617070726f76652063616c6c6572206973206e6f74206f7760448201527f6e6572206e6f7220617070726f76656420666f7220616c6c000000000000000060648201526084016104ce565b6106038383610d4c565b505050565b6060898961062482600a546001600160a01b0391821691161490565b6106705760405162461bcd60e51b815260206004820152601f60248201527f5265646972656374416c6c3a206e6f7420616363657074656420746f6b656e0060448201526064016104ce565b61067981610dba565b6106cf5760405162461bcd60e51b815260206004820152602160248201527f5265646972656374416c6c3a206f6e6c7920434641763120737570706f7274656044820152601960fa1b60648201526084016104ce565b6008546001600160a01b031633146106f95760405162461bcd60e51b81526004016104ce90611eed565b6107038585610e46565b9c9b505050505050505050505050565b61071d3382611022565b6107395760405162461bcd60e51b81526004016104ce90611f2f565b610603838383611119565b600b54600090819081906001600160a01b0316156107f557600954600a54600b54604051631cd43d1160e31b81526001600160a01b039283166004820152306024820152908216604482015291169063e6a1e88890606401608060405180830381865afa1580156107b9573d6000803e3d6000fd5b505050506040513d601f19601f820116820180604052508101906107dd9190611f97565b5050600b549194506001600160a01b03909116925090505b909192565b60405162461bcd60e51b815260206004820152602f60248201527f556e737570706f727465642063616c6c6261636b202d204265666f726520416760448201526e1c99595b595b9d0810dc99585d1959608a1b60648201526060906084016104ce565b61060383838360405180602001604052806000815250610b0c565b6008546060906001600160a01b031633146108a55760405162461bcd60e51b81526004016104ce90611eed565b600a546001600160a01b038b811691161415806108c857506108c689610dba565b155b1561090c5782828080601f01602080910402602001604051908101604052809392919081815260200183838082843760009201919091525092935061091992505050565b6109168383610e46565b90505b9998505050505050505050565b60405162461bcd60e51b815260206004820152603360248201527f556e737570706f727465642063616c6c6261636b202d20204265666f7265204160448201527219dc99595b595b9d0815195c9b5a5b985d1959606a1b60648201526060906084016104ce565b6000818152600260205260408120546001600160a01b0316806103c15760405162461bcd60e51b815260206004820152602960248201527f4552433732313a206f776e657220717565727920666f72206e6f6e657869737460448201526832b73a103a37b5b2b760b91b60648201526084016104ce565b60006001600160a01b038216610a6f5760405162461bcd60e51b815260206004820152602a60248201527f4552433732313a2062616c616e636520717565727920666f7220746865207a65604482015269726f206164647265737360b01b60648201526084016104ce565b506001600160a01b031660009081526003602052604090205490565b60405162461bcd60e51b815260206004820152602f60248201527f556e737570706f727465642063616c6c6261636b202d204265666f726520416760448201526e1c99595b595b9d081d5c19185d1959608a1b60648201526060906084016104ce565b6060600180546103d690611eb3565b610b083383836112c0565b5050565b610b163383611022565b610b325760405162461bcd60e51b81526004016104ce90611f2f565b610b3e8484848461138e565b50505050565b6000818152600260205260409020546060906001600160a01b0316610bc35760405162461bcd60e51b815260206004820152602f60248201527f4552433732314d657461646174613a2055524920717565727920666f72206e6f60448201526e3732bc34b9ba32b73a103a37b5b2b760891b60648201526084016104ce565b6000610bda60408051602081019091526000815290565b90506000815111610bfa5760405180602001604052806000815250610c25565b80610c04846113c1565b604051602001610c15929190611fd3565b6040516020818303038152906040525b9392505050565b835460018501546040805160008152602081019091526001600160a01b03928316926339255d5b921690635a5999e360e11b90610c729086908990899060448101612002565b60408051601f198184030181529181526020820180516001600160e01b03166001600160e01b03199485161790525160e085901b9092168252610cb89291600401612040565b6000604051808303816000875af1158015610cd7573d6000803e3d6000fd5b505050506040513d6000823e601f3d908101601f19168201604052610cff91908101906120d3565b5050505050565b835460018501546040805160008152602081019091526001600160a01b03928316926339255d5b92169063317e182f60e11b90610c729087908990889060448101612108565b600081815260046020526040902080546001600160a01b0319166001600160a01b0384169081179091558190610d818261098d565b6001600160a01b03167f8c5be1e5ebec7d5bd14f71427d1e84f3dd0314c0f7b2291e5b200ac8c7c3b92560405160405180910390a45050565b60007fa9214cc96615e0085d3bb077758db69497dc2dce3b2b1e97bc93c3d18d83efd3826001600160a01b0316637730599e6040518163ffffffff1660e01b8152600401602060405180830381865afa158015610e1b573d6000803e3d6000fd5b505050506040513d601f19601f82011682018060405250810190610e3f919061213e565b1492915050565b606082828080601f0160208091040260200160405190810160405280939291908181526020018383808284376000920182905250600954600a5460405163e8e7e2d160e01b81526001600160a01b03918216600482015230602482015296975091959116935063e8e7e2d192506044019050602060405180830381865afa158015610ed5573d6000803e3d6000fd5b505050506040513d601f19601f82011682018060405250810190610ef99190612157565b600954600a54600b54604051631cd43d1160e31b81526001600160a01b039283166004820152306024820152908216604482015292935060009291169063e6a1e88890606401608060405180830381865afa158015610f5c573d6000803e3d6000fd5b505050506040513d601f19601f82011682018060405250810190610f809190611f97565b505091505060008183610f939190612188565b9050600b81900b610fc857600b54600a54610fc191600691879130916001600160a01b0391821691166114c2565b9350611019565b600b82900b15610ff457600b54600a54610fc19160069187916001600160a01b039081169116856115a6565b600b54600a546110169160069187916001600160a01b0390811691168561160f565b93505b50505092915050565b6000818152600260205260408120546001600160a01b031661109b5760405162461bcd60e51b815260206004820152602c60248201527f4552433732313a206f70657261746f7220717565727920666f72206e6f6e657860448201526b34b9ba32b73a103a37b5b2b760a11b60648201526084016104ce565b60006110a68361098d565b9050806001600160a01b0316846001600160a01b031614806110e15750836001600160a01b03166110d684610459565b6001600160a01b0316145b8061111157506001600160a01b0380821660009081526005602090815260408083209388168352929052205460ff165b949350505050565b826001600160a01b031661112c8261098d565b6001600160a01b0316146111905760405162461bcd60e51b815260206004820152602560248201527f4552433732313a207472616e736665722066726f6d20696e636f72726563742060448201526437bbb732b960d91b60648201526084016104ce565b6001600160a01b0382166111f25760405162461bcd60e51b8152602060048201526024808201527f4552433732313a207472616e7366657220746f20746865207a65726f206164646044820152637265737360e01b60648201526084016104ce565b6111fd83838361163e565b611208600082610d4c565b6001600160a01b03831660009081526003602052604081208054600192906112319084906121e1565b90915550506001600160a01b038216600090815260036020526040812080546001929061125f9084906121f8565b909155505060008181526002602052604080822080546001600160a01b0319166001600160a01b0386811691821790925591518493918716917fddf252ad1be2c89b69c2b068fc378daa952ba7f163c4a11628f55a4df523b3ef91a4505050565b816001600160a01b0316836001600160a01b0316036113215760405162461bcd60e51b815260206004820152601960248201527f4552433732313a20617070726f766520746f2063616c6c65720000000000000060448201526064016104ce565b6001600160a01b03838116600081815260056020908152604080832094871680845294825291829020805460ff191686151590811790915591519182527f17307eab39ab6107e8899845ad3d59bd9653f200f220920489ca2b5937696c31910160405180910390a3505050565b611399848484611119565b6113a584848484611647565b610b3e5760405162461bcd60e51b81526004016104ce90612210565b6060816000036113e85750506040805180820190915260018152600360fc1b602082015290565b8160005b811561141257806113fc81612262565b915061140b9050600a83612291565b91506113ec565b60008167ffffffffffffffff81111561142d5761142d611d67565b6040519080825280601f01601f191660200182016040528015611457576020820181803683370190505b5090505b84156111115761146c6001836121e1565b9150611479600a866122a5565b6114849060306121f8565b60f81b818381518110611499576114996122b9565b60200101906001600160f81b031916908160001a9053506114bb600a86612291565b945061145b565b845460018601546040805160008152602081019091526060926001600160a01b0390811692634329d29392911690635a5999e360e11b9061150c9087908a908a9060448101612002565b60408051601f198184030181529181526020820180516001600160e01b03166001600160e01b03199485161790525160e085901b909216825261155492918a906004016122cf565b6000604051808303816000875af1158015611573573d6000803e3d6000fd5b505050506040513d6000823e601f3d908101601f1916820160405261159b9190810190612328565b509695505050505050565b845460018601546060916001600160a01b0390811691634329d29391166328104d3160e11b86888760005b6040519080825280601f01601f1916602001820160405280156115fb576020820181803683370190505b5060405160240161150c9493929190612108565b845460018601546060916001600160a01b0390811691634329d293911663317e182f60e11b86888760006115d1565b61060382611748565b60006001600160a01b0384163b1561173d57604051630a85bd0160e11b81526001600160a01b0385169063150b7a029061168b90339089908890889060040161238c565b6020604051808303816000875af19250505080156116c6575060408051601f3d908101601f191682019092526116c3918101906123bf565b60015b611723573d8080156116f4576040519150601f19603f3d011682016040523d82523d6000602084013e6116f9565b606091505b50805160000361171b5760405162461bcd60e51b81526004016104ce90612210565b805181602001fd5b6001600160e01b031916630a85bd0160e11b149050611111565b506001949350505050565b6001600160a01b03811661179e5760405162461bcd60e51b815260206004820152601c60248201527f4e6577207265636569766572206973207a65726f20616464726573730000000060448201526064016104ce565b600854604051631e51d6a760e11b81526001600160a01b03838116600483015290911690633ca3ad4e90602401602060405180830381865afa1580156117e8573d6000803e3d6000fd5b505050506040513d601f19601f8201168201806040525081019061180c91906123dc565b156118645760405162461bcd60e51b815260206004820152602260248201527f4e65772072656365697665722063616e206e6f74206265206120737570657241604482015261070760f41b60648201526084016104ce565b600b546001600160a01b039081169082160361187d5750565b600954600a54600b54604051631cd43d1160e31b81526001600160a01b0392831660048201523060248201529082166044820152600092919091169063e6a1e88890606401608060405180830381865afa1580156118df573d6000803e3d6000fd5b505050506040513d601f19601f820116820180604052508101906119039190611f97565b5050915050600081600b0b13156119bf57600b54600a546119359160069130916001600160a01b039081169116610c2c565b600a5460095460405163e8e7e2d160e01b81526001600160a01b03928316600482018190523060248301526119bf938693919291169063e8e7e2d190604401602060405180830381865afa158015611991573d6000803e3d6000fd5b505050506040513d601f19601f820116820180604052508101906119b59190612157565b6006929190610d06565b600b80546001600160a01b0319166001600160a01b0384169081179091556040519081527f7dfb1d59db37a3fd2e15e796c189dcab714cdbb18650d68a1de58f8fa60718c99060200160405180910390a15050565b6001600160e01b031981168114611a2a57600080fd5b50565b600060208284031215611a3f57600080fd5b8135610c2581611a14565b60005b83811015611a65578181015183820152602001611a4d565b83811115610b3e5750506000910152565b60008151808452611a8e816020860160208601611a4a565b601f01601f19169290920160200192915050565b602081526000610c256020830184611a76565b600060208284031215611ac757600080fd5b5035919050565b6001600160a01b0381168114611a2a57600080fd5b60008060408385031215611af657600080fd5b8235611b0181611ace565b946020939093013593505050565b60008083601f840112611b2157600080fd5b50813567ffffffffffffffff811115611b3957600080fd5b602083019150836020828501011115611b5157600080fd5b9250929050565b600080600080600080600080600060c08a8c031215611b7657600080fd5b8935611b8181611ace565b985060208a0135611b9181611ace565b975060408a0135965060608a013567ffffffffffffffff80821115611bb557600080fd5b611bc18d838e01611b0f565b909850965060808c0135915080821115611bda57600080fd5b611be68d838e01611b0f565b909650945060a08c0135915080821115611bff57600080fd5b50611c0c8c828d01611b0f565b915080935050809150509295985092959850929598565b600080600060608486031215611c3857600080fd5b8335611c4381611ace565b92506020840135611c5381611ace565b929592945050506040919091013590565b600080600080600080600060a0888a031215611c7f57600080fd5b8735611c8a81611ace565b96506020880135611c9a81611ace565b955060408801359450606088013567ffffffffffffffff80821115611cbe57600080fd5b611cca8b838c01611b0f565b909650945060808a0135915080821115611ce357600080fd5b50611cf08a828b01611b0f565b989b979a50959850939692959293505050565b600060208284031215611d1557600080fd5b8135610c2581611ace565b8015158114611a2a57600080fd5b60008060408385031215611d4157600080fd5b8235611d4c81611ace565b91506020830135611d5c81611d20565b809150509250929050565b634e487b7160e01b600052604160045260246000fd5b604051601f8201601f1916810167ffffffffffffffff81118282101715611da657611da6611d67565b604052919050565b600067ffffffffffffffff821115611dc857611dc8611d67565b50601f01601f191660200190565b60008060008060808587031215611dec57600080fd5b8435611df781611ace565b93506020850135611e0781611ace565b925060408501359150606085013567ffffffffffffffff811115611e2a57600080fd5b8501601f81018713611e3b57600080fd5b8035611e4e611e4982611dae565b611d7d565b818152886020838501011115611e6357600080fd5b8160208401602083013760006020838301015280935050505092959194509250565b60008060408385031215611e9857600080fd5b8235611ea381611ace565b91506020830135611d5c81611ace565b600181811c90821680611ec757607f821691505b602082108103611ee757634e487b7160e01b600052602260045260246000fd5b50919050565b60208082526022908201527f5265646972656374416c6c3a20737570706f7274206f6e6c79206f6e6520686f6040820152611cdd60f21b606082015260800190565b60208082526031908201527f4552433732313a207472616e736665722063616c6c6572206973206e6f74206f6040820152701ddb995c881b9bdc88185c1c1c9bdd9959607a1b606082015260800190565b8051600b81900b8114611f9257600080fd5b919050565b60008060008060808587031215611fad57600080fd5b84519350611fbd60208601611f80565b6040860151606090960151949790965092505050565b60008351611fe5818460208801611a4a565b835190830190611ff9818360208801611a4a565b01949350505050565b6001600160a01b03858116825284811660208301528316604082015260806060820181905260009061203690830184611a76565b9695505050505050565b6001600160a01b038316815260606020820181905260009061206490830184611a76565b8281036040840152612085816002815261060f60f31b602082015260400190565b95945050505050565b600082601f83011261209f57600080fd5b81516120ad611e4982611dae565b8181528460208386010111156120c257600080fd5b611111826020830160208701611a4a565b6000602082840312156120e557600080fd5b815167ffffffffffffffff8111156120fc57600080fd5b6111118482850161208e565b6001600160a01b03858116825284166020820152600b83900b604082015260806060820181905260009061203690830184611a76565b60006020828403121561215057600080fd5b5051919050565b60006020828403121561216957600080fd5b610c2582611f80565b634e487b7160e01b600052601160045260246000fd5b600081600b0b83600b0b60008212826b7fffffffffffffffffffffff038213811516156121b7576121b7612172565b826b7fffffffffffffffffffffff190382128116156121d8576121d8612172565b50019392505050565b6000828210156121f3576121f3612172565b500390565b6000821982111561220b5761220b612172565b500190565b60208082526032908201527f4552433732313a207472616e7366657220746f206e6f6e20455243373231526560408201527131b2b4bb32b91034b6b83632b6b2b73a32b960711b606082015260800190565b60006001820161227457612274612172565b5060010190565b634e487b7160e01b600052601260045260246000fd5b6000826122a0576122a061227b565b500490565b6000826122b4576122b461227b565b500690565b634e487b7160e01b600052603260045260246000fd5b6001600160a01b03841681526080602082018190526000906122f390830185611a76565b8281036040840152612314816002815261060f60f31b602082015260400190565b905082810360608401526120368185611a76565b6000806040838503121561233b57600080fd5b825167ffffffffffffffff8082111561235357600080fd5b61235f8683870161208e565b9350602085015191508082111561237557600080fd5b506123828582860161208e565b9150509250929050565b6001600160a01b038581168252841660208201526040810183905260806060820181905260009061203690830184611a76565b6000602082840312156123d157600080fd5b8151610c2581611a14565b6000602082840312156123ee57600080fd5b8151610c2581611d2056fea2646970667358221220900f4c3f2ff15a9c4ca6f795e5e32bf83f6338bb00d573f49ee1b046745c345364736f6c634300080d0033",
  "linkReferences": {},
  "deployedLinkReferences": {}
}