{
  "address": "0x1F9755685d9415Cd55E5b753F468AF0b1abAc688",
  "abi": [
    {
      "inputs": [
        {
          "internalType": "contract ISuperfluid",
          "name": "host",
          "type": "address"
        },
        {
          "internalType": "contract ISuperToken",
          "name": "acceptedToken",
          "type": "address"
        }
      ],
      "stateMutability": "nonpayable",
      "type": "constructor"
    },
    {
      "anonymous": false,
      "inputs": [
        {
          "indexed": false,
          "internalType": "address",
          "name": "_from",
          "type": "address"
        },
        {
          "indexed": false,
          "internalType": "int96",
          "name": "_flowrate1",
          "type": "int96"
        },
        {
          "indexed": false,
          "internalType": "int96",
          "name": "_flowrate2",
          "type": "int96"
        }
      ],
      "name": "Flow",
      "type": "event"
    },
    {
      "anonymous": false,
      "inputs": [
        {
          "indexed": true,
          "internalType": "address",
          "name": "previousOwner",
          "type": "address"
        },
        {
          "indexed": true,
          "internalType": "address",
          "name": "newOwner",
          "type": "address"
        }
      ],
      "name": "OwnershipTransferred",
      "type": "event"
    },
    {
      "inputs": [
        {
          "internalType": "address",
          "name": "charity",
          "type": "address"
        }
      ],
      "name": "addCharity",
      "outputs": [],
      "stateMutability": "nonpayable",
      "type": "function"
    },
    {
      "inputs": [
        {
          "internalType": "contract ISuperToken",
          "name": "_superToken",
          "type": "address"
        },
        {
          "internalType": "address",
          "name": "_agreementClass",
          "type": "address"
        },
        {
          "internalType": "bytes32",
          "name": "",
          "type": "bytes32"
        },
        {
          "internalType": "bytes",
          "name": "",
          "type": "bytes"
        },
        {
          "internalType": "bytes",
          "name": "_cbdata",
          "type": "bytes"
        },
        {
          "internalType": "bytes",
          "name": "_ctx",
          "type": "bytes"
        }
      ],
      "name": "afterAgreementCreated",
      "outputs": [
        {
          "internalType": "bytes",
          "name": "newCtx",
          "type": "bytes"
        }
      ],
      "stateMutability": "nonpayable",
      "type": "function"
    },
    {
      "inputs": [
        {
          "internalType": "contract ISuperToken",
          "name": "",
          "type": "address"
        },
        {
          "internalType": "address",
          "name": "",
          "type": "address"
        },
        {
          "internalType": "bytes32",
          "name": "",
          "type": "bytes32"
        },
        {
          "internalType": "bytes",
          "name": "",
          "type": "bytes"
        },
        {
          "internalType": "bytes",
          "name": "_cbdata",
          "type": "bytes"
        },
        {
          "internalType": "bytes",
          "name": "_ctx",
          "type": "bytes"
        }
      ],
      "name": "afterAgreementTerminated",
      "outputs": [
        {
          "internalType": "bytes",
          "name": "newCtx",
          "type": "bytes"
        }
      ],
      "stateMutability": "nonpayable",
      "type": "function"
    },
    {
      "inputs": [
        {
          "internalType": "contract ISuperToken",
          "name": "_superToken",
          "type": "address"
        },
        {
          "internalType": "address",
          "name": "_agreementClass",
          "type": "address"
        },
        {
          "internalType": "bytes32",
          "name": "",
          "type": "bytes32"
        },
        {
          "internalType": "bytes",
          "name": "",
          "type": "bytes"
        },
        {
          "internalType": "bytes",
          "name": "_cbdata",
          "type": "bytes"
        },
        {
          "internalType": "bytes",
          "name": "_ctx",
          "type": "bytes"
        }
      ],
      "name": "afterAgreementUpdated",
      "outputs": [
        {
          "internalType": "bytes",
          "name": "newCtx",
          "type": "bytes"
        }
      ],
      "stateMutability": "nonpayable",
      "type": "function"
    },
    {
      "inputs": [
        {
          "internalType": "contract ISuperToken",
          "name": "_superToken",
          "type": "address"
        },
        {
          "internalType": "address",
          "name": "_agreementClass",
          "type": "address"
        },
        {
          "internalType": "bytes32",
          "name": "",
          "type": "bytes32"
        },
        {
          "internalType": "bytes",
          "name": "",
          "type": "bytes"
        },
        {
          "internalType": "bytes",
          "name": "_ctx",
          "type": "bytes"
        }
      ],
      "name": "beforeAgreementCreated",
      "outputs": [
        {
          "internalType": "bytes",
          "name": "cbdata",
          "type": "bytes"
        }
      ],
      "stateMutability": "view",
      "type": "function"
    },
    {
      "inputs": [
        {
          "internalType": "contract ISuperToken",
          "name": "_superToken",
          "type": "address"
        },
        {
          "internalType": "address",
          "name": "_agreementClass",
          "type": "address"
        },
        {
          "internalType": "bytes32",
          "name": "",
          "type": "bytes32"
        },
        {
          "internalType": "bytes",
          "name": "",
          "type": "bytes"
        },
        {
          "internalType": "bytes",
          "name": "",
          "type": "bytes"
        }
      ],
      "name": "beforeAgreementTerminated",
      "outputs": [
        {
          "internalType": "bytes",
          "name": "cbdata",
          "type": "bytes"
        }
      ],
      "stateMutability": "view",
      "type": "function"
    },
    {
      "inputs": [
        {
          "internalType": "contract ISuperToken",
          "name": "_superToken",
          "type": "address"
        },
        {
          "internalType": "address",
          "name": "_agreementClass",
          "type": "address"
        },
        {
          "internalType": "bytes32",
          "name": "_agreementId",
          "type": "bytes32"
        },
        {
          "internalType": "bytes",
          "name": "",
          "type": "bytes"
        },
        {
          "internalType": "bytes",
          "name": "_ctx",
          "type": "bytes"
        }
      ],
      "name": "beforeAgreementUpdated",
      "outputs": [
        {
          "internalType": "bytes",
          "name": "cbdata",
          "type": "bytes"
        }
      ],
      "stateMutability": "view",
      "type": "function"
    },
    {
      "inputs": [],
      "name": "cfaV1",
      "outputs": [
        {
          "internalType": "contract ISuperfluid",
          "name": "host",
          "type": "address"
        },
        {
          "internalType": "contract IConstantFlowAgreementV1",
          "name": "cfa",
          "type": "address"
        }
      ],
      "stateMutability": "view",
      "type": "function"
    },
    {
      "inputs": [
        {
          "internalType": "address",
          "name": "",
          "type": "address"
        }
      ],
      "name": "charityToFlowRate",
      "outputs": [
        {
          "internalType": "int96",
          "name": "",
          "type": "int96"
        }
      ],
      "stateMutability": "view",
      "type": "function"
    },
    {
      "inputs": [
        {
          "internalType": "address",
          "name": "",
          "type": "address"
        }
      ],
      "name": "charityToRootVotes",
      "outputs": [
        {
          "internalType": "uint128",
          "name": "",
          "type": "uint128"
        }
      ],
      "stateMutability": "view",
      "type": "function"
    },
    {
      "inputs": [],
      "name": "createIndex",
      "outputs": [],
      "stateMutability": "nonpayable",
      "type": "function"
    },
    {
      "inputs": [],
      "name": "distribute",
      "outputs": [],
      "stateMutability": "nonpayable",
      "type": "function"
    },
    {
      "inputs": [],
      "name": "idaV1",
      "outputs": [
        {
          "internalType": "contract ISuperfluid",
          "name": "host",
          "type": "address"
        },
        {
          "internalType": "contract IInstantDistributionAgreementV1",
          "name": "ida",
          "type": "address"
        }
      ],
      "stateMutability": "view",
      "type": "function"
    },
    {
      "inputs": [
        {
          "internalType": "address",
          "name": "",
          "type": "address"
        }
      ],
      "name": "isSubscribing",
      "outputs": [
        {
          "internalType": "bool",
          "name": "",
          "type": "bool"
        }
      ],
      "stateMutability": "view",
      "type": "function"
    },
    {
      "inputs": [],
      "name": "owner",
      "outputs": [
        {
          "internalType": "address",
          "name": "",
          "type": "address"
        }
      ],
      "stateMutability": "view",
      "type": "function"
    },
    {
      "inputs": [
        {
          "internalType": "address",
          "name": "charity",
          "type": "address"
        }
      ],
      "name": "removeCharity",
      "outputs": [],
      "stateMutability": "nonpayable",
      "type": "function"
    },
    {
      "inputs": [],
      "name": "renounceOwnership",
      "outputs": [],
      "stateMutability": "nonpayable",
      "type": "function"
    },
    {
      "inputs": [
        {
          "internalType": "uint128",
          "name": "x",
          "type": "uint128"
        }
      ],
      "name": "sqrt",
      "outputs": [
        {
          "internalType": "uint128",
          "name": "y",
          "type": "uint128"
        }
      ],
      "stateMutability": "pure",
      "type": "function"
    },
    {
      "inputs": [
        {
          "internalType": "address",
          "name": "newOwner",
          "type": "address"
        }
      ],
      "name": "transferOwnership",
      "outputs": [],
      "stateMutability": "nonpayable",
      "type": "function"
    },
    {
      "inputs": [
        {
          "internalType": "address",
          "name": "",
          "type": "address"
        }
      ],
      "name": "userToCharity",
      "outputs": [
        {
          "internalType": "address",
          "name": "",
          "type": "address"
        }
      ],
      "stateMutability": "view",
      "type": "function"
    },
    {
      "inputs": [
        {
          "internalType": "address",
          "name": "",
          "type": "address"
        }
      ],
      "name": "userToFlowRate",
      "outputs": [
        {
          "internalType": "int96",
          "name": "",
          "type": "int96"
        }
      ],
      "stateMutability": "view",
      "type": "function"
    }
  ],
  "transactionHash": "0x595f7974a7304b471b16c2ef937ac907ec489e47faa91d28f31b93c1241563c3",
  "args": [
    "0xEB796bdb90fFA0f28255275e16936D25d3418603",
    "0x5D8B4C2554aeB7e86F387B4d6c00Ac33499Ed01f"
  ],
  "numDeployments": 1,
  "solcInputHash": "eee75481e77bffb9845c3723fa15edd9",
  "bytecode": "0x60806040523480156200001157600080fd5b5060405162003101380380620031018339810160408190526200003491620003dd565b6200003f33620002a2565b6001600160a01b0382166200005857620000586200041c565b6001600160a01b0381166200007157620000716200041c565b600780546001600160a01b0319166001600160a01b038416908117909155604051635b69006f60e11b81527fa9214cc96615e0085d3bb077758db69497dc2dce3b2b1e97bc93c3d18d83efd3600482015263b6d200de90602401602060405180830381865afa158015620000e9573d6000803e3d6000fd5b505050506040513d601f19601f820116820180604052508101906200010f919062000432565b600580546001600160a01b0319166001600160a01b03928316179055604051635b69006f60e11b81527f8aedc3b5d4bf031e11a7e2940f7251c005698405d58e02e1c247fed3b1b3a67460048201529083169063b6d200de90602401602060405180830381865afa15801562000189573d6000803e3d6000fd5b505050506040513d601f19601f82011682018060405250810190620001af919062000432565b600680546001600160a01b03199081166001600160a01b0393841690811790925560088054821685851617905560408051808201825260075485168082526005549095166020918201819052600180548516871781556002805486169092179091558251808401845286815290910184905260038054841686179055600480549093169093178255516315a722b960e31b815290810182905290919063ad3915c890602401600060405180830381600087803b1580156200026f57600080fd5b505af115801562000284573d6000803e3d6000fd5b505050506200029933620002f260201b60201c565b50505062000459565b600080546001600160a01b038381166001600160a01b0319831681178455604051919092169283917f8be0079c531659141344cd1fd0a4f28419497f9722a3daafe3b4186f6b6457e09190a35050565b6000546001600160a01b03163314620003525760405162461bcd60e51b815260206004820181905260248201527f4f776e61626c653a2063616c6c6572206973206e6f7420746865206f776e657260448201526064015b60405180910390fd5b6001600160a01b038116620003b95760405162461bcd60e51b815260206004820152602660248201527f4f776e61626c653a206e6577206f776e657220697320746865207a65726f206160448201526564647265737360d01b606482015260840162000349565b620003c481620002a2565b50565b6001600160a01b0381168114620003c457600080fd5b60008060408385031215620003f157600080fd5b8251620003fe81620003c7565b60208401519092506200041181620003c7565b809150509250929050565b634e487b7160e01b600052600160045260246000fd5b6000602082840312156200044557600080fd5b81516200045281620003c7565b9392505050565b612c9880620004696000396000f3fe608060405234801561001057600080fd5b50600436106101375760003560e01c806378b14f0a116100b8578063cefc81a31161007c578063cefc81a3146102fd578063d3112b2e14610326578063d86ed3e514610340578063e4fc6b6d14610353578063eada8c8b1461035b578063f2fde38b1461038457600080fd5b806378b14f0a1461026c578063884d1f401461027f5780638da5cb5b14610292578063915e3364146102b7578063abefe591146102ea57600080fd5b806332441809116100ff57806332441809146101ee57806344a48d671461021357806353c11f991461023e5780635f9e7d7714610251578063715018a61461026457600080fd5b80630f89f9711461013c5780631cc8ca9914610177578063230dbd29146101b1578063285742f5146101d157806330d9c915146101db575b600080fd5b61015f61014a36600461204d565b600c60205260009081526040902054600b0b81565b604051600b9190910b81526020015b60405180910390f35b600354600454610191916001600160a01b03908116911682565b604080516001600160a01b0393841681529290911660208301520161016e565b6101c46101bf3660046120b3565b610397565b60405161016e91906121d6565b6101d96107fc565b005b6101c46101e93660046121e9565b610842565b61015f6101fc36600461204d565b600b60208190526000918252604090912054900b81565b61022661022136600461229d565b610a52565b6040516001600160801b03909116815260200161016e565b6101c461024c3660046120b3565b610abd565b6101c461025f3660046121e9565b610cd4565b6101d9610d73565b6101d961027a36600461204d565b610da7565b6101c461028d3660046121e9565b610e7a565b6000546001600160a01b03165b6040516001600160a01b03909116815260200161016e565b6102da6102c536600461204d565b60096020526000908152604090205460ff1681565b604051901515815260200161016e565b6101d96102f836600461204d565b61119e565b61022661030b36600461204d565b600d602052600090815260409020546001600160801b031681565b600154600254610191916001600160a01b03908116911682565b6101c461034e3660046120b3565b61122d565b6101d9611457565b61029f61036936600461204d565b600a602052600090815260409020546001600160a01b031681565b6101d961039236600461204d565b6115fd565b606089896103b3826008546001600160a01b0391821691161490565b6103fe5760405162461bcd60e51b815260206004820152601760248201527629a8a31d103737ba1030b1b1b2b83a32b2103a37b5b2b760491b60448201526064015b60405180910390fd5b61040781611698565b80610416575061041681611724565b6104325760405162461bcd60e51b81526004016103f5906122ba565b6007546001600160a01b0316331461045c5760405162461bcd60e51b81526004016103f5906122fc565b6104658b611724565b156104805760408051600081526020810190915292506107ed565b60008080610490898b018b612358565b600554600854604051631cd43d1160e31b81529497509295509093506000926001600160a01b039182169263e6a1e888926104d492911690889030906004016123a3565b608060405180830381865afa1580156104f1573d6000803e3d6000fd5b505050506040513d601f19601f8201168201806040525081019061051591906123c6565b50506001600160a01b038087166000908152600a602052604090205491935090811691508416811461067c5761058281848c8c8080601f01602080910402602001604051908101604052809392919081815260200183838082843760009201919091525061178592505050565b975061058f81848a611893565b975061059c84838a611952565b97506105a984838a611a31565b6001600160a01b038681166000908152600a6020908152604080832080546001600160a01b0319168a86161790559285168252600c905220549098506105f3908490600b0b61241a565b6001600160a01b038281166000908152600c602052604080822080546001600160601b0319166001600160601b03959095169490941790935590861681522054610641908390600b0b61246a565b6001600160a01b0385166000908152600c6020526040902080546001600160601b0319166001600160601b03929092169190911790556107b1565b6000610688848461241a565b9050600081600b0b13156106eb576106d785828d8d8080601f01602080910402602001604051908101604052809392919081815260200183838082843760009201919091525061195292505050565b98506106e485848b611a31565b9850610752565b610737856106fb836000196124b9565b8d8d8080601f01602080910402602001604051908101604052809392919081815260200183838082843760009201919091525061178592505050565b985061074f85610749836000196124b9565b8b611893565b98505b6001600160a01b0385166000908152600c6020526040902054610779908290600b0b61246a565b6001600160a01b0386166000908152600c6020526040902080546001600160601b0319166001600160601b0392909216919091179055505b506001600160a01b03939093166000908152600b6020526040902080546001600160601b0319166001600160601b039094169390931790925550505b50509998505050505050505050565b6000546001600160a01b031633146108265760405162461bcd60e51b81526004016103f590612553565b600854610840906003906001600160a01b03166000611a90565b565b6007546060906001600160a01b0316331461086f5760405162461bcd60e51b81526004016103f5906122fc565b61087887611724565b156108925750604080516000815260208101909152610a47565b600754604051631fb6491d60e11b81526000916001600160a01b031690633f6c923a906108c59087908790600401612588565b600060405180830381865afa1580156108e2573d6000803e3d6000fd5b505050506040513d6000823e601f3d908101601f1916820160405261090a9190810190612698565b905060008160a00151806020019051810190610926919061279f565b6001600160a01b03811660009081526009602052604090205490915060ff1661098c5760405162461bcd60e51b81526020600482015260186024820152775351463a204e6f7420612076616c6964206368617269747960401b60448201526064016103f5565b600754604051631fb6491d60e11b81526000916001600160a01b031690633f6c923a906109bf9089908990600401612588565b600060405180830381865afa1580156109dc573d6000803e3d6000fd5b505050506040513d6000823e601f3d908101601f19168201604052610a049190810190612698565b6060015190508082604051602001610a329291906001600160a01b0392831681529116602082015260400190565b60405160208183030381529060405293505050505b979650505050505050565b6000806002610a628460016127bc565b610a6c91906127e7565b90508291505b816001600160801b0316816001600160801b03161015610ab757905080600281610a9c81866127e7565b610aa691906127bc565b610ab091906127e7565b9050610a72565b50919050565b6007546060906001600160a01b03163314610aea5760405162461bcd60e51b81526004016103f5906122fc565b6000610af88587018761281b565b90508015610b405783838080601f016020809104026020016040519081016040528093929190818152602001838380828437600092019190915250929450610cc79350505050565b600754604051631fb6491d60e11b81526000916001600160a01b031690633f6c923a90610b739088908890600401612588565b600060405180830381865afa158015610b90573d6000803e3d6000fd5b505050506040513d6000823e601f3d908101601f19168201604052610bb89190810190612698565b606001516001600160a01b038082166000908152600a6020908152604080832054600b80845293829020548251601f8c018590048502810185019093528a83529596509093169390910b91610c2b91849184918b908b908190840183828082843760009201919091525061178592505050565b9450610c38828287611893565b6001600160a01b0383166000908152600c6020526040902054909550610c62908290600b0b61241a565b6001600160a01b039283166000908152600c6020908152604080832080546001600160601b03959095166001600160601b0319958616179055959094168152600b84528481208054909216909155600a909252502080546001600160a01b0319169055505b9998505050505050505050565b6007546060906001600160a01b03163314610d015760405162461bcd60e51b81526004016103f5906122fc565b6008546001600160a01b038981169116141580610d245750610d2287611698565b155b15610d4b576040805160016020820152016040516020818303038152906040529050610a47565b6040805160006020820152016040516020818303038152906040529050979650505050505050565b6000546001600160a01b03163314610d9d5760405162461bcd60e51b81526004016103f590612553565b6108406000611ab3565b6000546001600160a01b03163314610dd15760405162461bcd60e51b81526004016103f590612553565b6001600160a01b03811660009081526009602052604090205460ff1615610e3a5760405162461bcd60e51b815260206004820152601a60248201527f5351463a204368617269747920616c726561647920616464656400000000000060448201526064016103f5565b60408051600080825260208201909252610e55918391611b03565b506001600160a01b03166000908152600960205260409020805460ff19166001179055565b6007546060906001600160a01b03163314610ea75760405162461bcd60e51b81526004016103f5906122fc565b8787610ec1826008546001600160a01b0391821691161490565b610f075760405162461bcd60e51b815260206004820152601760248201527629a8a31d103737ba1030b1b1b2b83a32b2103a37b5b2b760491b60448201526064016103f5565b610f1081611698565b80610f1f5750610f1f81611724565b610f3b5760405162461bcd60e51b81526004016103f5906122ba565b610f4489611724565b15610f5f576040805160008152602081019091529250611191565b600754604051631fb6491d60e11b81526000916001600160a01b031690633f6c923a90610f929089908990600401612588565b600060405180830381865afa158015610faf573d6000803e3d6000fd5b505050506040513d6000823e601f3d908101601f19168201604052610fd79190810190612698565b905060008160a00151806020019051810190610ff3919061279f565b6001600160a01b03811660009081526009602052604090205490915060ff166110595760405162461bcd60e51b81526020600482015260186024820152775351463a204e6f7420612076616c6964206368617269747960401b60448201526064016103f5565b600854604051631557a4cd60e31b81526001600160a01b039182166004820152602481018c90526000918d169063aabd266890604401608060405180830381865afa1580156110ac573d6000803e3d6000fd5b505050506040513d601f19601f820116820180604052508101906110d091906123c6565b5050600754604051631fb6491d60e11b8152919350600092506001600160a01b031690633f6c923a90611109908c908c90600401612588565b600060405180830381865afa158015611126573d6000803e3d6000fd5b505050506040513d6000823e601f3d908101601f1916820160405261114e9190810190612698565b606090810151604080516001600160a01b0392831660208201529590911685820152600b9390930b84820152825180850390910181526080909301909152509350505b5050979650505050505050565b6001600160a01b038116600090815260096020526040902054819060ff166111c557600080fd5b6000546001600160a01b031633146111ef5760405162461bcd60e51b81526004016103f590612553565b60085461120b90600190309085906001600160a01b0316611b2c565b506001600160a01b03166000908152600960205260409020805460ff19169055565b6007546060906001600160a01b0316331461125a5760405162461bcd60e51b81526004016103f5906122fc565b61126389611724565b1561127d5750604080516000815260208101909152610cc7565b60008061128c8688018861283d565b600554600854604051631cd43d1160e31b81529395509193506000926001600160a01b039182169263e6a1e888926112cd92911690879030906004016123a3565b608060405180830381865afa1580156112ea573d6000803e3d6000fd5b505050506040513d601f19601f8201168201806040525081019061130e91906123c6565b5050915050600081600b0b136113665760405162461bcd60e51b815260206004820152601c60248201527f535146203a2053747265616d20776173206e6f7420637265617465640000000060448201526064016103f5565b6113a7828288888080601f01602080910402602001604051908101604052809392919081815260200183838082843760009201919091525061195292505050565b93506113b4828286611a31565b6001600160a01b0383166000908152600c60205260409020549094506113de908290600b0b61246a565b6001600160a01b039283166000818152600c6020908152604080832080546001600160601b03199081166001600160601b0397881617909155979096168252600b815285822080549097169490931693909317909455600a90522080546001600160a01b03191690911790559998505050505050505050565b6000546001600160a01b031633146114815760405162461bcd60e51b81526004016103f590612553565b600854604051633acd4df360e21b81523060048201524260248201526000916001600160a01b03169063eb3537cc90604401606060405180830381865afa1580156114d0573d6000803e3d6000fd5b505050506040513d601f19601f820116820180604052508101906114f49190612876565b50509050600081136115525760405162461bcd60e51b815260206004820152602160248201527f5351463a20596f75206e656564204d6f6e657920746f206469737472696275746044820152606560f81b60648201526084016103f5565b600654600854604051632266eabb60e21b81526001600160a01b0391821660048201523060248201526000604482018190526064820185905292919091169063899baaec906084016040805180830381865afa1580156115b6573d6000803e3d6000fd5b505050506040513d601f19601f820116820180604052508101906115da91906128a4565b506008549091506115f9906003906001600160a01b0316600084611c06565b5050565b6000546001600160a01b031633146116275760405162461bcd60e51b81526004016103f590612553565b6001600160a01b03811661168c5760405162461bcd60e51b815260206004820152602660248201527f4f776e61626c653a206e6577206f776e657220697320746865207a65726f206160448201526564647265737360d01b60648201526084016103f5565b61169581611ab3565b50565b60007fa9214cc96615e0085d3bb077758db69497dc2dce3b2b1e97bc93c3d18d83efd3826001600160a01b0316637730599e6040518163ffffffff1660e01b8152600401602060405180830381865afa1580156116f9573d6000803e3d6000fd5b505050506040513d601f19601f8201168201806040525081019061171d91906128c9565b1492915050565b60007f8aedc3b5d4bf031e11a7e2940f7251c005698405d58e02e1c247fed3b1b3a674826001600160a01b0316637730599e6040518163ffffffff1660e01b8152600401602060405180830381865afa1580156116f9573d6000803e3d6000fd5b6060306001600160a01b0385160361179e57508061188c565b600554600854604051631cd43d1160e31b81526000926001600160a01b039081169263e6a1e888926117da929091169030908a906004016123a3565b608060405180830381865afa1580156117f7573d6000803e3d6000fd5b505050506040513d601f19601f8201168201806040525081019061181b91906123c6565b505091505083600b0b81600b0b036118535760085461184b906001908590309089906001600160a01b0316611c2c565b91505061188c565b83600b0b81600b0b131561188a5760085461184b90849087906001600160a01b031661187f888661241a565b600193929190611d10565b505b9392505050565b6060600083600b0b136118b85760405162461bcd60e51b81526004016103f5906128e2565b600b83900b6118c681610a52565b6001600160a01b0386166000908152600d60205260409020546118f291906001600160801b0316612937565b6001600160a01b0386166000908152600d6020526040812080546fffffffffffffffffffffffffffffffff19166001600160801b039390931692831790559061193b908061295f565b9050611948868286611b03565b9695505050505050565b60606001600160a01b03841661196957508061188c565b600554600854604051631cd43d1160e31b81526000926001600160a01b039081169263e6a1e888926119a5929091169030908a906004016123a3565b608060405180830381865afa1580156119c2573d6000803e3d6000fd5b505050506040513d601f19601f820116820180604052508101906119e691906123c6565b505091505080600b0b600003611a135760085461184b90600190859088906001600160a01b031688611d79565b60085461184b90849087906001600160a01b031661187f888661246a565b6060600083600b0b13611a565760405162461bcd60e51b81526004016103f5906128e2565b600b83900b611a6481610a52565b6001600160a01b0386166000908152600d60205260409020546118f291906001600160801b03166127bc565b604080516000815260208101909152611aae90849084908490611da8565b505050565b600080546001600160a01b038381166001600160a01b0319831681178455604051919092169283917f8be0079c531659141344cd1fd0a4f28419497f9722a3daafe3b4186f6b6457e09190a35050565b600854606090611b249060039084906001600160a01b031660008888611e34565b949350505050565b835460018501546040805160008152602081019091526001600160a01b03928316926339255d5b921690635a5999e360e11b90611b72908690899089906044810161298e565b60408051601f198184030181529181526020820180516001600160e01b03166001600160e01b03199485161790525160e085901b9092168252611bb892916004016129c2565b6000604051808303816000875af1158015611bd7573d6000803e3d6000fd5b505050506040513d6000823e601f3d908101601f19168201604052611bff9190810190612a10565b5050505050565b604080516000815260208101909152611c26908590859085908590611e71565b50505050565b845460018601546040805160008152602081019091526060926001600160a01b0390811692634329d29392911690635a5999e360e11b90611c769087908a908a906044810161298e565b60408051601f198184030181529181526020820180516001600160e01b03166001600160e01b03199485161790525160e085901b9092168252611cbe92918a90600401612a45565b6000604051808303816000875af1158015611cdd573d6000803e3d6000fd5b505050506040513d6000823e601f3d908101601f19168201604052611d059190810190612a9e565b509695505050505050565b845460018601546060916001600160a01b0390811691634329d29391166328104d3160e11b86888760005b6040519080825280601f01601f191660200182016040528015611d65576020820181803683370190505b50604051602401611c769493929190612b02565b845460018601546060916001600160a01b0390811691634329d293911663317e182f60e11b8688876000611d3b565b835460018501546040805160008152602081019091526001600160a01b03928316926339255d5b921690636bc3c20560e11b90611dec908890889060448101612b38565b60408051601f198184030181529181526020820180516001600160e01b03166001600160e01b03199485161790525160e085901b9092168252611bb892918690600401612b68565b6060610a4787878787878760006040519080825280601f01601f191660200182016040528015611e6b576020820181803683370190505b50611f4e565b845460018601546040805160008152602081019091526001600160a01b03928316926339255d5b921690635cb398e160e11b90611eb79089908990899060448101612b9e565b60408051601f198184030181529181526020820180516001600160e01b03166001600160e01b03199485161790525160e085901b9092168252611eff92918690600401612b68565b6000604051808303816000875af1158015611f1e573d6000803e3d6000fd5b505050506040513d6000823e601f3d908101601f19168201604052611f469190810190612a10565b505050505050565b865460018801546040805160008152602081019091526060926001600160a01b0390811692634329d29392911690630465a56b60e31b90611f9a908b908b908b908b9060448101612bd1565b60408051601f198184030181529181526020820180516001600160e01b03166001600160e01b03199485161790525160e085901b9092168252611fe4929187908d90600401612c18565b6000604051808303816000875af1158015612003573d6000803e3d6000fd5b505050506040513d6000823e601f3d908101601f1916820160405261202b9190810190612a9e565b5098975050505050505050565b6001600160a01b038116811461169557600080fd5b60006020828403121561205f57600080fd5b813561188c81612038565b60008083601f84011261207c57600080fd5b50813567ffffffffffffffff81111561209457600080fd5b6020830191508360208285010111156120ac57600080fd5b9250929050565b600080600080600080600080600060c08a8c0312156120d157600080fd5b89356120dc81612038565b985060208a01356120ec81612038565b975060408a0135965060608a013567ffffffffffffffff8082111561211057600080fd5b61211c8d838e0161206a565b909850965060808c013591508082111561213557600080fd5b6121418d838e0161206a565b909650945060a08c013591508082111561215a57600080fd5b506121678c828d0161206a565b915080935050809150509295985092959850929598565b60005b83811015612199578181015183820152602001612181565b83811115611c265750506000910152565b600081518084526121c281602086016020860161217e565b601f01601f19169290920160200192915050565b60208152600061188c60208301846121aa565b600080600080600080600060a0888a03121561220457600080fd5b873561220f81612038565b9650602088013561221f81612038565b955060408801359450606088013567ffffffffffffffff8082111561224357600080fd5b61224f8b838c0161206a565b909650945060808a013591508082111561226857600080fd5b506122758a828b0161206a565b989b979a50959850939692959293505050565b6001600160801b038116811461169557600080fd5b6000602082840312156122af57600080fd5b813561188c81612288565b60208082526022908201527f5351463a206f6e6c79204346417631206f7220494441763120737570706f7274604082015261195960f21b606082015260800190565b6020808252601a908201527f5351463a20737570706f7274206f6e6c79206f6e6520686f7374000000000000604082015260600190565b634e487b7160e01b600052604160045260246000fd5b80600b0b811461169557600080fd5b60008060006060848603121561236d57600080fd5b833561237881612038565b9250602084013561238881612038565b9150604084013561239881612349565b809150509250925092565b6001600160a01b0393841681529183166020830152909116604082015260600190565b600080600080608085870312156123dc57600080fd5b8451935060208501516123ee81612349565b6040860151606090960151949790965092505050565b634e487b7160e01b600052601160045260246000fd5b600081600b0b83600b0b600081128160016001605f1b03190183128115161561244557612445612404565b8160016001605f1b0301831381161561246057612460612404565b5090039392505050565b600081600b0b83600b0b600082128260016001605f1b030382138115161561249457612494612404565b8260016001605f1b03190382128116156124b0576124b0612404565b50019392505050565b600081600b0b83600b0b60016001605f1b036000821360008413838304851182821616156124e9576124e9612404565b6b7fffffffffffffffffffffff19600085128281168783058712161561251157612511612404565b6000871292508582058712848416161561252d5761252d612404565b8585058712818416161561254357612543612404565b5050509290910295945050505050565b6020808252818101527f4f776e61626c653a2063616c6c6572206973206e6f7420746865206f776e6572604082015260600190565b60208152816020820152818360408301376000818301604090810191909152601f909201601f19160101919050565b604051610160810167ffffffffffffffff811182821017156125db576125db612333565b60405290565b805160ff811681146125f257600080fd5b919050565b80516125f281612038565b80516001600160e01b0319811681146125f257600080fd5b600082601f83011261262b57600080fd5b815167ffffffffffffffff8082111561264657612646612333565b604051601f8301601f19908116603f0116810190828211818310171561266e5761266e612333565b8160405283815286602085880101111561268757600080fd5b61194884602083016020890161217e565b6000602082840312156126aa57600080fd5b815167ffffffffffffffff808211156126c257600080fd5b9083019061016082860312156126d757600080fd5b6126df6125b7565b6126e8836125e1565b81526126f6602084016125e1565b602082015260408301516040820152612711606084016125f7565b606082015261272260808401612602565b608082015260a08301518281111561273957600080fd5b6127458782860161261a565b60a08301525060c083015160c082015260e083015160e082015261010091508183015182820152610120915061277c8284016125f7565b8282015261014091506127908284016125f7565b91810191909152949350505050565b6000602082840312156127b157600080fd5b815161188c81612038565b60006001600160801b038083168185168083038211156127de576127de612404565b01949350505050565b60006001600160801b038084168061280f57634e487b7160e01b600052601260045260246000fd5b92169190910492915050565b60006020828403121561282d57600080fd5b8135801515811461188c57600080fd5b6000806040838503121561285057600080fd5b823561285b81612038565b9150602083013561286b81612038565b809150509250929050565b60008060006060848603121561288b57600080fd5b8351925060208401519150604084015190509250925092565b600080604083850312156128b757600080fd5b82519150602083015161286b81612288565b6000602082840312156128db57600080fd5b5051919050565b60208082526035908201527f5351463a2063616e6e6f742074616b65207468652073717561726520726f6f746040820152741037b31030903732b3b0ba34bb3290373ab6b132b960591b606082015260800190565b60006001600160801b038381169083168181101561295757612957612404565b039392505050565b60006001600160801b038083168185168183048111821515161561298557612985612404565b02949350505050565b6001600160a01b038581168252848116602083015283166040820152608060608201819052600090611948908301846121aa565b6001600160a01b03831681526060602082018190526000906129e6908301846121aa565b8281036040840152612a07816002815261060f60f31b602082015260400190565b95945050505050565b600060208284031215612a2257600080fd5b815167ffffffffffffffff811115612a3957600080fd5b611b248482850161261a565b6001600160a01b0384168152608060208201819052600090612a69908301856121aa565b8281036040840152612a8a816002815261060f60f31b602082015260400190565b9050828103606084015261194881856121aa565b60008060408385031215612ab157600080fd5b825167ffffffffffffffff80821115612ac957600080fd5b612ad58683870161261a565b93506020850151915080821115612aeb57600080fd5b50612af88582860161261a565b9150509250929050565b6001600160a01b03858116825284166020820152600b83900b6040820152608060608201819052600090611948908301846121aa565b6001600160a01b038416815263ffffffff83166020820152606060408201819052600090612a07908301846121aa565b6001600160a01b0384168152606060208201819052600090612b8c908301856121aa565b828103604084015261194881856121aa565b60018060a01b038516815263ffffffff8416602082015282604082015260806060820152600061194860808301846121aa565b6001600160a01b03868116825263ffffffff86166020830152841660408201526001600160801b038316606082015260a060808201819052600090610a47908301846121aa565b6001600160a01b0385168152608060208201819052600090612c3c908301866121aa565b8281036040840152612c4e81866121aa565b90508281036060840152610a4781856121aa56fea2646970667358221220671a24fc15212569aa74617fa4376a5fb5a44a54f760bacbf67050d99cc761a764736f6c634300080d0033",
  "devdoc": {
    "kind": "dev",
    "methods": {
      "distribute()": {
        "details": "Distribute `amount` of cash among all token holders"
      },
      "owner()": {
        "details": "Returns the address of the current owner."
      },
      "renounceOwnership()": {
        "details": "Leaves the contract without owner. It will not be possible to call `onlyOwner` functions anymore. Can only be called by the current owner. NOTE: Renouncing ownership will leave the contract without an owner, thereby removing any functionality that is only available to the owner."
      },
      "transferOwnership(address)": {
        "details": "Transfers ownership of the contract to a new account (`newOwner`). Can only be called by the current owner."
      }
    },
    "version": 1
  },
  "userdoc": {
    "kind": "user",
    "methods": {},
    "version": 1
  },
  "storageLayout": {
    "storage": [
      {
        "astId": 7,
        "contract": "contracts/SuperQuadraticFunding.sol:SuperQuadraticFunding",
        "label": "_owner",
        "offset": 0,
        "slot": "0",
        "type": "t_address"
      },
      {
        "astId": 5202,
        "contract": "contracts/SuperQuadraticFunding.sol:SuperQuadraticFunding",
        "label": "cfaV1",
        "offset": 0,
        "slot": "1",
        "type": "t_struct(InitData)378_storage"
      },
      {
        "astId": 5205,
        "contract": "contracts/SuperQuadraticFunding.sol:SuperQuadraticFunding",
        "label": "idaV1",
        "offset": 0,
        "slot": "3",
        "type": "t_struct(InitData)1215_storage"
      },
      {
        "astId": 5208,
        "contract": "contracts/SuperQuadraticFunding.sol:SuperQuadraticFunding",
        "label": "_cfa",
        "offset": 0,
        "slot": "5",
        "type": "t_contract(IConstantFlowAgreementV1)2899"
      },
      {
        "astId": 5211,
        "contract": "contracts/SuperQuadraticFunding.sol:SuperQuadraticFunding",
        "label": "_ida",
        "offset": 0,
        "slot": "6",
        "type": "t_contract(IInstantDistributionAgreementV1)3287"
      },
      {
        "astId": 5217,
        "contract": "contracts/SuperQuadraticFunding.sol:SuperQuadraticFunding",
        "label": "_host",
        "offset": 0,
        "slot": "7",
        "type": "t_contract(ISuperfluid)4736"
      },
      {
        "astId": 5220,
        "contract": "contracts/SuperQuadraticFunding.sol:SuperQuadraticFunding",
        "label": "_acceptedToken",
        "offset": 0,
        "slot": "8",
        "type": "t_contract(ISuperToken)4180"
      },
      {
        "astId": 5224,
        "contract": "contracts/SuperQuadraticFunding.sol:SuperQuadraticFunding",
        "label": "isSubscribing",
        "offset": 0,
        "slot": "9",
        "type": "t_mapping(t_address,t_bool)"
      },
      {
        "astId": 5228,
        "contract": "contracts/SuperQuadraticFunding.sol:SuperQuadraticFunding",
        "label": "userToCharity",
        "offset": 0,
        "slot": "10",
        "type": "t_mapping(t_address,t_address)"
      },
      {
        "astId": 5232,
        "contract": "contracts/SuperQuadraticFunding.sol:SuperQuadraticFunding",
        "label": "userToFlowRate",
        "offset": 0,
        "slot": "11",
        "type": "t_mapping(t_address,t_int96)"
      },
      {
        "astId": 5236,
        "contract": "contracts/SuperQuadraticFunding.sol:SuperQuadraticFunding",
        "label": "charityToFlowRate",
        "offset": 0,
        "slot": "12",
        "type": "t_mapping(t_address,t_int96)"
      },
      {
        "astId": 5240,
        "contract": "contracts/SuperQuadraticFunding.sol:SuperQuadraticFunding",
        "label": "charityToRootVotes",
        "offset": 0,
        "slot": "13",
        "type": "t_mapping(t_address,t_uint128)"
      }
    ],
    "types": {
      "t_address": {
        "encoding": "inplace",
        "label": "address",
        "numberOfBytes": "20"
      },
      "t_bool": {
        "encoding": "inplace",
        "label": "bool",
        "numberOfBytes": "1"
      },
      "t_contract(IConstantFlowAgreementV1)2899": {
        "encoding": "inplace",
        "label": "contract IConstantFlowAgreementV1",
        "numberOfBytes": "20"
      },
      "t_contract(IInstantDistributionAgreementV1)3287": {
        "encoding": "inplace",
        "label": "contract IInstantDistributionAgreementV1",
        "numberOfBytes": "20"
      },
      "t_contract(ISuperToken)4180": {
        "encoding": "inplace",
        "label": "contract ISuperToken",
        "numberOfBytes": "20"
      },
      "t_contract(ISuperfluid)4736": {
        "encoding": "inplace",
        "label": "contract ISuperfluid",
        "numberOfBytes": "20"
      },
      "t_int96": {
        "encoding": "inplace",
        "label": "int96",
        "numberOfBytes": "12"
      },
      "t_mapping(t_address,t_address)": {
        "encoding": "mapping",
        "key": "t_address",
        "label": "mapping(address => address)",
        "numberOfBytes": "32",
        "value": "t_address"
      },
      "t_mapping(t_address,t_bool)": {
        "encoding": "mapping",
        "key": "t_address",
        "label": "mapping(address => bool)",
        "numberOfBytes": "32",
        "value": "t_bool"
      },
      "t_mapping(t_address,t_int96)": {
        "encoding": "mapping",
        "key": "t_address",
        "label": "mapping(address => int96)",
        "numberOfBytes": "32",
        "value": "t_int96"
      },
      "t_mapping(t_address,t_uint128)": {
        "encoding": "mapping",
        "key": "t_address",
        "label": "mapping(address => uint128)",
        "numberOfBytes": "32",
        "value": "t_uint128"
      },
      "t_struct(InitData)1215_storage": {
        "encoding": "inplace",
        "label": "struct IDAv1Library.InitData",
        "members": [
          {
            "astId": 1211,
            "contract": "contracts/SuperQuadraticFunding.sol:SuperQuadraticFunding",
            "label": "host",
            "offset": 0,
            "slot": "0",
            "type": "t_contract(ISuperfluid)4736"
          },
          {
            "astId": 1214,
            "contract": "contracts/SuperQuadraticFunding.sol:SuperQuadraticFunding",
            "label": "ida",
            "offset": 0,
            "slot": "1",
            "type": "t_contract(IInstantDistributionAgreementV1)3287"
          }
        ],
        "numberOfBytes": "64"
      },
      "t_struct(InitData)378_storage": {
        "encoding": "inplace",
        "label": "struct CFAv1Library.InitData",
        "members": [
          {
            "astId": 374,
            "contract": "contracts/SuperQuadraticFunding.sol:SuperQuadraticFunding",
            "label": "host",
            "offset": 0,
            "slot": "0",
            "type": "t_contract(ISuperfluid)4736"
          },
          {
            "astId": 377,
            "contract": "contracts/SuperQuadraticFunding.sol:SuperQuadraticFunding",
            "label": "cfa",
            "offset": 0,
            "slot": "1",
            "type": "t_contract(IConstantFlowAgreementV1)2899"
          }
        ],
        "numberOfBytes": "64"
      },
      "t_uint128": {
        "encoding": "inplace",
        "label": "uint128",
        "numberOfBytes": "16"
      }
    }
  }
}